{"abi":[{"type":"constructor","inputs":[{"name":"_worldId","type":"address","internalType":"contract IWorldID"},{"name":"_appId","type":"string","internalType":"string"},{"name":"_action","type":"string","internalType":"string"},{"name":"_electionManager","type":"address","internalType":"contract IElectionManager"}],"stateMutability":"nonpayable"},{"type":"function","name":"MAX_RANK","inputs":[],"outputs":[{"name":"","type":"uint256","internalType":"uint256"}],"stateMutability":"view"},{"type":"function","name":"electionManager","inputs":[],"outputs":[{"name":"","type":"address","internalType":"contract IElectionManager"}],"stateMutability":"view"},{"type":"function","name":"externalNullifierHash","inputs":[],"outputs":[{"name":"","type":"uint256","internalType":"uint256"}],"stateMutability":"view"},{"type":"function","name":"getAllRankers","inputs":[],"outputs":[{"name":"","type":"address[]","internalType":"address[]"}],"stateMutability":"view"},{"type":"function","name":"getCandidateWinCount","inputs":[{"name":"candidateId","type":"uint256","internalType":"uint256"}],"outputs":[{"name":"","type":"uint256","internalType":"uint256"}],"stateMutability":"view"},{"type":"function","name":"getComparisonCount","inputs":[{"name":"candidateA","type":"uint256","internalType":"uint256"},{"name":"candidateB","type":"uint256","internalType":"uint256"}],"outputs":[{"name":"","type":"uint256","internalType":"uint256"}],"stateMutability":"view"},{"type":"function","name":"getCondorcetWinner","inputs":[],"outputs":[{"name":"","type":"uint256","internalType":"uint256"},{"name":"","type":"bool","internalType":"bool"}],"stateMutability":"view"},{"type":"function","name":"getFullComparisonMatrix","inputs":[],"outputs":[{"name":"","type":"uint256[][]","internalType":"uint256[][]"}],"stateMutability":"view"},{"type":"function","name":"getRankingStats","inputs":[],"outputs":[{"name":"totalRankers","type":"uint256","internalType":"uint256"},{"name":"totalComparisons","type":"uint256","internalType":"uint256"},{"name":"candidateCount","type":"uint256","internalType":"uint256"}],"stateMutability":"view"},{"type":"function","name":"getTotalRankers","inputs":[],"outputs":[{"name":"","type":"uint256","internalType":"uint256"}],"stateMutability":"view"},{"type":"function","name":"getUserCandidateRank","inputs":[{"name":"user","type":"address","internalType":"address"},{"name":"candidateId","type":"uint256","internalType":"uint256"}],"outputs":[{"name":"","type":"uint256","internalType":"uint256"}],"stateMutability":"view"},{"type":"function","name":"getUserPreference","inputs":[{"name":"user","type":"address","internalType":"address"},{"name":"candidateA","type":"uint256","internalType":"uint256"},{"name":"candidateB","type":"uint256","internalType":"uint256"}],"outputs":[{"name":"","type":"int8","internalType":"int8"}],"stateMutability":"view"},{"type":"function","name":"getUserRanking","inputs":[{"name":"user","type":"address","internalType":"address"}],"outputs":[{"name":"","type":"tuple[]","internalType":"struct PeerRanking.RankingEntry[]","components":[{"name":"candidateId","type":"uint256","internalType":"uint256"},{"name":"tiedWithPrevious","type":"bool","internalType":"bool"}]}],"stateMutability":"view"},{"type":"function","name":"groupId","inputs":[],"outputs":[{"name":"","type":"uint256","internalType":"uint256"}],"stateMutability":"view"},{"type":"function","name":"hasRanking","inputs":[{"name":"","type":"address","internalType":"address"}],"outputs":[{"name":"","type":"bool","internalType":"bool"}],"stateMutability":"view"},{"type":"function","name":"pairwiseComparisons","inputs":[{"name":"","type":"uint256","internalType":"uint256"},{"name":"","type":"uint256","internalType":"uint256"}],"outputs":[{"name":"","type":"uint256","internalType":"uint256"}],"stateMutability":"view"},{"type":"function","name":"rankers","inputs":[{"name":"","type":"uint256","internalType":"uint256"}],"outputs":[{"name":"","type":"address","internalType":"address"}],"stateMutability":"view"},{"type":"function","name":"updateRanking","inputs":[{"name":"signal","type":"address","internalType":"address"},{"name":"root","type":"uint256","internalType":"uint256"},{"name":"nullifierHash","type":"uint256","internalType":"uint256"},{"name":"proof","type":"uint256[8]","internalType":"uint256[8]"},{"name":"newRanking","type":"tuple[]","internalType":"struct PeerRanking.RankingEntry[]","components":[{"name":"candidateId","type":"uint256","internalType":"uint256"},{"name":"tiedWithPrevious","type":"bool","internalType":"bool"}]}],"outputs":[],"stateMutability":"nonpayable"},{"type":"function","name":"userCandidateRanks","inputs":[{"name":"","type":"address","internalType":"address"},{"name":"","type":"uint256","internalType":"uint256"}],"outputs":[{"name":"","type":"uint256","internalType":"uint256"}],"stateMutability":"view"},{"type":"function","name":"userRankings","inputs":[{"name":"","type":"address","internalType":"address"},{"name":"","type":"uint256","internalType":"uint256"}],"outputs":[{"name":"candidateId","type":"uint256","internalType":"uint256"},{"name":"tiedWithPrevious","type":"bool","internalType":"bool"}],"stateMutability":"view"},{"type":"function","name":"worldId","inputs":[],"outputs":[{"name":"","type":"address","internalType":"contract IWorldID"}],"stateMutability":"view"},{"type":"event","name":"ComparisonUpdated","inputs":[{"name":"candidateA","type":"uint256","indexed":true,"internalType":"uint256"},{"name":"candidateB","type":"uint256","indexed":true,"internalType":"uint256"},{"name":"newCount","type":"uint256","indexed":false,"internalType":"uint256"}],"anonymous":false},{"type":"event","name":"RankingUpdated","inputs":[{"name":"user","type":"address","indexed":true,"internalType":"address"},{"name":"newRanking","type":"tuple[]","indexed":false,"internalType":"struct PeerRanking.RankingEntry[]","components":[{"name":"candidateId","type":"uint256","internalType":"uint256"},{"name":"tiedWithPrevious","type":"bool","internalType":"bool"}]}],"anonymous":false},{"type":"error","name":"InvalidNullifier","inputs":[]}],"bytecode":{"object":"0x610100604052600160c052348015610015575f5ffd5b50604051611e0d380380611e0d8339810160408190526100349161017c565b6001600160a01b03808516608052811660e052604051610087906100759061006090869060200161021d565b60408051601f19818403018152919052610094565b8360405160200161006092919061022f565b60a0525061024892505050565b5f6008826040516020016100a8919061021d565b60408051601f198184030181529190528051602090910120901c92915050565b6001600160a01b03811681146100dc575f5ffd5b50565b634e487b7160e01b5f52604160045260245ffd5b5f82601f830112610102575f5ffd5b81516001600160401b0381111561011b5761011b6100df565b604051601f8201601f19908116603f011681016001600160401b0381118282101715610149576101496100df565b604052818152838201602001851015610160575f5ffd5b8160208501602083015e5f918101602001919091529392505050565b5f5f5f5f6080858703121561018f575f5ffd5b845161019a816100c8565b60208601519094506001600160401b038111156101b5575f5ffd5b6101c1878288016100f3565b604087015190945090506001600160401b038111156101de575f5ffd5b6101ea878288016100f3565b92505060608501516101fb816100c8565b939692955090935050565b5f81518060208401855e5f93019283525090919050565b5f6102288284610206565b9392505050565b8281525f6102406020830184610206565b949350505050565b60805160a05160c05160e051611b4c6102c15f395f818161028d015281816104d701528181610795015281816108ad01528181610c9901528181610d6501528181610e53015261105d01525f81816102f4015261065801525f81816101e801526106ba01525f818161022401526106280152611b4c5ff3fe608060405234801561000f575f5ffd5b5060043610610132575f3560e01c80637b6f574a116100b4578063a0f44c9211610079578063a0f44c92146102ef578063ab4a624f14610316578063c8d1dc9114610329578063cf49d0ce1461035b578063e165b07414610385578063e67c137e146103af575f5ffd5b80637b6f574a146102705780637da3294914610288578063887b0083146102af5780639320be37146102c25780639e3bcb8d146102e7575f5ffd5b8063575b84fe116100fa578063575b84fe146101d057806359dd06aa146101e35780636a53c3c01461020a578063753e9ef01461021f57806375835d2314610246575f5ffd5b80630790a627146101365780631039b995146101665780632ca37bee1461017b5780633d6931e81461018d578063442a8ce8146101ad575b5f5ffd5b6101496101443660046115d7565b6103c4565b6040516001600160a01b0390911681526020015b60405180910390f35b61016e6103ec565b60405161015d91906115ee565b6005545b60405190815260200161015d565b6101a061019b366004611654565b61044c565b60405161015d919061166d565b6101b56104d1565b6040805193845260208401929092529082015260600161015d565b61017f6101de3660046116b2565b6105cd565b61017f7f000000000000000000000000000000000000000000000000000000000000000081565b61021d610218366004611755565b6105f7565b005b6101497f000000000000000000000000000000000000000000000000000000000000000081565b61017f6102543660046116b2565b600260209081525f928352604080842090915290825290205481565b5f805b6040805192835290151560208301520161015d565b6101497f000000000000000000000000000000000000000000000000000000000000000081565b6102736102bd3660046116b2565b610bb4565b6102d56102d036600461186e565b610bef565b6040515f9190910b815260200161015d565b61017f5f1981565b61017f7f000000000000000000000000000000000000000000000000000000000000000081565b61017f6103243660046115d7565b610c8c565b61034b610337366004611654565b60046020525f908152604090205460ff1681565b604051901515815260200161015d565b61017f61036936600461189e565b600360209081525f928352604080842090915290825290205481565b61017f61039336600461189e565b5f91825260036020908152604080842092845291905290205490565b6103b7610e4e565b60405161015d91906118be565b600581815481106103d3575f80fd5b5f918252602090912001546001600160a01b0316905081565b6060600580548060200260200160405190810160405280929190818152602001828054801561044257602002820191905f5260205f20905b81546001600160a01b03168152600190910190602001808311610424575b5050505050905090565b6001600160a01b0381165f908152600160209081526040808320805482518185028101850190935280835260609492939192909184015b828210156104c6575f84815260209081902060408051808201909152600285029091018054825260019081015460ff161515828401529083529092019101610483565b505050509050919050565b5f5f5f5f7f00000000000000000000000000000000000000000000000000000000000000006001600160a01b031663a9a981a36040518163ffffffff1660e01b8152600401602060405180830381865afa158015610531573d5f5f3e3d5ffd5b505050506040513d601f19601f82011682018060405250810190610555919061194a565b90505f60015b8281116105be5760015b8381116105ab57808214610599575f8281526003602090815260408083208484529091529020546105969084611975565b92505b806105a381611988565b915050610565565b50806105b681611988565b91505061055b565b50600554959094509092509050565b6001600160a01b0382165f9081526002602090815260408083208484529091529020545b92915050565b5f8381526020819052604090205460ff161561062657604051632ec8265960e11b815260040160405180910390fd5b7f00000000000000000000000000000000000000000000000000000000000000006001600160a01b0316633bc778e3857f00000000000000000000000000000000000000000000000000000000000000006106b7896040516020016106a3919060609190911b6bffffffffffffffffffffffff1916815260140190565b604051602081830303815290604052611026565b877f0000000000000000000000000000000000000000000000000000000000000000886040518763ffffffff1660e01b81526004016106fb969594939291906119a0565b5f6040518083038186803b158015610711575f5ffd5b505afa158015610723573d5f5f3e3d5ffd5b5050505f848152602081905260409020805460ff191660011790555080516107925760405162461bcd60e51b815260206004820152601760248201527f52616e6b696e672063616e6e6f7420626520656d70747900000000000000000060448201526064015b60405180910390fd5b5f7f00000000000000000000000000000000000000000000000000000000000000006001600160a01b031663a9a981a36040518163ffffffff1660e01b8152600401602060405180830381865afa1580156107ef573d5f5f3e3d5ffd5b505050506040513d601f19601f82011682018060405250810190610813919061194a565b90505f5b8251811015610a34575f838281518110610833576108336119d7565b60200260200101515f0151118015610867575081838281518110610859576108596119d7565b60200260200101515f015111155b6108aa5760405162461bcd60e51b8152602060048201526014602482015273125b9d985b1a590818d85b991a59185d1948125160621b6044820152606401610789565b5f7f00000000000000000000000000000000000000000000000000000000000000006001600160a01b0316633477ee2e8584815181106108ec576108ec6119d7565b60200260200101515f01516040518263ffffffff1660e01b815260040161091591815260200190565b5f60405180830381865afa15801561092f573d5f5f3e3d5ffd5b505050506040513d5f823e601f3d908101601f191682016040526109569190810190611a57565b9350505050806109a85760405162461bcd60e51b815260206004820152601760248201527f43616e646964617465206973206e6f74206163746976650000000000000000006044820152606401610789565b815f03610a2b578382815181106109c1576109c16119d7565b60200260200101516020015115610a2b5760405162461bcd60e51b815260206004820152602860248201527f466972737420656e7472792063616e6e6f74206265207469656420776974682060448201526770726576696f757360c01b6064820152608401610789565b50600101610817565b50335f9081526004602052604090205460ff1615610a5e57610a553361105a565b610a5e336111e5565b610a6833836112c0565b335f908152600160205260408120610a7f91611592565b5f5b8251811015610aef57335f9081526001602052604090208351849083908110610aac57610aac6119d7565b6020908102919091018101518254600180820185555f948552938390208251600290920201908155910151908201805460ff191691151591909117905501610a81565b50610af9336113f4565b335f9081526004602052604090205460ff16610b6b57335f818152600460205260408120805460ff191660019081179091556005805491820181559091527f036b6384b5eca791c62761152d0c79bb0604c104a5fb6f4eb0703f3154bb3db00180546001600160a01b03191690911790555b336001600160a01b03167f55a1980c493f0b0944a366b05eb4cf30f8c51a97de5be737c2fc5d7ac14f470583604051610ba4919061166d565b60405180910390a2505050505050565b6001602052815f5260405f208181548110610bcd575f80fd5b5f9182526020909120600290910201805460019091015490925060ff16905082565b6001600160a01b0383165f908152600260209081526040808320858452909152808220548383529082205481158015610c26575080155b15610c35575f92505050610c85565b815f03610c47575f1992505050610c85565b805f03610c5957600192505050610c85565b80821115610c6c57600192505050610c85565b81811115610c7f575f1992505050610c85565b5f925050505b9392505050565b5f5f82118015610d1b57507f00000000000000000000000000000000000000000000000000000000000000006001600160a01b031663a9a981a36040518163ffffffff1660e01b8152600401602060405180830381865afa158015610cf3573d5f5f3e3d5ffd5b505050506040513d601f19601f82011682018060405250810190610d17919061194a565b8211155b610d5e5760405162461bcd60e51b8152602060048201526014602482015273125b9d985b1a590818d85b991a59185d1948125160621b6044820152606401610789565b5f5f90505f7f00000000000000000000000000000000000000000000000000000000000000006001600160a01b031663a9a981a36040518163ffffffff1660e01b8152600401602060405180830381865afa158015610dbf573d5f5f3e3d5ffd5b505050506040513d601f19601f82011682018060405250810190610de3919061194a565b905060015b818111610e4557808514610e33575f818152600360208181526040808420898552825280842054928252808420858552909152909120541115610e335782610e2f81611988565b9350505b80610e3d81611988565b915050610de8565b50909392505050565b60605f7f00000000000000000000000000000000000000000000000000000000000000006001600160a01b031663a9a981a36040518163ffffffff1660e01b8152600401602060405180830381865afa158015610ead573d5f5f3e3d5ffd5b505050506040513d601f19601f82011682018060405250810190610ed1919061194a565b90505f610edf826001611975565b67ffffffffffffffff811115610ef757610ef76116da565b604051908082528060200260200182016040528015610f2a57816020015b6060815260200190600190039081610f155790505b5090505f5b82811161101f57610f41836001611975565b67ffffffffffffffff811115610f5957610f596116da565b604051908082528060200260200182016040528015610f82578160200160208202803683370190505b50828281518110610f9557610f956119d7565b60209081029190910101525f5b83811161100c575f8281526003602090815260408083208484529091529020548351849084908110610fd657610fd66119d7565b60200260200101518281518110610fef57610fef6119d7565b60209081029190910101528061100481611988565b915050610fa2565b508061101781611988565b915050610f2f565b5092915050565b5f60088260405160200161103a9190611ad8565b60408051601f198184030181529190528051602090910120901c92915050565b5f7f00000000000000000000000000000000000000000000000000000000000000006001600160a01b031663a9a981a36040518163ffffffff1660e01b8152600401602060405180830381865afa1580156110b7573d5f5f3e3d5ffd5b505050506040513d601f19601f820116820180604052508101906110db919061194a565b905060015b8181116111e05760015b8281116111cd578082146111bb576001600160a01b0384165f90815260026020908152604080832085845290915280822054838352912054811580159061113057505f81115b801561113b57508082115b156111b8575f848152600360209081526040808320868452909152812080549161116483611aee565b90915550505f848152600360209081526040808320868452825291829020549151918252849186917f8b9f4f3022666c534f8ac38c6a346db037cd116bc28a0454ce70a2a5ad87bc32910160405180910390a35b50505b806111c581611988565b9150506110ea565b50806111d881611988565b9150506110e0565b505050565b6001600160a01b0381165f90815260016020908152604080832080548251818502810185019093528083529192909190849084015b8282101561125d575f84815260209081902060408051808201909152600285029091018054825260019081015460ff16151582840152908352909201910161121a565b509293505f925050505b81518110156111e0576001600160a01b0383165f9081526002602052604081208351829085908590811061129d5761129d6119d7565b6020908102919091018101515182528101919091526040015f2055600101611267565b5f195f5b82518110156113ee575f811180156112f657508281815181106112e9576112e96119d7565b6020026020010151602001515b1561138d575f83611308600184611b03565b81518110611318576113186119d7565b602090810291909101810151516001600160a01b0387165f8181526002808552604080832085845280875290832054938352945287519294509092839290919088908790811061136a5761136a6119d7565b60200260200101515f015181526020019081526020015f208190555050506113e6565b6001600160a01b0384165f90815260026020526040812084518492908690859081106113bb576113bb6119d7565b60200260200101515f015181526020019081526020015f208190555081806113e290611aee565b9250505b6001016112c4565b50505050565b6001600160a01b0381165f90815260016020908152604080832080548251818502810185019093528083529192909190849084015b8282101561146c575f84815260209081902060408051808201909152600285029091018054825260019081015460ff161515828401529083529092019101611429565b509293505f925050505b81518110156111e0575f5b825181101561158957808214611581575f8383815181106114a4576114a46119d7565b60200260200101515f015190505f8483815181106114c4576114c46119d7565b602090810291909101810151516001600160a01b0388165f90815260028352604080822086835290935282812054828252929020549092508082111561157c575f848152600360209081526040808320868452909152812080549161152883611988565b90915550505f848152600360209081526040808320868452825291829020549151918252849186917f8b9f4f3022666c534f8ac38c6a346db037cd116bc28a0454ce70a2a5ad87bc32910160405180910390a35b505050505b600101611481565b50600101611476565b5080545f8255600202905f5260205f20908101906115b091906115b3565b50565b5b808211156115d3575f815560018101805460ff191690556002016115b4565b5090565b5f602082840312156115e7575f5ffd5b5035919050565b602080825282518282018190525f918401906040840190835b8181101561162e5783516001600160a01b0316835260209384019390920191600101611607565b509095945050505050565b80356001600160a01b038116811461164f575f5ffd5b919050565b5f60208284031215611664575f5ffd5b610c8582611639565b602080825282518282018190525f918401906040840190835b8181101561162e5783518051845260209081015115158185015290930192604090920191600101611686565b5f5f604083850312156116c3575f5ffd5b6116cc83611639565b946020939093013593505050565b634e487b7160e01b5f52604160045260245ffd5b6040805190810167ffffffffffffffff81118282101715611711576117116116da565b60405290565b604051601f8201601f1916810167ffffffffffffffff81118282101715611740576117406116da565b604052919050565b80151581146115b0575f5ffd5b5f5f5f5f5f610180868803121561176a575f5ffd5b61177386611639565b94506020860135935060408601359250610160860187811115611794575f5ffd5b6060870192503567ffffffffffffffff8111156117af575f5ffd5b8601601f810188136117bf575f5ffd5b803567ffffffffffffffff8111156117d9576117d96116da565b6117e860208260051b01611717565b8082825260208201915060208360061b85010192508a831115611809575f5ffd5b6020840193505b8284101561185d576040848c031215611827575f5ffd5b61182f6116ee565b84358152602085013561184181611748565b8060208301525080835250602082019150604084019350611810565b809450505050509295509295909350565b5f5f5f60608486031215611880575f5ffd5b61188984611639565b95602085013595506040909401359392505050565b5f5f604083850312156118af575f5ffd5b50508035926020909101359150565b5f602082016020835280845180835260408501915060408160051b8601019250602086015f5b8281101561193e57868503603f19018452815180518087526020918201918701905f5b81811015611925578351835260209384019390920191600101611907565b50909650505060209384019391909101906001016118e4565b50929695505050505050565b5f6020828403121561195a575f5ffd5b5051919050565b634e487b7160e01b5f52601160045260245ffd5b808201808211156105f1576105f1611961565b5f6001820161199957611999611961565b5060010190565b5f6101a0820190508782528660208301528560408301528460608301528360808301526101008360a0840137979650505050505050565b634e487b7160e01b5f52603260045260245ffd5b5f82601f8301126119fa575f5ffd5b815167ffffffffffffffff811115611a1457611a146116da565b611a27601f8201601f1916602001611717565b818152846020838601011115611a3b575f5ffd5b8160208501602083015e5f918101602001919091529392505050565b5f5f5f5f60808587031215611a6a575f5ffd5b8451602086015190945067ffffffffffffffff811115611a88575f5ffd5b611a94878288016119eb565b935050604085015167ffffffffffffffff811115611ab0575f5ffd5b611abc878288016119eb565b9250506060850151611acd81611748565b939692955090935050565b5f82518060208501845e5f920191825250919050565b5f81611afc57611afc611961565b505f190190565b818103818111156105f1576105f161196156fea2646970667358221220df0ea6126c640d1754b3e768ceb75ab7cd1c41bc4fb2d658ab40fdde96f6f37d64736f6c634300081b0033","linkReferences":{}},"methodIdentifiers":{"MAX_RANK()":"9e3bcb8d","electionManager()":"7da32949","externalNullifierHash()":"59dd06aa","getAllRankers()":"1039b995","getCandidateWinCount(uint256)":"ab4a624f","getComparisonCount(uint256,uint256)":"e165b074","getCondorcetWinner()":"7b6f574a","getFullComparisonMatrix()":"e67c137e","getRankingStats()":"442a8ce8","getTotalRankers()":"2ca37bee","getUserCandidateRank(address,uint256)":"575b84fe","getUserPreference(address,uint256,uint256)":"9320be37","getUserRanking(address)":"3d6931e8","groupId()":"a0f44c92","hasRanking(address)":"c8d1dc91","pairwiseComparisons(uint256,uint256)":"cf49d0ce","rankers(uint256)":"0790a627","updateRanking(address,uint256,uint256,uint256[8],(uint256,bool)[])":"6a53c3c0","userCandidateRanks(address,uint256)":"75835d23","userRankings(address,uint256)":"887b0083","worldId()":"753e9ef0"},"id":1}