{"abi":[{"type":"constructor","inputs":[{"name":"_worldId","type":"address","internalType":"contract IWorldID"},{"name":"_appId","type":"string","internalType":"string"},{"name":"_action","type":"string","internalType":"string"},{"name":"_electionManager","type":"address","internalType":"contract IElectionManager"}],"stateMutability":"nonpayable"},{"type":"function","name":"MAX_RANK","inputs":[],"outputs":[{"name":"","type":"uint256","internalType":"uint256"}],"stateMutability":"view"},{"type":"function","name":"electionManager","inputs":[],"outputs":[{"name":"","type":"address","internalType":"contract IElectionManager"}],"stateMutability":"view"},{"type":"function","name":"externalNullifierHash","inputs":[],"outputs":[{"name":"","type":"uint256","internalType":"uint256"}],"stateMutability":"view"},{"type":"function","name":"getAllRankers","inputs":[],"outputs":[{"name":"","type":"uint256[]","internalType":"uint256[]"}],"stateMutability":"view"},{"type":"function","name":"getNullifierRanking","inputs":[{"name":"nullifierHash","type":"uint256","internalType":"uint256"}],"outputs":[{"name":"","type":"tuple[]","internalType":"struct PeerRanking.RankingEntry[]","components":[{"name":"candidateId","type":"uint256","internalType":"uint256"},{"name":"tiedWithPrevious","type":"bool","internalType":"bool"}]}],"stateMutability":"view"},{"type":"function","name":"getRankingStats","inputs":[],"outputs":[{"name":"totalRankers","type":"uint256","internalType":"uint256"},{"name":"totalComparisons","type":"uint256","internalType":"uint256"},{"name":"candidateCount","type":"uint256","internalType":"uint256"}],"stateMutability":"view"},{"type":"function","name":"getTotalRankers","inputs":[],"outputs":[{"name":"","type":"uint256","internalType":"uint256"}],"stateMutability":"view"},{"type":"function","name":"groupId","inputs":[],"outputs":[{"name":"","type":"uint256","internalType":"uint256"}],"stateMutability":"view"},{"type":"function","name":"nullifierRankings","inputs":[{"name":"","type":"uint256","internalType":"uint256"},{"name":"","type":"uint256","internalType":"uint256"}],"outputs":[{"name":"candidateId","type":"uint256","internalType":"uint256"},{"name":"tiedWithPrevious","type":"bool","internalType":"bool"}],"stateMutability":"view"},{"type":"function","name":"rankers","inputs":[{"name":"","type":"uint256","internalType":"uint256"}],"outputs":[{"name":"","type":"uint256","internalType":"uint256"}],"stateMutability":"view"},{"type":"function","name":"updateRanking","inputs":[{"name":"signal","type":"address","internalType":"address"},{"name":"root","type":"uint256","internalType":"uint256"},{"name":"nullifierHash","type":"uint256","internalType":"uint256"},{"name":"proof","type":"uint256[8]","internalType":"uint256[8]"},{"name":"newRanking","type":"tuple[]","internalType":"struct PeerRanking.RankingEntry[]","components":[{"name":"candidateId","type":"uint256","internalType":"uint256"},{"name":"tiedWithPrevious","type":"bool","internalType":"bool"}]}],"outputs":[],"stateMutability":"nonpayable"},{"type":"function","name":"worldId","inputs":[],"outputs":[{"name":"","type":"address","internalType":"contract IWorldID"}],"stateMutability":"view"},{"type":"event","name":"RankingUpdated","inputs":[{"name":"user","type":"address","indexed":true,"internalType":"address"},{"name":"newRanking","type":"tuple[]","indexed":false,"internalType":"struct PeerRanking.RankingEntry[]","components":[{"name":"candidateId","type":"uint256","internalType":"uint256"},{"name":"tiedWithPrevious","type":"bool","internalType":"bool"}]}],"anonymous":false},{"type":"error","name":"InvalidNullifier","inputs":[]}],"bytecode":{"object":"0x610100604052600160c052348015610015575f5ffd5b5060405161105f38038061105f8339810160408190526100349161017c565b6001600160a01b03808516608052811660e052604051610087906100759061006090869060200161021d565b60408051601f19818403018152919052610094565b8360405160200161006092919061022f565b60a0525061024892505050565b5f6008826040516020016100a8919061021d565b60408051601f198184030181529190528051602090910120901c92915050565b6001600160a01b03811681146100dc575f5ffd5b50565b634e487b7160e01b5f52604160045260245ffd5b5f82601f830112610102575f5ffd5b81516001600160401b0381111561011b5761011b6100df565b604051601f8201601f19908116603f011681016001600160401b0381118282101715610149576101496100df565b604052818152838201602001851015610160575f5ffd5b8160208501602083015e5f918101602001919091529392505050565b5f5f5f5f6080858703121561018f575f5ffd5b845161019a816100c8565b60208601519094506001600160401b038111156101b5575f5ffd5b6101c1878288016100f3565b604087015190945090506001600160401b038111156101de575f5ffd5b6101ea878288016100f3565b92505060608501516101fb816100c8565b939692955090935050565b5f81518060208401855e5f93019283525090919050565b5f6102288284610206565b9392505050565b8281525f6102406020830184610206565b949350505050565b60805160a05160c05160e051610dba6102a55f395f81816101e3015281816102b50152818161055c015261067401525f8181610212015261041f01525f8181610140015261048101525f818161017c01526103ef0152610dba5ff3fe608060405234801561000f575f5ffd5b50600436106100b1575f3560e01c80636a53c3c01161006e5780636a53c3c014610162578063753e9ef0146101775780637ac13aeb146101b65780637da32949146101de5780639e3bcb8d14610205578063a0f44c921461020d575f5ffd5b80630790a627146100b55780631039b995146100db5780632ca37bee146100f0578063442a8ce8146100f857806349cacd891461011b57806359dd06aa1461013b575b5f5ffd5b6100c86100c33660046109c0565b610234565b6040519081526020015b60405180910390f35b6100e3610253565b6040516100d291906109d7565b6002546100c8565b6101006102a9565b604080519384526020840192909252908201526060016100d2565b61012e6101293660046109c0565b61033e565b6040516100d29190610a19565b6100c87f000000000000000000000000000000000000000000000000000000000000000081565b610175610170366004610ad9565b6103be565b005b61019e7f000000000000000000000000000000000000000000000000000000000000000081565b6040516001600160a01b0390911681526020016100d2565b6101c96101c4366004610bff565b61090c565b604080519283529015156020830152016100d2565b61019e7f000000000000000000000000000000000000000000000000000000000000000081565b6100c85f1981565b6100c87f000000000000000000000000000000000000000000000000000000000000000081565b60028181548110610243575f80fd5b5f91825260209091200154905081565b6060600280548060200260200160405190810160405280929190818152602001828054801561029f57602002820191905f5260205f20905b81548152602001906001019080831161028b575b5050505050905090565b5f5f5f6002805490505f7f00000000000000000000000000000000000000000000000000000000000000006001600160a01b031663a9a981a36040518163ffffffff1660e01b8152600401602060405180830381865afa15801561030f573d5f5f3e3d5ffd5b505050506040513d601f19601f820116820180604052508101906103339190610c1f565b925092509250909192565b606060015f8381526020019081526020015f20805480602002602001604051908101604052809291908181526020015f905b828210156103b3575f84815260209081902060408051808201909152600285029091018054825260019081015460ff161515828401529083529092019101610370565b505050509050919050565b5f8381526020819052604090205460ff16156103ed57604051632ec8265960e11b815260040160405180910390fd5b7f00000000000000000000000000000000000000000000000000000000000000006001600160a01b0316633bc778e3857f000000000000000000000000000000000000000000000000000000000000000061047e8960405160200161046a919060609190911b6bffffffffffffffffffffffff1916815260140190565b604051602081830303815290604052610947565b877f0000000000000000000000000000000000000000000000000000000000000000886040518763ffffffff1660e01b81526004016104c296959493929190610c36565b5f6040518083038186803b1580156104d8575f5ffd5b505afa1580156104ea573d5f5f3e3d5ffd5b5050505f848152602081905260409020805460ff191660011790555080516105595760405162461bcd60e51b815260206004820152601760248201527f52616e6b696e672063616e6e6f7420626520656d70747900000000000000000060448201526064015b60405180910390fd5b5f7f00000000000000000000000000000000000000000000000000000000000000006001600160a01b031663a9a981a36040518163ffffffff1660e01b8152600401602060405180830381865afa1580156105b6573d5f5f3e3d5ffd5b505050506040513d601f19601f820116820180604052508101906105da9190610c1f565b90505f5b82518110156107fb575f8382815181106105fa576105fa610c6d565b60200260200101515f015111801561062e57508183828151811061062057610620610c6d565b60200260200101515f015111155b6106715760405162461bcd60e51b8152602060048201526014602482015273125b9d985b1a590818d85b991a59185d1948125160621b6044820152606401610550565b5f7f00000000000000000000000000000000000000000000000000000000000000006001600160a01b0316633477ee2e8584815181106106b3576106b3610c6d565b60200260200101515f01516040518263ffffffff1660e01b81526004016106dc91815260200190565b5f60405180830381865afa1580156106f6573d5f5f3e3d5ffd5b505050506040513d5f823e601f3d908101601f1916820160405261071d9190810190610ced565b93505050508061076f5760405162461bcd60e51b815260206004820152601760248201527f43616e646964617465206973206e6f74206163746976650000000000000000006044820152606401610550565b815f036107f25783828151811061078857610788610c6d565b602002602001015160200151156107f25760405162461bcd60e51b815260206004820152602860248201527f466972737420656e7472792063616e6e6f74206265207469656420776974682060448201526770726576696f757360c01b6064820152608401610550565b506001016105de565b505f84815260016020526040812080541591610817919061097b565b5f5b8351811015610886575f868152600160205260409020845185908390811061084357610843610c6d565b6020908102919091018101518254600180820185555f948552938390208251600290920201908155910151908201805460ff191691151591909117905501610819565b5080156108c257600280546001810182555f919091527f405787fa12a823e0f2b7631cc41b3ba8828b3321ca811111fa75cd3aa3bb5ace018590555b336001600160a01b03167f55a1980c493f0b0944a366b05eb4cf30f8c51a97de5be737c2fc5d7ac14f4705846040516108fb9190610a19565b60405180910390a250505050505050565b6001602052815f5260405f208181548110610925575f80fd5b5f9182526020909120600290910201805460019091015490925060ff16905082565b5f60088260405160200161095b9190610d6e565b60408051601f198184030181529190528051602090910120901c92915050565b5080545f8255600202905f5260205f2090810190610999919061099c565b50565b5b808211156109bc575f815560018101805460ff1916905560020161099d565b5090565b5f602082840312156109d0575f5ffd5b5035919050565b602080825282518282018190525f918401906040840190835b81811015610a0e5783518352602093840193909201916001016109f0565b509095945050505050565b602080825282518282018190525f918401906040840190835b81811015610a0e5783518051845260209081015115158185015290930192604090920191600101610a32565b634e487b7160e01b5f52604160045260245ffd5b6040805190810167ffffffffffffffff81118282101715610a9557610a95610a5e565b60405290565b604051601f8201601f1916810167ffffffffffffffff81118282101715610ac457610ac4610a5e565b604052919050565b8015158114610999575f5ffd5b5f5f5f5f5f6101808688031215610aee575f5ffd5b85356001600160a01b0381168114610b04575f5ffd5b94506020860135935060408601359250610160860187811115610b25575f5ffd5b6060870192503567ffffffffffffffff811115610b40575f5ffd5b8601601f81018813610b50575f5ffd5b803567ffffffffffffffff811115610b6a57610b6a610a5e565b610b7960208260051b01610a9b565b8082825260208201915060208360061b85010192508a831115610b9a575f5ffd5b6020840193505b82841015610bee576040848c031215610bb8575f5ffd5b610bc0610a72565b843581526020850135610bd281610acc565b8060208301525080835250602082019150604084019350610ba1565b809450505050509295509295909350565b5f5f60408385031215610c10575f5ffd5b50508035926020909101359150565b5f60208284031215610c2f575f5ffd5b5051919050565b5f6101a0820190508782528660208301528560408301528460608301528360808301526101008360a0840137979650505050505050565b634e487b7160e01b5f52603260045260245ffd5b5f82601f830112610c90575f5ffd5b815167ffffffffffffffff811115610caa57610caa610a5e565b610cbd601f8201601f1916602001610a9b565b818152846020838601011115610cd1575f5ffd5b8160208501602083015e5f918101602001919091529392505050565b5f5f5f5f60808587031215610d00575f5ffd5b8451602086015190945067ffffffffffffffff811115610d1e575f5ffd5b610d2a87828801610c81565b935050604085015167ffffffffffffffff811115610d46575f5ffd5b610d5287828801610c81565b9250506060850151610d6381610acc565b939692955090935050565b5f82518060208501845e5f92019182525091905056fea2646970667358221220e65819a26055faa957c528b9751644e6d9822aeb09e076e25f96c5b5e9d40dd264736f6c634300081b0033","linkReferences":{}},"methodIdentifiers":{"MAX_RANK()":"9e3bcb8d","electionManager()":"7da32949","externalNullifierHash()":"59dd06aa","getAllRankers()":"1039b995","getNullifierRanking(uint256)":"49cacd89","getRankingStats()":"442a8ce8","getTotalRankers()":"2ca37bee","groupId()":"a0f44c92","nullifierRankings(uint256,uint256)":"7ac13aeb","rankers(uint256)":"0790a627","updateRanking(address,uint256,uint256,uint256[8],(uint256,bool)[])":"6a53c3c0","worldId()":"753e9ef0"},"id":3}