{"abi":[{"type":"constructor","inputs":[{"name":"_worldId","type":"address","internalType":"contract IWorldID"},{"name":"_title","type":"string","internalType":"string"},{"name":"_description","type":"string","internalType":"string"},{"name":"_worldIdAction","type":"string","internalType":"string"},{"name":"_creator","type":"address","internalType":"address"}],"stateMutability":"nonpayable"},{"type":"function","name":"CANDIDATE_MANAGER_ROLE","inputs":[],"outputs":[{"name":"","type":"bytes32","internalType":"bytes32"}],"stateMutability":"view"},{"type":"function","name":"DEFAULT_ADMIN_ROLE","inputs":[],"outputs":[{"name":"","type":"bytes32","internalType":"bytes32"}],"stateMutability":"view"},{"type":"function","name":"FACTORY_ROLE","inputs":[],"outputs":[{"name":"","type":"bytes32","internalType":"bytes32"}],"stateMutability":"view"},{"type":"function","name":"OPERATOR_ROLE","inputs":[],"outputs":[{"name":"","type":"bytes32","internalType":"bytes32"}],"stateMutability":"view"},{"type":"function","name":"REPORTER_ROLE","inputs":[],"outputs":[{"name":"","type":"bytes32","internalType":"bytes32"}],"stateMutability":"view"},{"type":"function","name":"addCandidate","inputs":[{"name":"_name","type":"string","internalType":"string"},{"name":"_description","type":"string","internalType":"string"}],"outputs":[],"stateMutability":"nonpayable"},{"type":"function","name":"candidateCount","inputs":[],"outputs":[{"name":"","type":"uint256","internalType":"uint256"}],"stateMutability":"view"},{"type":"function","name":"candidateIds","inputs":[{"name":"","type":"uint256","internalType":"uint256"}],"outputs":[{"name":"","type":"uint256","internalType":"uint256"}],"stateMutability":"view"},{"type":"function","name":"candidates","inputs":[{"name":"","type":"uint256","internalType":"uint256"}],"outputs":[{"name":"id","type":"uint256","internalType":"uint256"},{"name":"name","type":"string","internalType":"string"},{"name":"description","type":"string","internalType":"string"},{"name":"active","type":"bool","internalType":"bool"}],"stateMutability":"view"},{"type":"function","name":"createdAt","inputs":[],"outputs":[{"name":"","type":"uint256","internalType":"uint256"}],"stateMutability":"view"},{"type":"function","name":"creator","inputs":[],"outputs":[{"name":"","type":"address","internalType":"address"}],"stateMutability":"view"},{"type":"function","name":"deactivateCandidate","inputs":[{"name":"candidateId","type":"uint256","internalType":"uint256"}],"outputs":[],"stateMutability":"nonpayable"},{"type":"function","name":"description","inputs":[],"outputs":[{"name":"","type":"string","internalType":"string"}],"stateMutability":"view"},{"type":"function","name":"externalNullifierHash","inputs":[],"outputs":[{"name":"","type":"uint256","internalType":"uint256"}],"stateMutability":"view"},{"type":"function","name":"factory","inputs":[],"outputs":[{"name":"","type":"address","internalType":"address"}],"stateMutability":"view"},{"type":"function","name":"getAllVoters","inputs":[],"outputs":[{"name":"","type":"uint256[]","internalType":"uint256[]"}],"stateMutability":"view"},{"type":"function","name":"getCandidates","inputs":[],"outputs":[{"name":"","type":"tuple[]","internalType":"struct Election.Candidate[]","components":[{"name":"id","type":"uint256","internalType":"uint256"},{"name":"name","type":"string","internalType":"string"},{"name":"description","type":"string","internalType":"string"},{"name":"active","type":"bool","internalType":"bool"}]}],"stateMutability":"view"},{"type":"function","name":"getElectionInfo","inputs":[],"outputs":[{"name":"_title","type":"string","internalType":"string"},{"name":"_description","type":"string","internalType":"string"},{"name":"_worldIdAction","type":"string","internalType":"string"},{"name":"_creator","type":"address","internalType":"address"},{"name":"_createdAt","type":"uint256","internalType":"uint256"},{"name":"_votingActive","type":"bool","internalType":"bool"},{"name":"_candidateCount","type":"uint256","internalType":"uint256"},{"name":"_voteCount","type":"uint256","internalType":"uint256"}],"stateMutability":"view"},{"type":"function","name":"getElectionStatus","inputs":[],"outputs":[{"name":"_votingActive","type":"bool","internalType":"bool"},{"name":"_voteCount","type":"uint256","internalType":"uint256"},{"name":"_candidateCount","type":"uint256","internalType":"uint256"},{"name":"_selectionBlock","type":"uint256","internalType":"uint256"},{"name":"_selectedCandidates","type":"uint256[]","internalType":"uint256[]"}],"stateMutability":"view"},{"type":"function","name":"getRoleAdmin","inputs":[{"name":"role","type":"bytes32","internalType":"bytes32"}],"outputs":[{"name":"","type":"bytes32","internalType":"bytes32"}],"stateMutability":"view"},{"type":"function","name":"getSelectionBlock","inputs":[],"outputs":[{"name":"","type":"uint256","internalType":"uint256"}],"stateMutability":"view"},{"type":"function","name":"getSelectionResults","inputs":[],"outputs":[{"name":"_selectedCandidates","type":"uint256[]","internalType":"uint256[]"},{"name":"_selectionBlock","type":"uint256","internalType":"uint256"}],"stateMutability":"view"},{"type":"function","name":"getVote","inputs":[{"name":"voterId","type":"uint256","internalType":"uint256"}],"outputs":[{"name":"","type":"tuple[]","internalType":"struct Election.RankingEntry[]","components":[{"name":"candidateId","type":"uint256","internalType":"uint256"},{"name":"tiedWithPrevious","type":"bool","internalType":"bool"}]}],"stateMutability":"view"},{"type":"function","name":"getVoteCount","inputs":[],"outputs":[{"name":"","type":"uint256","internalType":"uint256"}],"stateMutability":"view"},{"type":"function","name":"getVotingStats","inputs":[],"outputs":[{"name":"totalVoters","type":"uint256","internalType":"uint256"},{"name":"totalComparisons","type":"uint256","internalType":"uint256"},{"name":"candidateCount_","type":"uint256","internalType":"uint256"}],"stateMutability":"view"},{"type":"function","name":"grantRole","inputs":[{"name":"role","type":"bytes32","internalType":"bytes32"},{"name":"account","type":"address","internalType":"address"}],"outputs":[],"stateMutability":"nonpayable"},{"type":"function","name":"groupId","inputs":[],"outputs":[{"name":"","type":"uint256","internalType":"uint256"}],"stateMutability":"view"},{"type":"function","name":"hasRole","inputs":[{"name":"role","type":"bytes32","internalType":"bytes32"},{"name":"account","type":"address","internalType":"address"}],"outputs":[{"name":"","type":"bool","internalType":"bool"}],"stateMutability":"view"},{"type":"function","name":"pauseVoting","inputs":[],"outputs":[],"stateMutability":"nonpayable"},{"type":"function","name":"paused","inputs":[],"outputs":[{"name":"","type":"bool","internalType":"bool"}],"stateMutability":"view"},{"type":"function","name":"reactivateCandidate","inputs":[{"name":"candidateId","type":"uint256","internalType":"uint256"}],"outputs":[],"stateMutability":"nonpayable"},{"type":"function","name":"renounceRole","inputs":[{"name":"role","type":"bytes32","internalType":"bytes32"},{"name":"callerConfirmation","type":"address","internalType":"address"}],"outputs":[],"stateMutability":"nonpayable"},{"type":"function","name":"reportSelection","inputs":[{"name":"_selectedCandidates","type":"uint256[]","internalType":"uint256[]"}],"outputs":[],"stateMutability":"nonpayable"},{"type":"function","name":"resumeVoting","inputs":[],"outputs":[],"stateMutability":"nonpayable"},{"type":"function","name":"revokeRole","inputs":[{"name":"role","type":"bytes32","internalType":"bytes32"},{"name":"account","type":"address","internalType":"address"}],"outputs":[],"stateMutability":"nonpayable"},{"type":"function","name":"selectedCandidates","inputs":[{"name":"","type":"uint256","internalType":"uint256"}],"outputs":[{"name":"","type":"uint256","internalType":"uint256"}],"stateMutability":"view"},{"type":"function","name":"selectionBlock","inputs":[],"outputs":[{"name":"","type":"uint256","internalType":"uint256"}],"stateMutability":"view"},{"type":"function","name":"supportsInterface","inputs":[{"name":"interfaceId","type":"bytes4","internalType":"bytes4"}],"outputs":[{"name":"","type":"bool","internalType":"bool"}],"stateMutability":"view"},{"type":"function","name":"title","inputs":[],"outputs":[{"name":"","type":"string","internalType":"string"}],"stateMutability":"view"},{"type":"function","name":"vote","inputs":[{"name":"signal","type":"uint256","internalType":"uint256"},{"name":"root","type":"uint256","internalType":"uint256"},{"name":"voterId","type":"uint256","internalType":"uint256"},{"name":"proof","type":"uint256[8]","internalType":"uint256[8]"},{"name":"ranking","type":"tuple[]","internalType":"struct Election.RankingEntry[]","components":[{"name":"candidateId","type":"uint256","internalType":"uint256"},{"name":"tiedWithPrevious","type":"bool","internalType":"bool"}]}],"outputs":[],"stateMutability":"nonpayable"},{"type":"function","name":"voters","inputs":[{"name":"","type":"uint256","internalType":"uint256"}],"outputs":[{"name":"","type":"uint256","internalType":"uint256"}],"stateMutability":"view"},{"type":"function","name":"votes","inputs":[{"name":"","type":"uint256","internalType":"uint256"},{"name":"","type":"uint256","internalType":"uint256"}],"outputs":[{"name":"candidateId","type":"uint256","internalType":"uint256"},{"name":"tiedWithPrevious","type":"bool","internalType":"bool"}],"stateMutability":"view"},{"type":"function","name":"worldId","inputs":[],"outputs":[{"name":"","type":"address","internalType":"contract IWorldID"}],"stateMutability":"view"},{"type":"function","name":"worldIdAction","inputs":[],"outputs":[{"name":"","type":"string","internalType":"string"}],"stateMutability":"view"},{"type":"event","name":"CandidateAdded","inputs":[{"name":"candidateId","type":"uint256","indexed":true,"internalType":"uint256"},{"name":"name","type":"string","indexed":false,"internalType":"string"}],"anonymous":false},{"type":"event","name":"Paused","inputs":[{"name":"account","type":"address","indexed":false,"internalType":"address"}],"anonymous":false},{"type":"event","name":"RankingUpdated","inputs":[{"name":"user","type":"address","indexed":true,"internalType":"address"},{"name":"newRanking","type":"tuple[]","indexed":false,"internalType":"struct Election.RankingEntry[]","components":[{"name":"candidateId","type":"uint256","internalType":"uint256"},{"name":"tiedWithPrevious","type":"bool","internalType":"bool"}]}],"anonymous":false},{"type":"event","name":"RoleAdminChanged","inputs":[{"name":"role","type":"bytes32","indexed":true,"internalType":"bytes32"},{"name":"previousAdminRole","type":"bytes32","indexed":true,"internalType":"bytes32"},{"name":"newAdminRole","type":"bytes32","indexed":true,"internalType":"bytes32"}],"anonymous":false},{"type":"event","name":"RoleGranted","inputs":[{"name":"role","type":"bytes32","indexed":true,"internalType":"bytes32"},{"name":"account","type":"address","indexed":true,"internalType":"address"},{"name":"sender","type":"address","indexed":true,"internalType":"address"}],"anonymous":false},{"type":"event","name":"RoleRevoked","inputs":[{"name":"role","type":"bytes32","indexed":true,"internalType":"bytes32"},{"name":"account","type":"address","indexed":true,"internalType":"address"},{"name":"sender","type":"address","indexed":true,"internalType":"address"}],"anonymous":false},{"type":"event","name":"SelectionCompleted","inputs":[{"name":"selectedCandidates","type":"uint256[]","indexed":false,"internalType":"uint256[]"},{"name":"selectionBlock","type":"uint256","indexed":false,"internalType":"uint256"}],"anonymous":false},{"type":"event","name":"Unpaused","inputs":[{"name":"account","type":"address","indexed":false,"internalType":"address"}],"anonymous":false},{"type":"error","name":"AccessControlBadConfirmation","inputs":[]},{"type":"error","name":"AccessControlUnauthorizedAccount","inputs":[{"name":"account","type":"address","internalType":"address"},{"name":"neededRole","type":"bytes32","internalType":"bytes32"}]},{"type":"error","name":"CandidateNotActive","inputs":[{"name":"candidateId","type":"uint256","internalType":"uint256"}]},{"type":"error","name":"EnforcedPause","inputs":[]},{"type":"error","name":"ExpectedPause","inputs":[]},{"type":"error","name":"FirstEntryCannotBeTied","inputs":[]},{"type":"error","name":"InvalidCandidateId","inputs":[{"name":"candidateId","type":"uint256","internalType":"uint256"}]},{"type":"error","name":"RankingEmpty","inputs":[]},{"type":"error","name":"VoterNotFound","inputs":[{"name":"voterId","type":"uint256","internalType":"uint256"}]}],"bytecode":{"object":"0x60e0604052600160c052348015610014575f5ffd5b506040516127493803806127498339810160408190526100339161035c565b6001600160a01b038516608052600261004c8582610497565b5060036100598482610497565b5060046100668382610497565b50600580546001600160a01b0383166001600160a01b03199182161790915560068054909116331790555f60075542600855604051610107906100f5906100e0906020017f6170705f313037313938343561303937376566363365626538656239656462388152630e4c185960e21b602082015260240190565b60408051601f198184030181529190526101cb565b836040516020016100e0929190610568565b60a0526101145f826101ff565b5061013f7fdfbefbf47cfe66b701d8cfdbce1de81c821590819cb07e71cb01b6602fb0ee27336101ff565b5061016a7f86ba3ce870574648095a9a005617ca8bb8a751790f4b373c14c589ffb363adad826101ff565b506101957f3204c940063673962b481a0395619b3dbbd137589c419e993978c1c71bcf68ec826101ff565b506101c07f97667070c54ef182b0f5858b034beac1b6f3089aa2d3188bb1e8929f4fa9b929826101ff565b505050505050610593565b5f6008826040516020016101df9190610581565b60408051601f198184030181529190528051602090910120901c92915050565b5f828152602081815260408083206001600160a01b038516845290915281205460ff1661029f575f838152602081815260408083206001600160a01b03861684529091529020805460ff191660011790556102573390565b6001600160a01b0316826001600160a01b0316847f2f8788117e7eff1d82e926ec794901d17c78024a50270940304540a733656f0d60405160405180910390a45060016102a2565b505f5b92915050565b6001600160a01b03811681146102bc575f5ffd5b50565b634e487b7160e01b5f52604160045260245ffd5b5f82601f8301126102e2575f5ffd5b81516001600160401b038111156102fb576102fb6102bf565b604051601f8201601f19908116603f011681016001600160401b0381118282101715610329576103296102bf565b604052818152838201602001851015610340575f5ffd5b8160208501602083015e5f918101602001919091529392505050565b5f5f5f5f5f60a08688031215610370575f5ffd5b855161037b816102a8565b60208701519095506001600160401b03811115610396575f5ffd5b6103a2888289016102d3565b604088015190955090506001600160401b038111156103bf575f5ffd5b6103cb888289016102d3565b606088015190945090506001600160401b038111156103e8575f5ffd5b6103f4888289016102d3565b9250506080860151610405816102a8565b809150509295509295909350565b600181811c9082168061042757607f821691505b60208210810361044557634e487b7160e01b5f52602260045260245ffd5b50919050565b601f82111561049257805f5260205f20601f840160051c810160208510156104705750805b601f840160051c820191505b8181101561048f575f815560010161047c565b50505b505050565b81516001600160401b038111156104b0576104b06102bf565b6104c4816104be8454610413565b8461044b565b6020601f8211600181146104f6575f83156104df5750848201515b5f19600385901b1c1916600184901b17845561048f565b5f84815260208120601f198516915b828110156105255787850151825560209485019460019092019101610505565b508482101561054257868401515f19600387901b60f8161c191681555b50505050600190811b01905550565b5f81518060208401855e5f93019283525090919050565b8281525f6105796020830184610551565b949350505050565b5f61058c8284610551565b9392505050565b60805160a05160c0516121776105d25f395f8181610541015261121601525f818161043d015261123c01525f81816104aa01526111e701526121775ff3fe608060405234801561000f575f5ffd5b506004361061026b575f3560e01c806376804a031161014b578063b0071b56116100bf578063d638006211610084578063d6380062146105f9578063da58c7d91461060f578063e7b3387c14610622578063f3cdcd1e1461062a578063f5b541a614610632578063f678f60114610659575f5ffd5b8063b0071b5614610599578063c45a0155146105a2578063c6e36a32146105b5578063cf09e0d0146105dd578063d547741f146105e6575f5ffd5b806397341d591161011057806397341d5914610529578063a0f44c921461053c578063a217fddf14610563578063a5cab3321461056a578063a9a981a31461057d578063ac4db16814610586575f5ffd5b806376804a03146104cc5780637afdf93e146104ea57806386852dca146104f257806391d148541461050e57806393a56e0e14610521575f5ffd5b80633477ee2e116101e257806359dd06aa116101a757806359dd06aa146104385780635a55c1f01461045f5780635c975abb1461047f57806361ea9e4c1461048a5780637284e4161461049d578063753e9ef0146104a5575f5ffd5b80633477ee2e146103b157806335bbe70e146103d457806336568abe146103e95780633f60d799146103fc5780634a79d50c14610423575f5ffd5b8063122902a611610233578063122902a61461031f5780631267d11014610338578063153875281461035f578063248a9ca31461036757806326541b56146103895780632f2ff15d1461039e575f5ffd5b806301ffc9a71461026f57806302d05d3f1461029757806303016130146102c257806304a0fb17146102e357806306a49fce1461030a575b5f5ffd5b61028261027d366004611966565b61066c565b60405190151581526020015b60405180910390f35b6005546102aa906001600160a01b031681565b6040516001600160a01b03909116815260200161028e565b6102d56102d0366004611994565b6106a2565b60405190815260200161028e565b6102d57fdfbefbf47cfe66b701d8cfdbce1de81c821590819cb07e71cb01b6602fb0ee2781565b6103126106c1565b60405161028e91906119d9565b610327610995565b60405161028e959493929190611ab4565b6102d57f86ba3ce870574648095a9a005617ca8bb8a751790f4b373c14c589ffb363adad81565b6102d5610a12565b6102d5610375366004611994565b5f9081526020819052604090206001015490565b61039c610397366004611bc5565b610a33565b005b61039c6103ac366004611c2a565b610b61565b6103c46103bf366004611994565b610b8b565b60405161028e9493929190611c63565b6103dc610cc2565b60405161028e9190611ca1565b61039c6103f7366004611c2a565b610d18565b6102d57f3204c940063673962b481a0395619b3dbbd137589c419e993978c1c71bcf68ec81565b61042b610d50565b60405161028e9190611cb3565b6102d57f000000000000000000000000000000000000000000000000000000000000000081565b61047261046d366004611994565b610ddc565b60405161028e9190611cc5565b60015460ff16610282565b6102d5610498366004611994565b610e5c565b61042b610e6b565b6102aa7f000000000000000000000000000000000000000000000000000000000000000081565b600e54600754604080519283525f602084015282015260600161028e565b61039c610e78565b6104fa610ead565b60405161028e989796959493929190611d15565b61028261051c366004611c2a565b6110a3565b61042b6110cb565b61039c610537366004611994565b6110d8565b6102d57f000000000000000000000000000000000000000000000000000000000000000081565b6102d55f81565b61039c610578366004611994565b611151565b6102d560075481565b61039c610594366004611da7565b6111c8565b6102d560095481565b6006546102aa906001600160a01b031681565b6105c86105c3366004611ea7565b611514565b6040805192835290151560208301520161028e565b6102d560085481565b61039c6105f4366004611c2a565b61154f565b610601611573565b60405161028e929190611ec7565b6102d561061d366004611994565b6115d3565b600e546102d5565b61039c6115e2565b6102d57f97667070c54ef182b0f5858b034beac1b6f3089aa2d3188bb1e8929f4fa9b92981565b61039c610667366004611ee8565b611614565b5f6001600160e01b03198216637965db0b60e01b148061069c57506301ffc9a760e01b6001600160e01b03198316145b92915050565b600d81815481106106b1575f80fd5b5f91825260209091200154905081565b60605f805b600d5481101561072257600b5f600d83815481106106e6576106e6611f79565b5f918252602080832090910154835282019290925260400190206003015460ff161561071a578161071681611fa1565b9250505b6001016106c6565b505f8167ffffffffffffffff81111561073d5761073d611aeb565b60405190808252806020026020018201604052801561079957816020015b61078660405180608001604052805f815260200160608152602001606081526020015f151581525090565b81526020019060019003908161075b5790505b5090505f805b600d5481101561098c57600b5f600d83815481106107bf576107bf611f79565b5f918252602080832090910154835282019290925260400190206003015460ff161561098457600b5f600d83815481106107fb576107fb611f79565b905f5260205f20015481526020019081526020015f206040518060800160405290815f820154815260200160018201805461083590611fb9565b80601f016020809104026020016040519081016040528092919081815260200182805461086190611fb9565b80156108ac5780601f10610883576101008083540402835291602001916108ac565b820191905f5260205f20905b81548152906001019060200180831161088f57829003601f168201915b505050505081526020016002820180546108c590611fb9565b80601f01602080910402602001604051908101604052809291908181526020018280546108f190611fb9565b801561093c5780601f106109135761010080835404028352916020019161093c565b820191905f5260205f20905b81548152906001019060200180831161091f57829003601f168201915b50505091835250506003919091015460ff161515602090910152835184908490811061096a5761096a611f79565b6020026020010181905250818061098090611fa1565b9250505b60010161079f565b50909392505050565b5f5f5f5f60606109a760015460ff1690565b600e54600754600954600a8054604080516020808402820181019092528281529615969183918301828280156109fa57602002820191905f5260205f20905b8154815260200190600101908083116109e6575b50505050509050945094509450945094509091929394565b5f6009545f14610a23575060095490565b610a2e600143611ff1565b905090565b7fdfbefbf47cfe66b701d8cfdbce1de81c821590819cb07e71cb01b6602fb0ee27610a5d816116e0565b60078054905f610a6c83611fa1565b90915550506040805160808101825260075480825260208083018781528385018790526001606085018190525f938452600b9092529390912082518155925191929190820190610abc908261204f565b5060408201516002820190610ad1908261204f565b50606091909101516003909101805460ff1916911515919091179055600754600d80546001810182555f919091527fd7b6990105719101dabeb77144f2a3385c8033acd3af97e9423a695e81ad1eb5018190556040517fe83b2a43e7e82d975c8a0a6d2f045153c869e111136a34d1889ab7b598e396a390610b54908690611cb3565b60405180910390a2505050565b5f82815260208190526040902060010154610b7b816116e0565b610b8583836116ea565b50505050565b600b6020525f908152604090208054600182018054919291610bac90611fb9565b80601f0160208091040260200160405190810160405280929190818152602001828054610bd890611fb9565b8015610c235780601f10610bfa57610100808354040283529160200191610c23565b820191905f5260205f20905b815481529060010190602001808311610c0657829003601f168201915b505050505090806002018054610c3890611fb9565b80601f0160208091040260200160405190810160405280929190818152602001828054610c6490611fb9565b8015610caf5780601f10610c8657610100808354040283529160200191610caf565b820191905f5260205f20905b815481529060010190602001808311610c9257829003601f168201915b5050506003909301549192505060ff1684565b6060600e805480602002602001604051908101604052809291908181526020018280548015610d0e57602002820191905f5260205f20905b815481526020019060010190808311610cfa575b5050505050905090565b6001600160a01b0381163314610d415760405163334bd91960e11b815260040160405180910390fd5b610d4b8282611779565b505050565b60028054610d5d90611fb9565b80601f0160208091040260200160405190810160405280929190818152602001828054610d8990611fb9565b8015610dd45780601f10610dab57610100808354040283529160200191610dd4565b820191905f5260205f20905b815481529060010190602001808311610db757829003601f168201915b505050505081565b6060600c5f8381526020019081526020015f20805480602002602001604051908101604052809291908181526020015f905b82821015610e51575f84815260209081902060408051808201909152600285029091018054825260019081015460ff161515828401529083529092019101610e0e565b505050509050919050565b600a81815481106106b1575f80fd5b60038054610d5d90611fb9565b7f97667070c54ef182b0f5858b034beac1b6f3089aa2d3188bb1e8929f4fa9b929610ea2816116e0565b610eaa6117e2565b50565b60608060605f5f5f5f5f60026003600460055f9054906101000a90046001600160a01b0316600854610ee160015460ff1690565b15600754600e80549050878054610ef790611fb9565b80601f0160208091040260200160405190810160405280929190818152602001828054610f2390611fb9565b8015610f6e5780601f10610f4557610100808354040283529160200191610f6e565b820191905f5260205f20905b815481529060010190602001808311610f5157829003601f168201915b50505050509750868054610f8190611fb9565b80601f0160208091040260200160405190810160405280929190818152602001828054610fad90611fb9565b8015610ff85780601f10610fcf57610100808354040283529160200191610ff8565b820191905f5260205f20905b815481529060010190602001808311610fdb57829003601f168201915b5050505050965085805461100b90611fb9565b80601f016020809104026020016040519081016040528092919081815260200182805461103790611fb9565b80156110825780601f1061105957610100808354040283529160200191611082565b820191905f5260205f20905b81548152906001019060200180831161106557829003601f168201915b50505050509550975097509750975097509750975097509091929394959697565b5f918252602082815260408084206001600160a01b0393909316845291905290205460ff1690565b60048054610d5d90611fb9565b7f86ba3ce870574648095a9a005617ca8bb8a751790f4b373c14c589ffb363adad611102816116e0565b811580611110575060075482115b15611136576040516306b5f7ef60e21b8152600481018390526024015b60405180910390fd5b505f908152600b60205260409020600301805460ff19169055565b7f86ba3ce870574648095a9a005617ca8bb8a751790f4b373c14c589ffb363adad61117b816116e0565b811580611189575060075482115b156111aa576040516306b5f7ef60e21b81526004810183905260240161112d565b505f908152600b60205260409020600301805460ff19166001179055565b6111d0611834565b604051633bc778e360e01b81526001600160a01b037f00000000000000000000000000000000000000000000000000000000000000001690633bc778e3906112669087907f0000000000000000000000000000000000000000000000000000000000000000908a9089907f0000000000000000000000000000000000000000000000000000000000000000908a9060040161210a565b5f6040518083038186803b15801561127c575f5ffd5b505afa15801561128e573d5f5f3e3d5ffd5b5050505080515f036112b357604051638b95a48b60e01b815260040160405180910390fd5b5f5b8151811015611404578181815181106112d0576112d0611f79565b60200260200101515f01515f148061130557506007548282815181106112f8576112f8611f79565b60200260200101515f0151115b156113435781818151811061131c5761131c611f79565b60200260200101515f01516040516306b5f7ef60e21b815260040161112d91815260200190565b600b5f83838151811061135857611358611f79565b6020908102919091018101515182528101919091526040015f206003015460ff166113b65781818151811061138f5761138f611f79565b60200260200101515f0151604051630e680fb360e01b815260040161112d91815260200190565b801580156113de57508181815181106113d1576113d1611f79565b6020026020010151602001515b156113fc5760405163f79c9dcf60e01b815260040160405180910390fd5b6001016112b5565b505f838152600c602052604081208054159161142091906118f5565b5f5b825181101561148f575f858152600c60205260409020835184908390811061144c5761144c611f79565b6020908102919091018101518254600180820185555f948552938390208251600290920201908155910151908201805460ff191691151591909117905501611422565b5080156114cb57600e80546001810182555f919091527fbb7b4a454dc3493923482f07822329ed19e8244eff582cc204f8554c3620c3fd018490555b336001600160a01b03167f55a1980c493f0b0944a366b05eb4cf30f8c51a97de5be737c2fc5d7ac14f4705836040516115049190611cc5565b60405180910390a2505050505050565b600c602052815f5260405f20818154811061152d575f80fd5b5f9182526020909120600290910201805460019091015490925060ff16905082565b5f82815260208190526040902060010154611569816116e0565b610b858383611779565b60605f600a600954818054806020026020016040519081016040528092919081815260200182805480156115c457602002820191905f5260205f20905b8154815260200190600101908083116115b0575b50505050509150915091509091565b600e81815481106106b1575f80fd5b7f97667070c54ef182b0f5858b034beac1b6f3089aa2d3188bb1e8929f4fa9b92961160c816116e0565b610eaa61185a565b7f3204c940063673962b481a0395619b3dbbd137589c419e993978c1c71bcf68ec61163e816116e0565b611649600143611ff1565b600955611657600a5f611913565b5f5b82518110156116a057600a83828151811061167657611676611f79565b6020908102919091018101518254600181810185555f948552929093209092019190915501611659565b507f109f6e9bf30303660b33df3f987a90cff7fe9c5c422a5b504fcad73452c12519826009546040516116d4929190611ec7565b60405180910390a15050565b610eaa8133611895565b5f6116f583836110a3565b611772575f838152602081815260408083206001600160a01b03861684529091529020805460ff1916600117905561172a3390565b6001600160a01b0316826001600160a01b0316847f2f8788117e7eff1d82e926ec794901d17c78024a50270940304540a733656f0d60405160405180910390a450600161069c565b505f61069c565b5f61178483836110a3565b15611772575f838152602081815260408083206001600160a01b0386168085529252808320805460ff1916905551339286917ff6391f5c32d9c69d2a47ea670b442974b53935d1edc7fd64eb21e047a839171b9190a450600161069c565b6117ea6118d2565b6001805460ff191690557f5db9ee0a495bf2e6ff9c91a7834c1ba4fdd244a5e8aa4e537bd38aeae4b073aa335b6040516001600160a01b03909116815260200160405180910390a1565b60015460ff16156118585760405163d93c066560e01b815260040160405180910390fd5b565b611862611834565b6001805460ff1916811790557f62e78cea01bee320cd4e420270b5ea74000d11b0c9f74754ebdbfc544b05a25833611817565b61189f82826110a3565b6118ce5760405163e2517d3f60e01b81526001600160a01b03821660048201526024810183905260440161112d565b5050565b60015460ff1661185857604051638dfc202b60e01b815260040160405180910390fd5b5080545f8255600202905f5260205f2090810190610eaa919061192e565b5080545f8255905f5260205f2090810190610eaa9190611952565b5b8082111561194e575f815560018101805460ff1916905560020161192f565b5090565b5b8082111561194e575f8155600101611953565b5f60208284031215611976575f5ffd5b81356001600160e01b03198116811461198d575f5ffd5b9392505050565b5f602082840312156119a4575f5ffd5b5035919050565b5f81518084528060208401602086015e5f602082860101526020601f19601f83011685010191505092915050565b5f602082016020835280845180835260408501915060408160051b8601019250602086015f5b82811015611a6e57603f19878603018452815180518652602081015160806020880152611a2f60808801826119ab565b905060408201518782036040890152611a4882826119ab565b6060938401511515989093019790975250945060209384019391909101906001016119ff565b50929695505050505050565b5f8151808452602084019350602083015f5b82811015611aaa578151865260209586019590910190600101611a8c565b5093949350505050565b851515815284602082015283604082015282606082015260a060808201525f611ae060a0830184611a7a565b979650505050505050565b634e487b7160e01b5f52604160045260245ffd5b6040805190810167ffffffffffffffff81118282101715611b2257611b22611aeb565b60405290565b604051601f8201601f1916810167ffffffffffffffff81118282101715611b5157611b51611aeb565b604052919050565b5f82601f830112611b68575f5ffd5b813567ffffffffffffffff811115611b8257611b82611aeb565b611b95601f8201601f1916602001611b28565b818152846020838601011115611ba9575f5ffd5b816020850160208301375f918101602001919091529392505050565b5f5f60408385031215611bd6575f5ffd5b823567ffffffffffffffff811115611bec575f5ffd5b611bf885828601611b59565b925050602083013567ffffffffffffffff811115611c14575f5ffd5b611c2085828601611b59565b9150509250929050565b5f5f60408385031215611c3b575f5ffd5b8235915060208301356001600160a01b0381168114611c58575f5ffd5b809150509250929050565b848152608060208201525f611c7b60808301866119ab565b8281036040840152611c8d81866119ab565b915050821515606083015295945050505050565b602081525f61198d6020830184611a7a565b602081525f61198d60208301846119ab565b602080825282518282018190525f918401906040840190835b81811015611d0a5783518051845260209081015115158185015290930192604090920191600101611cde565b509095945050505050565b61010081525f611d2961010083018b6119ab565b8281036020840152611d3b818b6119ab565b90508281036040840152611d4f818a6119ab565b6001600160a01b039890981660608401525050608081019490945291151560a084015260c083015260e0909101529392505050565b5f67ffffffffffffffff821115611d9d57611d9d611aeb565b5060051b60200190565b5f5f5f5f5f6101808688031215611dbc575f5ffd5b853594506020860135935060408601359250610160860187811115611ddf575f5ffd5b6060870192503567ffffffffffffffff811115611dfa575f5ffd5b8601601f81018813611e0a575f5ffd5b8035611e1d611e1882611d84565b611b28565b8082825260208201915060208360061b85010192508a831115611e3e575f5ffd5b6020840193505b82841015611e96576040848c031215611e5c575f5ffd5b611e64611aff565b8435815260208501358015158114611e7a575f5ffd5b8060208301525080835250602082019150604084019350611e45565b809450505050509295509295909350565b5f5f60408385031215611eb8575f5ffd5b50508035926020909101359150565b604081525f611ed96040830185611a7a565b90508260208301529392505050565b5f60208284031215611ef8575f5ffd5b813567ffffffffffffffff811115611f0e575f5ffd5b8201601f81018413611f1e575f5ffd5b8035611f2c611e1882611d84565b8082825260208201915060208360051b850101925086831115611f4d575f5ffd5b6020840193505b82841015611f6f578335825260209384019390910190611f54565b9695505050505050565b634e487b7160e01b5f52603260045260245ffd5b634e487b7160e01b5f52601160045260245ffd5b5f60018201611fb257611fb2611f8d565b5060010190565b600181811c90821680611fcd57607f821691505b602082108103611feb57634e487b7160e01b5f52602260045260245ffd5b50919050565b8181038181111561069c5761069c611f8d565b601f821115610d4b57805f5260205f20601f840160051c810160208510156120295750805b601f840160051c820191505b81811015612048575f8155600101612035565b5050505050565b815167ffffffffffffffff81111561206957612069611aeb565b61207d816120778454611fb9565b84612004565b6020601f8211600181146120af575f83156120985750848201515b5f19600385901b1c1916600184901b178455612048565b5f84815260208120601f198516915b828110156120de57878501518255602094850194600190920191016120be565b50848210156120fb57868401515f19600387901b60f8161c191681555b50505050600190811b01905550565b5f6101a0820190508782528660208301528560408301528460608301528360808301526101008360a084013797965050505050505056fea2646970667358221220c5f20a3a97597c92b3bdf1600d190fab4319609b55f5dd7a0d064305dd03c71364736f6c634300081b0033","linkReferences":{}},"methodIdentifiers":{"CANDIDATE_MANAGER_ROLE()":"1267d110","DEFAULT_ADMIN_ROLE()":"a217fddf","FACTORY_ROLE()":"04a0fb17","OPERATOR_ROLE()":"f5b541a6","REPORTER_ROLE()":"3f60d799","addCandidate(string,string)":"26541b56","candidateCount()":"a9a981a3","candidateIds(uint256)":"03016130","candidates(uint256)":"3477ee2e","createdAt()":"cf09e0d0","creator()":"02d05d3f","deactivateCandidate(uint256)":"97341d59","description()":"7284e416","externalNullifierHash()":"59dd06aa","factory()":"c45a0155","getAllVoters()":"35bbe70e","getCandidates()":"06a49fce","getElectionInfo()":"86852dca","getElectionStatus()":"122902a6","getRoleAdmin(bytes32)":"248a9ca3","getSelectionBlock()":"15387528","getSelectionResults()":"d6380062","getVote(uint256)":"5a55c1f0","getVoteCount()":"e7b3387c","getVotingStats()":"76804a03","grantRole(bytes32,address)":"2f2ff15d","groupId()":"a0f44c92","hasRole(bytes32,address)":"91d14854","pauseVoting()":"f3cdcd1e","paused()":"5c975abb","reactivateCandidate(uint256)":"a5cab332","renounceRole(bytes32,address)":"36568abe","reportSelection(uint256[])":"f678f601","resumeVoting()":"7afdf93e","revokeRole(bytes32,address)":"d547741f","selectedCandidates(uint256)":"61ea9e4c","selectionBlock()":"b0071b56","supportsInterface(bytes4)":"01ffc9a7","title()":"4a79d50c","vote(uint256,uint256,uint256,uint256[8],(uint256,bool)[])":"ac4db168","voters(uint256)":"da58c7d9","votes(uint256,uint256)":"c6e36a32","worldId()":"753e9ef0","worldIdAction()":"93a56e0e"},"id":0}