{"abi":[{"type":"constructor","inputs":[{"name":"_worldId","type":"address","internalType":"contract IWorldID"},{"name":"_title","type":"string","internalType":"string"},{"name":"_description","type":"string","internalType":"string"},{"name":"_worldIdAction","type":"string","internalType":"string"},{"name":"_creator","type":"address","internalType":"address"}],"stateMutability":"nonpayable"},{"type":"function","name":"CANDIDATE_MANAGER_ROLE","inputs":[],"outputs":[{"name":"","type":"bytes32","internalType":"bytes32"}],"stateMutability":"view"},{"type":"function","name":"CREATOR_ROLE","inputs":[],"outputs":[{"name":"","type":"bytes32","internalType":"bytes32"}],"stateMutability":"view"},{"type":"function","name":"DEFAULT_ADMIN_ROLE","inputs":[],"outputs":[{"name":"","type":"bytes32","internalType":"bytes32"}],"stateMutability":"view"},{"type":"function","name":"FACTORY_ROLE","inputs":[],"outputs":[{"name":"","type":"bytes32","internalType":"bytes32"}],"stateMutability":"view"},{"type":"function","name":"addCandidate","inputs":[{"name":"_name","type":"string","internalType":"string"},{"name":"_description","type":"string","internalType":"string"}],"outputs":[],"stateMutability":"nonpayable"},{"type":"function","name":"candidateCount","inputs":[],"outputs":[{"name":"","type":"uint256","internalType":"uint256"}],"stateMutability":"view"},{"type":"function","name":"candidateIds","inputs":[{"name":"","type":"uint256","internalType":"uint256"}],"outputs":[{"name":"","type":"uint256","internalType":"uint256"}],"stateMutability":"view"},{"type":"function","name":"candidates","inputs":[{"name":"","type":"uint256","internalType":"uint256"}],"outputs":[{"name":"id","type":"uint256","internalType":"uint256"},{"name":"name","type":"string","internalType":"string"},{"name":"description","type":"string","internalType":"string"},{"name":"active","type":"bool","internalType":"bool"}],"stateMutability":"view"},{"type":"function","name":"createdAt","inputs":[],"outputs":[{"name":"","type":"uint256","internalType":"uint256"}],"stateMutability":"view"},{"type":"function","name":"creator","inputs":[],"outputs":[{"name":"","type":"address","internalType":"address"}],"stateMutability":"view"},{"type":"function","name":"description","inputs":[],"outputs":[{"name":"","type":"string","internalType":"string"}],"stateMutability":"view"},{"type":"function","name":"externalNullifierHash","inputs":[],"outputs":[{"name":"","type":"uint256","internalType":"uint256"}],"stateMutability":"view"},{"type":"function","name":"factory","inputs":[],"outputs":[{"name":"","type":"address","internalType":"address"}],"stateMutability":"view"},{"type":"function","name":"getAllVoters","inputs":[],"outputs":[{"name":"","type":"uint256[]","internalType":"uint256[]"}],"stateMutability":"view"},{"type":"function","name":"getCandidates","inputs":[],"outputs":[{"name":"","type":"tuple[]","internalType":"struct Election.Candidate[]","components":[{"name":"id","type":"uint256","internalType":"uint256"},{"name":"name","type":"string","internalType":"string"},{"name":"description","type":"string","internalType":"string"},{"name":"active","type":"bool","internalType":"bool"}]}],"stateMutability":"view"},{"type":"function","name":"getElectionInfo","inputs":[],"outputs":[{"name":"_title","type":"string","internalType":"string"},{"name":"_description","type":"string","internalType":"string"},{"name":"_worldIdAction","type":"string","internalType":"string"},{"name":"_creator","type":"address","internalType":"address"},{"name":"_createdAt","type":"uint256","internalType":"uint256"},{"name":"_votingActive","type":"bool","internalType":"bool"},{"name":"_candidateCount","type":"uint256","internalType":"uint256"},{"name":"_totalVoters","type":"uint256","internalType":"uint256"}],"stateMutability":"view"},{"type":"function","name":"getRoleAdmin","inputs":[{"name":"role","type":"bytes32","internalType":"bytes32"}],"outputs":[{"name":"","type":"bytes32","internalType":"bytes32"}],"stateMutability":"view"},{"type":"function","name":"getTotalVoters","inputs":[],"outputs":[{"name":"","type":"uint256","internalType":"uint256"}],"stateMutability":"view"},{"type":"function","name":"getVote","inputs":[{"name":"voterId","type":"uint256","internalType":"uint256"}],"outputs":[{"name":"","type":"tuple[]","internalType":"struct Election.RankingEntry[]","components":[{"name":"candidateId","type":"uint256","internalType":"uint256"},{"name":"tiedWithPrevious","type":"bool","internalType":"bool"}]}],"stateMutability":"view"},{"type":"function","name":"getVotingStats","inputs":[],"outputs":[{"name":"totalVoters","type":"uint256","internalType":"uint256"},{"name":"totalComparisons","type":"uint256","internalType":"uint256"},{"name":"candidateCount_","type":"uint256","internalType":"uint256"}],"stateMutability":"view"},{"type":"function","name":"grantRole","inputs":[{"name":"role","type":"bytes32","internalType":"bytes32"},{"name":"account","type":"address","internalType":"address"}],"outputs":[],"stateMutability":"nonpayable"},{"type":"function","name":"groupId","inputs":[],"outputs":[{"name":"","type":"uint256","internalType":"uint256"}],"stateMutability":"view"},{"type":"function","name":"hasRole","inputs":[{"name":"role","type":"bytes32","internalType":"bytes32"},{"name":"account","type":"address","internalType":"address"}],"outputs":[{"name":"","type":"bool","internalType":"bool"}],"stateMutability":"view"},{"type":"function","name":"renounceRole","inputs":[{"name":"role","type":"bytes32","internalType":"bytes32"},{"name":"callerConfirmation","type":"address","internalType":"address"}],"outputs":[],"stateMutability":"nonpayable"},{"type":"function","name":"revokeRole","inputs":[{"name":"role","type":"bytes32","internalType":"bytes32"},{"name":"account","type":"address","internalType":"address"}],"outputs":[],"stateMutability":"nonpayable"},{"type":"function","name":"supportsInterface","inputs":[{"name":"interfaceId","type":"bytes4","internalType":"bytes4"}],"outputs":[{"name":"","type":"bool","internalType":"bool"}],"stateMutability":"view"},{"type":"function","name":"title","inputs":[],"outputs":[{"name":"","type":"string","internalType":"string"}],"stateMutability":"view"},{"type":"function","name":"toggleVoting","inputs":[],"outputs":[],"stateMutability":"nonpayable"},{"type":"function","name":"vote","inputs":[{"name":"signal","type":"uint256","internalType":"uint256"},{"name":"root","type":"uint256","internalType":"uint256"},{"name":"voterId","type":"uint256","internalType":"uint256"},{"name":"proof","type":"uint256[8]","internalType":"uint256[8]"},{"name":"ranking","type":"tuple[]","internalType":"struct Election.RankingEntry[]","components":[{"name":"candidateId","type":"uint256","internalType":"uint256"},{"name":"tiedWithPrevious","type":"bool","internalType":"bool"}]}],"outputs":[],"stateMutability":"nonpayable"},{"type":"function","name":"voters","inputs":[{"name":"","type":"uint256","internalType":"uint256"}],"outputs":[{"name":"","type":"uint256","internalType":"uint256"}],"stateMutability":"view"},{"type":"function","name":"votes","inputs":[{"name":"","type":"uint256","internalType":"uint256"},{"name":"","type":"uint256","internalType":"uint256"}],"outputs":[{"name":"candidateId","type":"uint256","internalType":"uint256"},{"name":"tiedWithPrevious","type":"bool","internalType":"bool"}],"stateMutability":"view"},{"type":"function","name":"votingActive","inputs":[],"outputs":[{"name":"","type":"bool","internalType":"bool"}],"stateMutability":"view"},{"type":"function","name":"worldId","inputs":[],"outputs":[{"name":"","type":"address","internalType":"contract IWorldID"}],"stateMutability":"view"},{"type":"function","name":"worldIdAction","inputs":[],"outputs":[{"name":"","type":"string","internalType":"string"}],"stateMutability":"view"},{"type":"event","name":"CandidateAdded","inputs":[{"name":"candidateId","type":"uint256","indexed":true,"internalType":"uint256"},{"name":"name","type":"string","indexed":false,"internalType":"string"}],"anonymous":false},{"type":"event","name":"RankingUpdated","inputs":[{"name":"user","type":"address","indexed":true,"internalType":"address"},{"name":"newRanking","type":"tuple[]","indexed":false,"internalType":"struct Election.RankingEntry[]","components":[{"name":"candidateId","type":"uint256","internalType":"uint256"},{"name":"tiedWithPrevious","type":"bool","internalType":"bool"}]}],"anonymous":false},{"type":"event","name":"RoleAdminChanged","inputs":[{"name":"role","type":"bytes32","indexed":true,"internalType":"bytes32"},{"name":"previousAdminRole","type":"bytes32","indexed":true,"internalType":"bytes32"},{"name":"newAdminRole","type":"bytes32","indexed":true,"internalType":"bytes32"}],"anonymous":false},{"type":"event","name":"RoleGranted","inputs":[{"name":"role","type":"bytes32","indexed":true,"internalType":"bytes32"},{"name":"account","type":"address","indexed":true,"internalType":"address"},{"name":"sender","type":"address","indexed":true,"internalType":"address"}],"anonymous":false},{"type":"event","name":"RoleRevoked","inputs":[{"name":"role","type":"bytes32","indexed":true,"internalType":"bytes32"},{"name":"account","type":"address","indexed":true,"internalType":"address"},{"name":"sender","type":"address","indexed":true,"internalType":"address"}],"anonymous":false},{"type":"event","name":"VotingStatusChanged","inputs":[{"name":"active","type":"bool","indexed":false,"internalType":"bool"}],"anonymous":false},{"type":"error","name":"AccessControlBadConfirmation","inputs":[]},{"type":"error","name":"AccessControlUnauthorizedAccount","inputs":[{"name":"account","type":"address","internalType":"address"},{"name":"neededRole","type":"bytes32","internalType":"bytes32"}]},{"type":"error","name":"CandidateNotActive","inputs":[{"name":"candidateId","type":"uint256","internalType":"uint256"}]},{"type":"error","name":"FirstEntryCannotBeTied","inputs":[]},{"type":"error","name":"InvalidCandidateId","inputs":[{"name":"candidateId","type":"uint256","internalType":"uint256"}]},{"type":"error","name":"RankingEmpty","inputs":[]},{"type":"error","name":"VoterNotFound","inputs":[{"name":"voterId","type":"uint256","internalType":"uint256"}]},{"type":"error","name":"VotingNotActive","inputs":[]}],"bytecode":{"object":"0x60e0604052600160c052348015610014575f5ffd5b5060405161217538038061217583398101604081905261003391610346565b6001600160a01b038516608052600161004c8582610481565b5060026100598482610481565b5060036100668382610481565b50600480546001600160a01b0383166001600160a01b03199091161790556005805460ff60a01b1933166001600160a81b031990911617600160a01b1790555f6006554260075560405161011c9061010a906100f5906020017f6170705f313037313938343561303937376566363365626538656239656462388152630e4c185960e21b602082015260240190565b60408051601f198184030181529190526101b5565b836040516020016100f5929190610552565b60a0526101295f826101e9565b506101547f828634d95e775031b9ff576b159a8509d3053581a8c9c4d7d86899e0afcd882f826101e9565b5061017f7fdfbefbf47cfe66b701d8cfdbce1de81c821590819cb07e71cb01b6602fb0ee27336101e9565b506101aa7f86ba3ce870574648095a9a005617ca8bb8a751790f4b373c14c589ffb363adad336101e9565b50505050505061057d565b5f6008826040516020016101c9919061056b565b60408051601f198184030181529190528051602090910120901c92915050565b5f828152602081815260408083206001600160a01b038516845290915281205460ff16610289575f838152602081815260408083206001600160a01b03861684529091529020805460ff191660011790556102413390565b6001600160a01b0316826001600160a01b0316847f2f8788117e7eff1d82e926ec794901d17c78024a50270940304540a733656f0d60405160405180910390a450600161028c565b505f5b92915050565b6001600160a01b03811681146102a6575f5ffd5b50565b634e487b7160e01b5f52604160045260245ffd5b5f82601f8301126102cc575f5ffd5b81516001600160401b038111156102e5576102e56102a9565b604051601f8201601f19908116603f011681016001600160401b0381118282101715610313576103136102a9565b60405281815283820160200185101561032a575f5ffd5b8160208501602083015e5f918101602001919091529392505050565b5f5f5f5f5f60a0868803121561035a575f5ffd5b855161036581610292565b60208701519095506001600160401b03811115610380575f5ffd5b61038c888289016102bd565b604088015190955090506001600160401b038111156103a9575f5ffd5b6103b5888289016102bd565b606088015190945090506001600160401b038111156103d2575f5ffd5b6103de888289016102bd565b92505060808601516103ef81610292565b809150509295509295909350565b600181811c9082168061041157607f821691505b60208210810361042f57634e487b7160e01b5f52602260045260245ffd5b50919050565b601f82111561047c57805f5260205f20601f840160051c8101602085101561045a5750805b601f840160051c820191505b81811015610479575f8155600101610466565b50505b505050565b81516001600160401b0381111561049a5761049a6102a9565b6104ae816104a884546103fd565b84610435565b6020601f8211600181146104e0575f83156104c95750848201515b5f19600385901b1c1916600184901b178455610479565b5f84815260208120601f198516915b8281101561050f57878501518255602094850194600190920191016104ef565b508482101561052c57868401515f19600387901b60f8161c191681555b50505050600190811b01905550565b5f81518060208401855e5f93019283525090919050565b8281525f610563602083018461053b565b949350505050565b5f610576828461053b565b9392505050565b60805160a05160c051611bb96105bc5f395f81816104950152610fda01525f818161039b015261100001525f81816103ea0152610fab0152611bb95ff3fe608060405234801561000f575f5ffd5b50600436106101fd575f3560e01c8063753e9ef011610114578063a217fddf116100a9578063c45a015511610079578063c45a0155146104e2578063c6e36a32146104f5578063cf09e0d01461051d578063d547741f14610526578063da58c7d914610539575f5ffd5b8063a217fddf146104b7578063a9a981a3146104be578063aae3bd47146104c7578063ac4db168146104cf575f5ffd5b80638aeda25a116100e45780638aeda25a1461044e57806391d148541461047557806393a56e0e14610488578063a0f44c9214610490575f5ffd5b8063753e9ef0146103e557806376804a031461040c578063793cf2181461042a57806386852dca14610432575f5ffd5b80632f2ff15d11610195578063408e272711610165578063408e27271461036d5780634a79d50c1461038157806359dd06aa146103965780635a55c1f0146103bd5780637284e416146103dd575f5ffd5b80632f2ff15d1461030f5780633477ee2e1461032257806335bbe70e1461034557806336568abe1461035a575f5ffd5b806306a49fce116101d057806306a49fce1461029c5780631267d110146102b1578063248a9ca3146102d857806326541b56146102fa575f5ffd5b806301ffc9a71461020157806302d05d3f14610229578063030161301461025457806304a0fb1714610275575b5f5ffd5b61021461020f3660046114ce565b61054c565b60405190151581526020015b60405180910390f35b60045461023c906001600160a01b031681565b6040516001600160a01b039091168152602001610220565b6102676102623660046114fc565b610582565b604051908152602001610220565b6102677fdfbefbf47cfe66b701d8cfdbce1de81c821590819cb07e71cb01b6602fb0ee2781565b6102a46105a1565b6040516102209190611541565b6102677f86ba3ce870574648095a9a005617ca8bb8a751790f4b373c14c589ffb363adad81565b6102676102e63660046114fc565b5f9081526020819052604090206001015490565b61030d6103083660046116bc565b610875565b005b61030d61031d366004611721565b6109a3565b6103356103303660046114fc565b6109cd565b604051610220949392919061175a565b61034d610b04565b6040516102209190611798565b61030d610368366004611721565b610b5a565b60055461021490600160a01b900460ff1681565b610389610b92565b60405161022091906117da565b6102677f000000000000000000000000000000000000000000000000000000000000000081565b6103d06103cb3660046114fc565b610c1e565b60405161022091906117ec565b610389610c9e565b61023c7f000000000000000000000000000000000000000000000000000000000000000081565b600b54600654604080519283525f6020840152820152606001610220565b600b54610267565b61043a610cab565b604051610220989796959493929190611831565b6102677f828634d95e775031b9ff576b159a8509d3053581a8c9c4d7d86899e0afcd882f81565b610214610483366004611721565b610ea4565b610389610ecc565b6102677f000000000000000000000000000000000000000000000000000000000000000081565b6102675f81565b61026760065481565b61030d610ed9565b61030d6104dd3660046118a0565b610f6a565b60055461023c906001600160a01b031681565b6105086105033660046119b6565b6112e1565b60408051928352901515602083015201610220565b61026760075481565b61030d610534366004611721565b61131c565b6102676105473660046114fc565b611340565b5f6001600160e01b03198216637965db0b60e01b148061057c57506301ffc9a760e01b6001600160e01b03198316145b92915050565b600a8181548110610591575f80fd5b5f91825260209091200154905081565b60605f805b600a548110156106025760085f600a83815481106105c6576105c66119d6565b5f918252602080832090910154835282019290925260400190206003015460ff16156105fa57816105f6816119ea565b9250505b6001016105a6565b505f8167ffffffffffffffff81111561061d5761061d6115e2565b60405190808252806020026020018201604052801561067957816020015b61066660405180608001604052805f815260200160608152602001606081526020015f151581525090565b81526020019060019003908161063b5790505b5090505f805b600a5481101561086c5760085f600a838154811061069f5761069f6119d6565b5f918252602080832090910154835282019290925260400190206003015460ff16156108645760085f600a83815481106106db576106db6119d6565b905f5260205f20015481526020019081526020015f206040518060800160405290815f820154815260200160018201805461071590611a0e565b80601f016020809104026020016040519081016040528092919081815260200182805461074190611a0e565b801561078c5780601f106107635761010080835404028352916020019161078c565b820191905f5260205f20905b81548152906001019060200180831161076f57829003601f168201915b505050505081526020016002820180546107a590611a0e565b80601f01602080910402602001604051908101604052809291908181526020018280546107d190611a0e565b801561081c5780601f106107f35761010080835404028352916020019161081c565b820191905f5260205f20905b8154815290600101906020018083116107ff57829003601f168201915b50505091835250506003919091015460ff161515602090910152835184908490811061084a5761084a6119d6565b60200260200101819052508180610860906119ea565b9250505b60010161067f565b50909392505050565b7fdfbefbf47cfe66b701d8cfdbce1de81c821590819cb07e71cb01b6602fb0ee2761089f8161134f565b60068054905f6108ae836119ea565b90915550506040805160808101825260065480825260208083018781528385018790526001606085018190525f938452600890925293909120825181559251919291908201906108fe9082611a91565b50604082015160028201906109139082611a91565b50606091909101516003909101805460ff1916911515919091179055600654600a80546001810182555f919091527fc65a7bb8d6351c1cf70c95a316cc6a92839c986682d98bc35f958f4883f9d2a8018190556040517fe83b2a43e7e82d975c8a0a6d2f045153c869e111136a34d1889ab7b598e396a3906109969086906117da565b60405180910390a2505050565b5f828152602081905260409020600101546109bd8161134f565b6109c7838361135c565b50505050565b60086020525f9081526040902080546001820180549192916109ee90611a0e565b80601f0160208091040260200160405190810160405280929190818152602001828054610a1a90611a0e565b8015610a655780601f10610a3c57610100808354040283529160200191610a65565b820191905f5260205f20905b815481529060010190602001808311610a4857829003601f168201915b505050505090806002018054610a7a90611a0e565b80601f0160208091040260200160405190810160405280929190818152602001828054610aa690611a0e565b8015610af15780601f10610ac857610100808354040283529160200191610af1565b820191905f5260205f20905b815481529060010190602001808311610ad457829003601f168201915b5050506003909301549192505060ff1684565b6060600b805480602002602001604051908101604052809291908181526020018280548015610b5057602002820191905f5260205f20905b815481526020019060010190808311610b3c575b5050505050905090565b6001600160a01b0381163314610b835760405163334bd91960e11b815260040160405180910390fd5b610b8d82826113eb565b505050565b60018054610b9f90611a0e565b80601f0160208091040260200160405190810160405280929190818152602001828054610bcb90611a0e565b8015610c165780601f10610bed57610100808354040283529160200191610c16565b820191905f5260205f20905b815481529060010190602001808311610bf957829003601f168201915b505050505081565b606060095f8381526020019081526020015f20805480602002602001604051908101604052809291908181526020015f905b82821015610c93575f84815260209081902060408051808201909152600285029091018054825260019081015460ff161515828401529083529092019101610c50565b505050509050919050565b60028054610b9f90611a0e565b60608060605f5f5f5f5f60016002600360045f9054906101000a90046001600160a01b0316600754600560149054906101000a900460ff16600654600b80549050878054610cf890611a0e565b80601f0160208091040260200160405190810160405280929190818152602001828054610d2490611a0e565b8015610d6f5780601f10610d4657610100808354040283529160200191610d6f565b820191905f5260205f20905b815481529060010190602001808311610d5257829003601f168201915b50505050509750868054610d8290611a0e565b80601f0160208091040260200160405190810160405280929190818152602001828054610dae90611a0e565b8015610df95780601f10610dd057610100808354040283529160200191610df9565b820191905f5260205f20905b815481529060010190602001808311610ddc57829003601f168201915b50505050509650858054610e0c90611a0e565b80601f0160208091040260200160405190810160405280929190818152602001828054610e3890611a0e565b8015610e835780601f10610e5a57610100808354040283529160200191610e83565b820191905f5260205f20905b815481529060010190602001808311610e6657829003601f168201915b50505050509550975097509750975097509750975097509091929394959697565b5f918252602082815260408084206001600160a01b0393909316845291905290205460ff1690565b60038054610b9f90611a0e565b7f828634d95e775031b9ff576b159a8509d3053581a8c9c4d7d86899e0afcd882f610f038161134f565b6005805460ff600160a01b808304821615810260ff60a01b1990931692909217928390556040517f9069a1a16ace751e8690f383e12f87b01e8488ba387e626810bd113fef0417f993610f5f9390049091161515815260200190565b60405180910390a150565b600554600160a01b900460ff16610f9457604051639b8cc47560e01b815260040160405180910390fd5b604051633bc778e360e01b81526001600160a01b037f00000000000000000000000000000000000000000000000000000000000000001690633bc778e39061102a9087907f0000000000000000000000000000000000000000000000000000000000000000908a9089907f0000000000000000000000000000000000000000000000000000000000000000908a90600401611b4c565b5f6040518083038186803b158015611040575f5ffd5b505afa158015611052573d5f5f3e3d5ffd5b5050505080515f0361107757604051638b95a48b60e01b815260040160405180910390fd5b5f5b81518110156111d157818181518110611094576110946119d6565b60200260200101515f01515f14806110c957506006548282815181106110bc576110bc6119d6565b60200260200101515f0151115b15611110578181815181106110e0576110e06119d6565b60200260200101515f01516040516306b5f7ef60e21b815260040161110791815260200190565b60405180910390fd5b60085f838381518110611125576111256119d6565b6020908102919091018101515182528101919091526040015f206003015460ff166111835781818151811061115c5761115c6119d6565b60200260200101515f0151604051630e680fb360e01b815260040161110791815260200190565b801580156111ab575081818151811061119e5761119e6119d6565b6020026020010151602001515b156111c95760405163f79c9dcf60e01b815260040160405180910390fd5b600101611079565b505f838152600960205260408120805415916111ed9190611491565b5f5b825181101561125c575f8581526009602052604090208351849083908110611219576112196119d6565b6020908102919091018101518254600180820185555f948552938390208251600290920201908155910151908201805460ff1916911515919091179055016111ef565b50801561129857600b80546001810182555f919091527f0175b7a638427703f0dbe7bb9bbf987a2551717b34e79f33b5b1008d1fa01db9018490555b336001600160a01b03167f55a1980c493f0b0944a366b05eb4cf30f8c51a97de5be737c2fc5d7ac14f4705836040516112d191906117ec565b60405180910390a2505050505050565b6009602052815f5260405f2081815481106112fa575f80fd5b5f9182526020909120600290910201805460019091015490925060ff16905082565b5f828152602081905260409020600101546113368161134f565b6109c783836113eb565b600b8181548110610591575f80fd5b6113598133611454565b50565b5f6113678383610ea4565b6113e4575f838152602081815260408083206001600160a01b03861684529091529020805460ff1916600117905561139c3390565b6001600160a01b0316826001600160a01b0316847f2f8788117e7eff1d82e926ec794901d17c78024a50270940304540a733656f0d60405160405180910390a450600161057c565b505f61057c565b5f6113f68383610ea4565b156113e4575f838152602081815260408083206001600160a01b0386168085529252808320805460ff1916905551339286917ff6391f5c32d9c69d2a47ea670b442974b53935d1edc7fd64eb21e047a839171b9190a450600161057c565b61145e8282610ea4565b61148d5760405163e2517d3f60e01b81526001600160a01b038216600482015260248101839052604401611107565b5050565b5080545f8255600202905f5260205f209081019061135991905b808211156114ca575f815560018101805460ff191690556002016114ab565b5090565b5f602082840312156114de575f5ffd5b81356001600160e01b0319811681146114f5575f5ffd5b9392505050565b5f6020828403121561150c575f5ffd5b5035919050565b5f81518084528060208401602086015e5f602082860101526020601f19601f83011685010191505092915050565b5f602082016020835280845180835260408501915060408160051b8601019250602086015f5b828110156115d657603f198786030184528151805186526020810151608060208801526115976080880182611513565b9050604082015187820360408901526115b08282611513565b606093840151151598909301979097525094506020938401939190910190600101611567565b50929695505050505050565b634e487b7160e01b5f52604160045260245ffd5b6040805190810167ffffffffffffffff81118282101715611619576116196115e2565b60405290565b604051601f8201601f1916810167ffffffffffffffff81118282101715611648576116486115e2565b604052919050565b5f82601f83011261165f575f5ffd5b813567ffffffffffffffff811115611679576116796115e2565b61168c601f8201601f191660200161161f565b8181528460208386010111156116a0575f5ffd5b816020850160208301375f918101602001919091529392505050565b5f5f604083850312156116cd575f5ffd5b823567ffffffffffffffff8111156116e3575f5ffd5b6116ef85828601611650565b925050602083013567ffffffffffffffff81111561170b575f5ffd5b61171785828601611650565b9150509250929050565b5f5f60408385031215611732575f5ffd5b8235915060208301356001600160a01b038116811461174f575f5ffd5b809150509250929050565b848152608060208201525f6117726080830186611513565b82810360408401526117848186611513565b915050821515606083015295945050505050565b602080825282518282018190525f918401906040840190835b818110156117cf5783518352602093840193909201916001016117b1565b509095945050505050565b602081525f6114f56020830184611513565b602080825282518282018190525f918401906040840190835b818110156117cf5783518051845260209081015115158185015290930192604090920191600101611805565b61010081525f61184561010083018b611513565b8281036020840152611857818b611513565b9050828103604084015261186b818a611513565b6001600160a01b039890981660608401525050608081019490945291151560a084015260c083015260e0909101529392505050565b5f5f5f5f5f61018086880312156118b5575f5ffd5b8535945060208601359350604086013592506101608601878111156118d8575f5ffd5b6060870192503567ffffffffffffffff8111156118f3575f5ffd5b8601601f81018813611903575f5ffd5b803567ffffffffffffffff81111561191d5761191d6115e2565b61192c60208260051b0161161f565b8082825260208201915060208360061b85010192508a83111561194d575f5ffd5b6020840193505b828410156119a5576040848c03121561196b575f5ffd5b6119736115f6565b8435815260208501358015158114611989575f5ffd5b8060208301525080835250602082019150604084019350611954565b809450505050509295509295909350565b5f5f604083850312156119c7575f5ffd5b50508035926020909101359150565b634e487b7160e01b5f52603260045260245ffd5b5f60018201611a0757634e487b7160e01b5f52601160045260245ffd5b5060010190565b600181811c90821680611a2257607f821691505b602082108103611a4057634e487b7160e01b5f52602260045260245ffd5b50919050565b601f821115610b8d57805f5260205f20601f840160051c81016020851015611a6b5750805b601f840160051c820191505b81811015611a8a575f8155600101611a77565b5050505050565b815167ffffffffffffffff811115611aab57611aab6115e2565b611abf81611ab98454611a0e565b84611a46565b6020601f821160018114611af1575f8315611ada5750848201515b5f19600385901b1c1916600184901b178455611a8a565b5f84815260208120601f198516915b82811015611b205787850151825560209485019460019092019101611b00565b5084821015611b3d57868401515f19600387901b60f8161c191681555b50505050600190811b01905550565b5f6101a0820190508782528660208301528560408301528460608301528360808301526101008360a084013797965050505050505056fea2646970667358221220daf0d2c45c0e04d610d78cce58faac770d00b19a2a4ef03f5a5f0dfbf47431a864736f6c634300081b0033","linkReferences":{}},"methodIdentifiers":{"CANDIDATE_MANAGER_ROLE()":"1267d110","CREATOR_ROLE()":"8aeda25a","DEFAULT_ADMIN_ROLE()":"a217fddf","FACTORY_ROLE()":"04a0fb17","addCandidate(string,string)":"26541b56","candidateCount()":"a9a981a3","candidateIds(uint256)":"03016130","candidates(uint256)":"3477ee2e","createdAt()":"cf09e0d0","creator()":"02d05d3f","description()":"7284e416","externalNullifierHash()":"59dd06aa","factory()":"c45a0155","getAllVoters()":"35bbe70e","getCandidates()":"06a49fce","getElectionInfo()":"86852dca","getRoleAdmin(bytes32)":"248a9ca3","getTotalVoters()":"793cf218","getVote(uint256)":"5a55c1f0","getVotingStats()":"76804a03","grantRole(bytes32,address)":"2f2ff15d","groupId()":"a0f44c92","hasRole(bytes32,address)":"91d14854","renounceRole(bytes32,address)":"36568abe","revokeRole(bytes32,address)":"d547741f","supportsInterface(bytes4)":"01ffc9a7","title()":"4a79d50c","toggleVoting()":"aae3bd47","vote(uint256,uint256,uint256,uint256[8],(uint256,bool)[])":"ac4db168","voters(uint256)":"da58c7d9","votes(uint256,uint256)":"c6e36a32","votingActive()":"408e2727","worldId()":"753e9ef0","worldIdAction()":"93a56e0e"},"id":0}