{"abi":[{"type":"function","name":"reset","inputs":[],"outputs":[],"stateMutability":"nonpayable"},{"type":"function","name":"revertMessage","inputs":[],"outputs":[{"name":"","type":"string","internalType":"string"}],"stateMutability":"view"},{"type":"function","name":"setVerificationFailure","inputs":[{"name":"_shouldRevert","type":"bool","internalType":"bool"},{"name":"_message","type":"string","internalType":"string"}],"outputs":[],"stateMutability":"nonpayable"},{"type":"function","name":"shouldRevert","inputs":[],"outputs":[{"name":"","type":"bool","internalType":"bool"}],"stateMutability":"view"},{"type":"function","name":"verifyProof","inputs":[{"name":"","type":"uint256","internalType":"uint256"},{"name":"","type":"uint256","internalType":"uint256"},{"name":"","type":"uint256","internalType":"uint256"},{"name":"","type":"uint256","internalType":"uint256"},{"name":"","type":"uint256","internalType":"uint256"},{"name":"","type":"uint256[8]","internalType":"uint256[8]"}],"outputs":[],"stateMutability":"view"}],"bytecode":{"object":"0x5f805460ff1916905560c0604052601860809081527f4d6f636b20766572696669636174696f6e206661696c6564000000000000000060a05260019061004590826100ef565b50348015610051575f5ffd5b506101a9565b634e487b7160e01b5f52604160045260245ffd5b600181811c9082168061007f57607f821691505b60208210810361009d57634e487b7160e01b5f52602260045260245ffd5b50919050565b601f8211156100ea57805f5260205f20601f840160051c810160208510156100c85750805b601f840160051c820191505b818110156100e7575f81556001016100d4565b50505b505050565b81516001600160401b0381111561010857610108610057565b61011c81610116845461006b565b846100a3565b6020601f82116001811461014e575f83156101375750848201515b5f19600385901b1c1916600184901b1784556100e7565b5f84815260208120601f198516915b8281101561017d578785015182556020948501946001909201910161015d565b508482101561019a57868401515f19600387901b60f8161c191681555b50505050600190811b01905550565b610554806101b65f395ff3fe608060405234801561000f575f5ffd5b5060043610610055575f3560e01c80633bc778e3146100595780638f1bd8eb1461006e5780639d667c9914610081578063d3072d821461009f578063d826f88f146100bb575b5f5ffd5b61006c6100673660046101f0565b6100c3565b005b61006c61007c36600461025a565b6100f9565b610089610117565b6040516100969190610324565b60405180910390f35b5f546100ab9060ff1681565b6040519015158152602001610096565b61006c6101a3565b5f5460ff16156100f157600160405162461bcd60e51b81526004016100e89190610391565b60405180910390fd5b505050505050565b5f805460ff191683151517905560016101128282610463565b505050565b6001805461012490610359565b80601f016020809104026020016040519081016040528092919081815260200182805461015090610359565b801561019b5780601f106101725761010080835404028352916020019161019b565b820191905f5260205f20905b81548152906001019060200180831161017e57829003601f168201915b505050505081565b5f805460ff1916905560408051808201909152601881527f4d6f636b20766572696669636174696f6e206661696c6564000000000000000060208201526001906101ed9082610463565b50565b5f5f5f5f5f5f6101a08789031215610206575f5ffd5b86359550602087013594506040870135935060608701359250608087013591506101a08701881015610236575f5ffd5b60a0870190509295509295509295565b634e487b7160e01b5f52604160045260245ffd5b5f5f6040838503121561026b575f5ffd5b8235801515811461027a575f5ffd5b9150602083013567ffffffffffffffff811115610295575f5ffd5b8301601f810185136102a5575f5ffd5b803567ffffffffffffffff8111156102bf576102bf610246565b604051601f8201601f19908116603f0116810167ffffffffffffffff811182821017156102ee576102ee610246565b604052818152828201602001871015610305575f5ffd5b816020840160208301375f602083830101528093505050509250929050565b602081525f82518060208401528060208501604085015e5f604082850101526040601f19601f83011684010191505092915050565b600181811c9082168061036d57607f821691505b60208210810361038b57634e487b7160e01b5f52602260045260245ffd5b50919050565b602081525f5f83546103a281610359565b806020860152600182165f81146103c057600181146103dc5761040d565b60ff1983166040870152604082151560051b870101935061040d565b865f5260205f205f5b83811015610404578154888201604001526001909101906020016103e5565b87016040019450505b509195945050505050565b601f82111561011257805f5260205f20601f840160051c8101602085101561043d5750805b601f840160051c820191505b8181101561045c575f8155600101610449565b5050505050565b815167ffffffffffffffff81111561047d5761047d610246565b6104918161048b8454610359565b84610418565b6020601f8211600181146104c3575f83156104ac5750848201515b5f19600385901b1c1916600184901b17845561045c565b5f84815260208120601f198516915b828110156104f257878501518255602094850194600190920191016104d2565b508482101561050f57868401515f19600387901b60f8161c191681555b50505050600190811b0190555056fea2646970667358221220cbc100ea4444bedfe3073b3bbbb4d425ea405d150aab27b7d8669e4e715b931e64736f6c634300081b0033","linkReferences":{}},"methodIdentifiers":{"reset()":"d826f88f","revertMessage()":"9d667c99","setVerificationFailure(bool,string)":"8f1bd8eb","shouldRevert()":"d3072d82","verifyProof(uint256,uint256,uint256,uint256,uint256,uint256[8])":"3bc778e3"},"id":2}