{
  "contracts/MockWorldIDAddressBook.sol": {
    "MockWorldIDAddressBook": {
      "abi": [
        {
          "inputs": [
            {
              "internalType": "address",
              "name": "",
              "type": "address"
            }
          ],
          "name": "addressVerifiedUntil",
          "outputs": [
            {
              "internalType": "uint256",
              "name": "",
              "type": "uint256"
            }
          ],
          "stateMutability": "view",
          "type": "function"
        },
        {
          "inputs": [
            {
              "internalType": "address",
              "name": "user",
              "type": "address"
            },
            {
              "internalType": "uint256",
              "name": "timestamp",
              "type": "uint256"
            }
          ],
          "name": "setAddressVerifiedUntil",
          "outputs": [],
          "stateMutability": "nonpayable",
          "type": "function"
        }
      ],
      "evm": {
        "bytecode": {
          "linkReferences": {},
          "object": "6080604052348015600f57600080fd5b5061024c8061001f6000396000f3fe608060405234801561001057600080fd5b50600436106100365760003560e01c80632bc91fed1461003b578063edd6837e1461006b575b600080fd5b61005560048036038101906100509190610149565b610087565b604051610062919061018f565b60405180910390f35b610085600480360381019061008091906101d6565b61009f565b005b60006020528060005260406000206000915090505481565b806000808473ffffffffffffffffffffffffffffffffffffffff1673ffffffffffffffffffffffffffffffffffffffff168152602001908152602001600020819055505050565b600080fd5b600073ffffffffffffffffffffffffffffffffffffffff82169050919050565b6000610116826100eb565b9050919050565b6101268161010b565b811461013157600080fd5b50565b6000813590506101438161011d565b92915050565b60006020828403121561015f5761015e6100e6565b5b600061016d84828501610134565b91505092915050565b6000819050919050565b61018981610176565b82525050565b60006020820190506101a46000830184610180565b92915050565b6101b381610176565b81146101be57600080fd5b50565b6000813590506101d0816101aa565b92915050565b600080604083850312156101ed576101ec6100e6565b5b60006101fb85828601610134565b925050602061020c858286016101c1565b915050925092905056fea2646970667358221220b6fbb750c866a54c023e6744ad04ede53457dab0daa1ea97b34cce29d713c99c64736f6c634300081b0033",
          "opcodes": "PUSH1 0x80 PUSH1 0x40 MSTORE CALLVALUE DUP1 ISZERO PUSH1 0xF JUMPI PUSH1 0x0 DUP1 REVERT JUMPDEST POP PUSH2 0x24C DUP1 PUSH2 0x1F PUSH1 0x0 CODECOPY PUSH1 0x0 RETURN INVALID PUSH1 0x80 PUSH1 0x40 MSTORE CALLVALUE DUP1 ISZERO PUSH2 0x10 JUMPI PUSH1 0x0 DUP1 REVERT JUMPDEST POP PUSH1 0x4 CALLDATASIZE LT PUSH2 0x36 JUMPI PUSH1 0x0 CALLDATALOAD PUSH1 0xE0 SHR DUP1 PUSH4 0x2BC91FED EQ PUSH2 0x3B JUMPI DUP1 PUSH4 0xEDD6837E EQ PUSH2 0x6B JUMPI JUMPDEST PUSH1 0x0 DUP1 REVERT JUMPDEST PUSH2 0x55 PUSH1 0x4 DUP1 CALLDATASIZE SUB DUP2 ADD SWAP1 PUSH2 0x50 SWAP2 SWAP1 PUSH2 0x149 JUMP JUMPDEST PUSH2 0x87 JUMP JUMPDEST PUSH1 0x40 MLOAD PUSH2 0x62 SWAP2 SWAP1 PUSH2 0x18F JUMP JUMPDEST PUSH1 0x40 MLOAD DUP1 SWAP2 SUB SWAP1 RETURN JUMPDEST PUSH2 0x85 PUSH1 0x4 DUP1 CALLDATASIZE SUB DUP2 ADD SWAP1 PUSH2 0x80 SWAP2 SWAP1 PUSH2 0x1D6 JUMP JUMPDEST PUSH2 0x9F JUMP JUMPDEST STOP JUMPDEST PUSH1 0x0 PUSH1 0x20 MSTORE DUP1 PUSH1 0x0 MSTORE PUSH1 0x40 PUSH1 0x0 KECCAK256 PUSH1 0x0 SWAP2 POP SWAP1 POP SLOAD DUP2 JUMP JUMPDEST DUP1 PUSH1 0x0 DUP1 DUP5 PUSH20 0xFFFFFFFFFFFFFFFFFFFFFFFFFFFFFFFFFFFFFFFF AND PUSH20 0xFFFFFFFFFFFFFFFFFFFFFFFFFFFFFFFFFFFFFFFF AND DUP2 MSTORE PUSH1 0x20 ADD SWAP1 DUP2 MSTORE PUSH1 0x20 ADD PUSH1 0x0 KECCAK256 DUP2 SWAP1 SSTORE POP POP POP JUMP JUMPDEST PUSH1 0x0 DUP1 REVERT JUMPDEST PUSH1 0x0 PUSH20 0xFFFFFFFFFFFFFFFFFFFFFFFFFFFFFFFFFFFFFFFF DUP3 AND SWAP1 POP SWAP2 SWAP1 POP JUMP JUMPDEST PUSH1 0x0 PUSH2 0x116 DUP3 PUSH2 0xEB JUMP JUMPDEST SWAP1 POP SWAP2 SWAP1 POP JUMP JUMPDEST PUSH2 0x126 DUP2 PUSH2 0x10B JUMP JUMPDEST DUP2 EQ PUSH2 0x131 JUMPI PUSH1 0x0 DUP1 REVERT JUMPDEST POP JUMP JUMPDEST PUSH1 0x0 DUP2 CALLDATALOAD SWAP1 POP PUSH2 0x143 DUP2 PUSH2 0x11D JUMP JUMPDEST SWAP3 SWAP2 POP POP JUMP JUMPDEST PUSH1 0x0 PUSH1 0x20 DUP3 DUP5 SUB SLT ISZERO PUSH2 0x15F JUMPI PUSH2 0x15E PUSH2 0xE6 JUMP JUMPDEST JUMPDEST PUSH1 0x0 PUSH2 0x16D DUP5 DUP3 DUP6 ADD PUSH2 0x134 JUMP JUMPDEST SWAP2 POP POP SWAP3 SWAP2 POP POP JUMP JUMPDEST PUSH1 0x0 DUP2 SWAP1 POP SWAP2 SWAP1 POP JUMP JUMPDEST PUSH2 0x189 DUP2 PUSH2 0x176 JUMP JUMPDEST DUP3 MSTORE POP POP JUMP JUMPDEST PUSH1 0x0 PUSH1 0x20 DUP3 ADD SWAP1 POP PUSH2 0x1A4 PUSH1 0x0 DUP4 ADD DUP5 PUSH2 0x180 JUMP JUMPDEST SWAP3 SWAP2 POP POP JUMP JUMPDEST PUSH2 0x1B3 DUP2 PUSH2 0x176 JUMP JUMPDEST DUP2 EQ PUSH2 0x1BE JUMPI PUSH1 0x0 DUP1 REVERT JUMPDEST POP JUMP JUMPDEST PUSH1 0x0 DUP2 CALLDATALOAD SWAP1 POP PUSH2 0x1D0 DUP2 PUSH2 0x1AA JUMP JUMPDEST SWAP3 SWAP2 POP POP JUMP JUMPDEST PUSH1 0x0 DUP1 PUSH1 0x40 DUP4 DUP6 SUB SLT ISZERO PUSH2 0x1ED JUMPI PUSH2 0x1EC PUSH2 0xE6 JUMP JUMPDEST JUMPDEST PUSH1 0x0 PUSH2 0x1FB DUP6 DUP3 DUP7 ADD PUSH2 0x134 JUMP JUMPDEST SWAP3 POP POP PUSH1 0x20 PUSH2 0x20C DUP6 DUP3 DUP7 ADD PUSH2 0x1C1 JUMP JUMPDEST SWAP2 POP POP SWAP3 POP SWAP3 SWAP1 POP JUMP INVALID LOG2 PUSH5 0x6970667358 0x22 SLT KECCAK256 0xB6 0xFB 0xB7 POP 0xC8 PUSH7 0xA54C023E6744AD DIV 0xED 0xE5 CALLVALUE JUMPI 0xDA 0xB0 0xDA LOG1 0xEA SWAP8 0xB3 0x4C 0xCE 0x29 0xD7 SGT 0xC9 SWAP13 PUSH5 0x736F6C6343 STOP ADDMOD SHL STOP CALLER "
        },
        "methodIdentifiers": {
          "addressVerifiedUntil(address)": "2bc91fed",
          "setAddressVerifiedUntil(address,uint256)": "edd6837e"
        }
      }
    }
  }
}