{"abi":[{"type":"function","name":"addressVerifiedUntil","inputs":[{"name":"","type":"address","internalType":"address"}],"outputs":[{"name":"","type":"uint256","internalType":"uint256"}],"stateMutability":"view"},{"type":"function","name":"setAddressVerifiedUntil","inputs":[{"name":"user","type":"address","internalType":"address"},{"name":"timestamp","type":"uint256","internalType":"uint256"}],"outputs":[],"stateMutability":"nonpayable"}],"bytecode":{"object":"0x6080604052348015600e575f5ffd5b5061011c8061001c5f395ff3fe6080604052348015600e575f5ffd5b50600436106030575f3560e01c80632bc91fed146034578063edd6837e146062575b5f5ffd5b6050603f36600460a4565b5f6020819052908152604090205481565b60405190815260200160405180910390f35b6088606d36600460c1565b6001600160a01b039091165f90815260208190526040902055565b005b80356001600160a01b0381168114609f575f5ffd5b919050565b5f6020828403121560b3575f5ffd5b60ba82608a565b9392505050565b5f5f6040838503121560d1575f5ffd5b60d883608a565b94602093909301359350505056fea2646970667358221220b5c9489bc30775ffcc9109068087657af4a55283d014b3cc9fdf78366635275564736f6c634300081b0033","linkReferences":{}},"methodIdentifiers":{"addressVerifiedUntil(address)":"2bc91fed","setAddressVerifiedUntil(address,uint256)":"edd6837e"},"id":2}