{"abi":[{"type":"constructor","inputs":[{"name":"_worldAddressBook","type":"address","internalType":"contract IWorldIdAddressBook"},{"name":"_electionManager","type":"address","internalType":"contract IElectionManager"}],"stateMutability":"nonpayable"},{"type":"function","name":"electionManager","inputs":[],"outputs":[{"name":"","type":"address","internalType":"contract IElectionManager"}],"stateMutability":"view"},{"type":"function","name":"getAllRankers","inputs":[],"outputs":[{"name":"","type":"address[]","internalType":"address[]"}],"stateMutability":"view"},{"type":"function","name":"getAllRankings","inputs":[],"outputs":[{"name":"voters","type":"address[]","internalType":"address[]"},{"name":"rankings","type":"tuple[][]","internalType":"struct SimpleRanking.RankingEntry[][]","components":[{"name":"candidateId","type":"uint256","internalType":"uint256"},{"name":"tiedWithPrevious","type":"bool","internalType":"bool"}]},{"name":"timestamps","type":"uint256[]","internalType":"uint256[]"}],"stateMutability":"view"},{"type":"function","name":"getRankingStats","inputs":[],"outputs":[{"name":"totalRankers","type":"uint256","internalType":"uint256"},{"name":"candidateCount","type":"uint256","internalType":"uint256"}],"stateMutability":"view"},{"type":"function","name":"getRankingsBatch","inputs":[{"name":"offset","type":"uint256","internalType":"uint256"},{"name":"limit","type":"uint256","internalType":"uint256"}],"outputs":[{"name":"voters","type":"address[]","internalType":"address[]"},{"name":"rankings","type":"tuple[][]","internalType":"struct SimpleRanking.RankingEntry[][]","components":[{"name":"candidateId","type":"uint256","internalType":"uint256"},{"name":"tiedWithPrevious","type":"bool","internalType":"bool"}]},{"name":"timestamps","type":"uint256[]","internalType":"uint256[]"},{"name":"totalCount","type":"uint256","internalType":"uint256"}],"stateMutability":"view"},{"type":"function","name":"getTotalRankers","inputs":[],"outputs":[{"name":"","type":"uint256","internalType":"uint256"}],"stateMutability":"view"},{"type":"function","name":"getUserRanking","inputs":[{"name":"user","type":"address","internalType":"address"}],"outputs":[{"name":"","type":"tuple[]","internalType":"struct SimpleRanking.RankingEntry[]","components":[{"name":"candidateId","type":"uint256","internalType":"uint256"},{"name":"tiedWithPrevious","type":"bool","internalType":"bool"}]}],"stateMutability":"view"},{"type":"function","name":"getUserRankingWithTimestamp","inputs":[{"name":"user","type":"address","internalType":"address"}],"outputs":[{"name":"","type":"tuple[]","internalType":"struct SimpleRanking.RankingEntry[]","components":[{"name":"candidateId","type":"uint256","internalType":"uint256"},{"name":"tiedWithPrevious","type":"bool","internalType":"bool"}]},{"name":"","type":"uint256","internalType":"uint256"}],"stateMutability":"view"},{"type":"function","name":"getUserVoteTimestamp","inputs":[{"name":"user","type":"address","internalType":"address"}],"outputs":[{"name":"","type":"uint256","internalType":"uint256"}],"stateMutability":"view"},{"type":"function","name":"hasRanking","inputs":[{"name":"","type":"address","internalType":"address"}],"outputs":[{"name":"","type":"bool","internalType":"bool"}],"stateMutability":"view"},{"type":"function","name":"hasUserVoted","inputs":[{"name":"user","type":"address","internalType":"address"}],"outputs":[{"name":"","type":"bool","internalType":"bool"}],"stateMutability":"view"},{"type":"function","name":"rankers","inputs":[{"name":"","type":"uint256","internalType":"uint256"}],"outputs":[{"name":"","type":"address","internalType":"address"}],"stateMutability":"view"},{"type":"function","name":"rankingTimestamp","inputs":[{"name":"","type":"address","internalType":"address"}],"outputs":[{"name":"","type":"uint256","internalType":"uint256"}],"stateMutability":"view"},{"type":"function","name":"updateRanking","inputs":[{"name":"newRanking","type":"tuple[]","internalType":"struct SimpleRanking.RankingEntry[]","components":[{"name":"candidateId","type":"uint256","internalType":"uint256"},{"name":"tiedWithPrevious","type":"bool","internalType":"bool"}]}],"outputs":[],"stateMutability":"nonpayable"},{"type":"function","name":"userRankings","inputs":[{"name":"","type":"address","internalType":"address"},{"name":"","type":"uint256","internalType":"uint256"}],"outputs":[{"name":"candidateId","type":"uint256","internalType":"uint256"},{"name":"tiedWithPrevious","type":"bool","internalType":"bool"}],"stateMutability":"view"},{"type":"function","name":"worldAddressBook","inputs":[],"outputs":[{"name":"","type":"address","internalType":"contract IWorldIdAddressBook"}],"stateMutability":"view"},{"type":"event","name":"RankingUpdated","inputs":[{"name":"user","type":"address","indexed":true,"internalType":"address"},{"name":"newRanking","type":"tuple[]","indexed":false,"internalType":"struct SimpleRanking.RankingEntry[]","components":[{"name":"candidateId","type":"uint256","internalType":"uint256"},{"name":"tiedWithPrevious","type":"bool","internalType":"bool"}]},{"name":"timestamp","type":"uint256","indexed":false,"internalType":"uint256"}],"anonymous":false}],"bytecode":{"object":"0x60c060405234801561000f575f5ffd5b506040516115f53803806115f583398101604081905261002e9161005c565b6001600160a01b039182166080521660a052610094565b6001600160a01b0381168114610059575f5ffd5b50565b5f5f6040838503121561006d575f5ffd5b825161007881610045565b602084015190925061008981610045565b809150509250929050565b60805160a0516115246100d15f395f81816101e70152818161054c01528181610664015261094201525f81816102fb015261043f01526115245ff3fe608060405234801561000f575f5ffd5b50600436106100fb575f3560e01c80637da3294911610093578063c8d1dc9111610063578063c8d1dc911461028d578063cde02433146102af578063f4018992146102ce578063fbfe4012146102f6575f5ffd5b80637da32949146101e25780637fabe80a14610209578063887b008314610244578063939fcf491461026c575f5ffd5b80634144129b116100ce5780634144129b14610176578063442a8ce81461018b5780635ba18b58146101a85780635de707a5146101cb575f5ffd5b80630790a627146100ff5780631039b9951461012f5780632ca37bee146101445780633d6931e814610156575b5f5ffd5b61011261010d366004610fa2565b61031d565b6040516001600160a01b0390911681526020015b60405180910390f35b610137610345565b6040516101269190610ffc565b6003545b604051908152602001610126565b610169610164366004611030565b6103a5565b6040516101269190611087565b610189610184366004611112565b610428565b005b610193610938565b60408051928352602083019190915201610126565b6101bb6101b63660046111ee565b6109c8565b60405161012694939291906112ce565b6101d3610c6b565b60405161012693929190611318565b6101127f000000000000000000000000000000000000000000000000000000000000000081565b610234610217366004611030565b6001600160a01b03165f9081526001602052604090205460ff1690565b6040519015158152602001610126565b610257610252366004611350565b610e90565b60408051928352901515602083015201610126565b61027f61027a366004611030565b610eca565b604051610126929190611378565b61023461029b366004611030565b60016020525f908152604090205460ff1681565b6101486102bd366004611030565b60026020525f908152604090205481565b6101486102dc366004611030565b6001600160a01b03165f9081526002602052604090205490565b6101127f000000000000000000000000000000000000000000000000000000000000000081565b6003818154811061032c575f80fd5b5f918252602090912001546001600160a01b0316905081565b6060600380548060200260200160405190810160405280929190818152602001828054801561039b57602002820191905f5260205f20905b81546001600160a01b0316815260019091019060200180831161037d575b5050505050905090565b6001600160a01b0381165f90815260208181526040808320805482518185028101850190935280835260609492939192909184015b8282101561041d575f84815260209081902060408051808201909152600285029091018054825260019081015460ff1615158284015290835290920191016103da565b505050509050919050565b604051632bc91fed60e01b81523360048201525f907f00000000000000000000000000000000000000000000000000000000000000006001600160a01b031690632bc91fed90602401602060405180830381865afa15801561048c573d5f5f3e3d5ffd5b505050506040513d601f19601f820116820180604052508101906104b09190611399565b116104f95760405162461bcd60e51b81526020600482015260146024820152731059191c995cdcc81b9bdd081d995c9a599a595960621b60448201526064015b60405180910390fd5b5f8151116105495760405162461bcd60e51b815260206004820152601760248201527f52616e6b696e672063616e6e6f7420626520656d70747900000000000000000060448201526064016104f0565b5f7f00000000000000000000000000000000000000000000000000000000000000006001600160a01b031663a9a981a36040518163ffffffff1660e01b8152600401602060405180830381865afa1580156105a6573d5f5f3e3d5ffd5b505050506040513d601f19601f820116820180604052508101906105ca9190611399565b90505f5b82518110156107eb575f8382815181106105ea576105ea6113b0565b60200260200101515f015111801561061e575081838281518110610610576106106113b0565b60200260200101515f015111155b6106615760405162461bcd60e51b8152602060048201526014602482015273125b9d985b1a590818d85b991a59185d1948125160621b60448201526064016104f0565b5f7f00000000000000000000000000000000000000000000000000000000000000006001600160a01b0316633477ee2e8584815181106106a3576106a36113b0565b60200260200101515f01516040518263ffffffff1660e01b81526004016106cc91815260200190565b5f60405180830381865afa1580156106e6573d5f5f3e3d5ffd5b505050506040513d5f823e601f3d908101601f1916820160405261070d919081019061142f565b93505050508061075f5760405162461bcd60e51b815260206004820152601760248201527f43616e646964617465206973206e6f742061637469766500000000000000000060448201526064016104f0565b815f036107e257838281518110610778576107786113b0565b602002602001015160200151156107e25760405162461bcd60e51b815260206004820152602860248201527f466972737420656e7472792063616e6e6f74206265207469656420776974682060448201526770726576696f757360c01b60648201526084016104f0565b506001016105ce565b50335f90815260208190526040812061080391610f5d565b5f5b825181101561087357335f9081526020819052604090208351849083908110610830576108306113b0565b6020908102919091018101518254600180820185555f948552938390208251600290920201908155910151908201805460ff191691151591909117905501610805565b50335f908152600260209081526040808320429055600190915290205460ff166108f157335f8181526001602081905260408220805460ff1916821790556003805491820181559091527fc2575a0e9e593c00f959f8c92f12db2869c3395a3b0502d05e2516446f71f85b0180546001600160a01b03191690911790555b336001600160a01b03167ff500d3ab4d961e1ac814c16843da3aa9e11209ed8e015ea2547bf8a82fe3c237834260405161092c929190611378565b60405180910390a25050565b5f5f6003805490507f00000000000000000000000000000000000000000000000000000000000000006001600160a01b031663a9a981a36040518163ffffffff1660e01b8152600401602060405180830381865afa15801561099c573d5f5f3e3d5ffd5b505050506040513d601f19601f820116820180604052508101906109c09190611399565b915091509091565b600354606090819081905f90808710610a1a5760405162461bcd60e51b81526020600482015260146024820152734f6666736574206f7574206f6620626f756e647360601b60448201526064016104f0565b5f610a2587896114c2565b905081811115610a325750805b5f610a3d89836114db565b9050806001600160401b03811115610a5757610a57611099565b604051908082528060200260200182016040528015610a80578160200160208202803683370190505b509650806001600160401b03811115610a9b57610a9b611099565b604051908082528060200260200182016040528015610ace57816020015b6060815260200190600190039081610ab95790505b509550806001600160401b03811115610ae957610ae9611099565b604051908082528060200260200182016040528015610b12578160200160208202803683370190505b5094505f5b81811015610c5c575f6003610b2c838d6114c2565b81548110610b3c57610b3c6113b0565b905f5260205f20015f9054906101000a90046001600160a01b0316905080898381518110610b6c57610b6c6113b0565b6001600160a01b039283166020918202929092018101919091529082165f90815280825260408082208054825181860281018601909352808352919390929084015b82821015610bf1575f84815260209081902060408051808201909152600285029091018054825260019081015460ff161515828401529083529092019101610bae565b50505050888381518110610c0757610c076113b0565b602002602001018190525060025f826001600160a01b03166001600160a01b031681526020019081526020015f2054878381518110610c4857610c486113b0565b602090810291909101015250600101610b17565b50919250505092959194509250565b60035460609081908190806001600160401b03811115610c8d57610c8d611099565b604051908082528060200260200182016040528015610cb6578160200160208202803683370190505b509350806001600160401b03811115610cd157610cd1611099565b604051908082528060200260200182016040528015610d0457816020015b6060815260200190600190039081610cef5790505b509250806001600160401b03811115610d1f57610d1f611099565b604051908082528060200260200182016040528015610d48578160200160208202803683370190505b5091505f5b81811015610e89575f60038281548110610d6957610d696113b0565b905f5260205f20015f9054906101000a90046001600160a01b0316905080868381518110610d9957610d996113b0565b6001600160a01b039283166020918202929092018101919091529082165f90815280825260408082208054825181860281018601909352808352919390929084015b82821015610e1e575f84815260209081902060408051808201909152600285029091018054825260019081015460ff161515828401529083529092019101610ddb565b50505050858381518110610e3457610e346113b0565b602002602001018190525060025f826001600160a01b03166001600160a01b031681526020019081526020015f2054848381518110610e7557610e756113b0565b602090810291909101015250600101610d4d565b5050909192565b5f602052815f5260405f208181548110610ea8575f80fd5b5f9182526020909120600290910201805460019091015490925060ff16905082565b6001600160a01b0381165f90815260208181526040808320600283528184205481548351818602810186019094528084526060959492939192849190869084015b82821015610f4e575f84815260209081902060408051808201909152600285029091018054825260019081015460ff161515828401529083529092019101610f0b565b50505050915091509150915091565b5080545f8255600202905f5260205f2090810190610f7b9190610f7e565b50565b5b80821115610f9e575f815560018101805460ff19169055600201610f7f565b5090565b5f60208284031215610fb2575f5ffd5b5035919050565b5f8151808452602084019350602083015f5b82811015610ff25781516001600160a01b0316865260209586019590910190600101610fcb565b5093949350505050565b602081525f61100e6020830184610fb9565b9392505050565b80356001600160a01b038116811461102b575f5ffd5b919050565b5f60208284031215611040575f5ffd5b61100e82611015565b5f8151808452602084019350602083015f5b82811015610ff2578151805187526020908101511515818801526040909601959091019060010161105b565b602081525f61100e6020830184611049565b634e487b7160e01b5f52604160045260245ffd5b604080519081016001600160401b03811182821017156110cf576110cf611099565b60405290565b604051601f8201601f191681016001600160401b03811182821017156110fd576110fd611099565b604052919050565b8015158114610f7b575f5ffd5b5f60208284031215611122575f5ffd5b81356001600160401b03811115611137575f5ffd5b8201601f81018413611147575f5ffd5b80356001600160401b0381111561116057611160611099565b61116f60208260051b016110d5565b8082825260208201915060208360061b850101925086831115611190575f5ffd5b6020840193505b828410156111e457604084880312156111ae575f5ffd5b6111b66110ad565b8435815260208501356111c881611105565b8060208301525080835250602082019150604084019350611197565b9695505050505050565b5f5f604083850312156111ff575f5ffd5b50508035926020909101359150565b5f82825180855260208501945060208160051b830101602085015f5b8381101561129257848303601f19018852815180518085526020918201918501905f5b81811015611279578351805184526020908101511515818501529093019260409092019160010161124d565b50506020998a019990945092909201915060010161122a565b50909695505050505050565b5f8151808452602084019350602083015f5b82811015610ff25781518652602095860195909101906001016112b0565b608081525f6112e06080830187610fb9565b82810360208401526112f2818761120e565b90508281036040840152611306818661129e565b91505082606083015295945050505050565b606081525f61132a6060830186610fb9565b828103602084015261133c818661120e565b905082810360408401526111e4818561129e565b5f5f60408385031215611361575f5ffd5b61136a83611015565b946020939093013593505050565b604081525f61138a6040830185611049565b90508260208301529392505050565b5f602082840312156113a9575f5ffd5b5051919050565b634e487b7160e01b5f52603260045260245ffd5b5f82601f8301126113d3575f5ffd5b81516001600160401b038111156113ec576113ec611099565b6113ff601f8201601f19166020016110d5565b818152846020838601011115611413575f5ffd5b8160208501602083015e5f918101602001919091529392505050565b5f5f5f5f60808587031215611442575f5ffd5b845160208601519094506001600160401b0381111561145f575f5ffd5b61146b878288016113c4565b93505060408501516001600160401b03811115611486575f5ffd5b611492878288016113c4565b92505060608501516114a381611105565b939692955090935050565b634e487b7160e01b5f52601160045260245ffd5b808201808211156114d5576114d56114ae565b92915050565b818103818111156114d5576114d56114ae56fea2646970667358221220b1d4a1f5e2d3066091d10b5a554c5f0907bb702ddc9ee90f82408f5de9e5fc8f64736f6c634300081b0033","linkReferences":{}},"methodIdentifiers":{"electionManager()":"7da32949","getAllRankers()":"1039b995","getAllRankings()":"5de707a5","getRankingStats()":"442a8ce8","getRankingsBatch(uint256,uint256)":"5ba18b58","getTotalRankers()":"2ca37bee","getUserRanking(address)":"3d6931e8","getUserRankingWithTimestamp(address)":"939fcf49","getUserVoteTimestamp(address)":"f4018992","hasRanking(address)":"c8d1dc91","hasUserVoted(address)":"7fabe80a","rankers(uint256)":"0790a627","rankingTimestamp(address)":"cde02433","updateRanking((uint256,bool)[])":"4144129b","userRankings(address,uint256)":"887b0083","worldAddressBook()":"fbfe4012"},"id":4}