{"abi":[{"type":"function","name":"verifyProof","inputs":[{"name":"root","type":"uint256","internalType":"uint256"},{"name":"groupId","type":"uint256","internalType":"uint256"},{"name":"signalHash","type":"uint256","internalType":"uint256"},{"name":"nullifierHash","type":"uint256","internalType":"uint256"},{"name":"externalNullifierHash","type":"uint256","internalType":"uint256"},{"name":"proof","type":"uint256[8]","internalType":"uint256[8]"}],"outputs":[],"stateMutability":"view"}],"bytecode":{"object":"0x6080604052348015600e575f5ffd5b5060c980601a5f395ff3fe6080604052348015600e575f5ffd5b50600436106026575f3560e01c80633bc778e314602a575b5f5ffd5b603d6035366004603f565b505050505050565b005b5f5f5f5f5f5f6101a087890312156054575f5ffd5b86359550602087013594506040870135935060608701359250608087013591506101a087018810156083575f5ffd5b60a087019050929550929550929556fea2646970667358221220f36d10c637d18de4d0f616e01dc11963d4ee8a3d31170889f9c1db395f8a84d264736f6c634300081b0033","linkReferences":{}},"methodIdentifiers":{"verifyProof(uint256,uint256,uint256,uint256,uint256,uint256[8])":"3bc778e3"},"id":1}