{"abi":[{"type":"constructor","inputs":[{"name":"_worldID","type":"address","internalType":"contract IWorldID"}],"stateMutability":"nonpayable"},{"type":"function","name":"addCandidate","inputs":[{"name":"_name","type":"string","internalType":"string"},{"name":"_description","type":"string","internalType":"string"}],"outputs":[],"stateMutability":"nonpayable"},{"type":"function","name":"candidateCount","inputs":[],"outputs":[{"name":"","type":"uint256","internalType":"uint256"}],"stateMutability":"view"},{"type":"function","name":"candidateIds","inputs":[{"name":"","type":"uint256","internalType":"uint256"}],"outputs":[{"name":"","type":"uint256","internalType":"uint256"}],"stateMutability":"view"},{"type":"function","name":"candidates","inputs":[{"name":"","type":"uint256","internalType":"uint256"}],"outputs":[{"name":"id","type":"uint256","internalType":"uint256"},{"name":"name","type":"string","internalType":"string"},{"name":"description","type":"string","internalType":"string"},{"name":"active","type":"bool","internalType":"bool"}],"stateMutability":"view"},{"type":"function","name":"checkHasVoted","inputs":[{"name":"_voter","type":"address","internalType":"address"}],"outputs":[{"name":"","type":"bool","internalType":"bool"}],"stateMutability":"view"},{"type":"function","name":"getCandidates","inputs":[],"outputs":[{"name":"","type":"tuple[]","internalType":"struct ElectionManager.Candidate[]","components":[{"name":"id","type":"uint256","internalType":"uint256"},{"name":"name","type":"string","internalType":"string"},{"name":"description","type":"string","internalType":"string"},{"name":"active","type":"bool","internalType":"bool"}]}],"stateMutability":"view"},{"type":"function","name":"getTotalVotes","inputs":[],"outputs":[{"name":"","type":"uint256","internalType":"uint256"}],"stateMutability":"view"},{"type":"function","name":"getVote","inputs":[{"name":"_voter","type":"address","internalType":"address"}],"outputs":[{"name":"","type":"uint256[]","internalType":"uint256[]"}],"stateMutability":"view"},{"type":"function","name":"hasVoted","inputs":[{"name":"","type":"address","internalType":"address"}],"outputs":[{"name":"","type":"bool","internalType":"bool"}],"stateMutability":"view"},{"type":"function","name":"owner","inputs":[],"outputs":[{"name":"","type":"address","internalType":"address"}],"stateMutability":"view"},{"type":"function","name":"toggleVoting","inputs":[],"outputs":[],"stateMutability":"nonpayable"},{"type":"function","name":"vote","inputs":[{"name":"_rankedCandidateIds","type":"uint256[]","internalType":"uint256[]"}],"outputs":[],"stateMutability":"nonpayable"},{"type":"function","name":"voters","inputs":[{"name":"","type":"uint256","internalType":"uint256"}],"outputs":[{"name":"","type":"address","internalType":"address"}],"stateMutability":"view"},{"type":"function","name":"votes","inputs":[{"name":"","type":"address","internalType":"address"}],"outputs":[{"name":"voter","type":"address","internalType":"address"},{"name":"timestamp","type":"uint256","internalType":"uint256"}],"stateMutability":"view"},{"type":"function","name":"votingActive","inputs":[],"outputs":[{"name":"","type":"bool","internalType":"bool"}],"stateMutability":"view"},{"type":"function","name":"worldID","inputs":[],"outputs":[{"name":"","type":"address","internalType":"contract IWorldID"}],"stateMutability":"view"},{"type":"event","name":"CandidateAdded","inputs":[{"name":"candidateId","type":"uint256","indexed":true,"internalType":"uint256"},{"name":"name","type":"string","indexed":false,"internalType":"string"}],"anonymous":false},{"type":"event","name":"VoteCast","inputs":[{"name":"voter","type":"address","indexed":true,"internalType":"address"},{"name":"rankedCandidateIds","type":"uint256[]","indexed":false,"internalType":"uint256[]"}],"anonymous":false},{"type":"event","name":"VotingStatusChanged","inputs":[{"name":"active","type":"bool","indexed":false,"internalType":"bool"}],"anonymous":false}],"bytecode":{"object":"0x60a0604052348015600e575f5ffd5b5060405161132a38038061132a833981016040819052602b91605e565b6001600160a01b03166080525f805460ff60a01b1933166001600160a81b031990911617600160a01b1781556001556089565b5f60208284031215606d575f5ffd5b81516001600160a01b03811681146082575f5ffd5b9392505050565b6080516112896100a15f395f61017101526112895ff3fe608060405234801561000f575f5ffd5b50600436106100fb575f3560e01c80638da5cb5b11610093578063ce11f2bb11610063578063ce11f2bb14610241578063d8bff5a514610254578063da58c7d9146102a5578063e35f8cef146102b8575f5ffd5b80638da5cb5b146102165780639a0e7d6614610228578063a9a981a314610230578063aae3bd4714610239575f5ffd5b806326541b56116100ce57806326541b56146101ab5780633477ee2e146101c0578063408e2727146101e35780638d337b81146101f6575f5ffd5b806303016130146100ff57806306a49fce1461012557806309eef43e1461013a5780631213c3ef1461016c575b5f5ffd5b61011261010d366004610d34565b6102e3565b6040519081526020015b60405180910390f35b61012d610302565b60405161011c9190610d79565b61015c610148366004610e1a565b60036020525f908152604090205460ff1681565b604051901515815260200161011c565b6101937f000000000000000000000000000000000000000000000000000000000000000081565b6040516001600160a01b03909116815260200161011c565b6101be6101b9366004610ef8565b6105d6565b005b6101d36101ce366004610d34565b610708565b60405161011c9493929190610f5d565b5f5461015c90600160a01b900460ff1681565b610209610204366004610e1a565b61083f565b60405161011c9190610f9b565b5f54610193906001600160a01b031681565b600654610112565b61011260015481565b6101be610909565b6101be61024f366004610fdd565b610997565b610286610262366004610e1a565b60046020525f9081526040902080546002909101546001600160a01b039091169082565b604080516001600160a01b03909316835260208301919091520161011c565b6101936102b3366004610d34565b610caf565b61015c6102c6366004610e1a565b6001600160a01b03165f9081526003602052604090205460ff1690565b600581815481106102f2575f80fd5b5f91825260209091200154905081565b60605f805b6005548110156103635760025f6005838154811061032757610327611089565b5f918252602080832090910154835282019290925260400190206003015460ff161561035b57816103578161109d565b9250505b600101610307565b505f8167ffffffffffffffff81111561037e5761037e610e47565b6040519080825280602002602001820160405280156103da57816020015b6103c760405180608001604052805f815260200160608152602001606081526020015f151581525090565b81526020019060019003908161039c5790505b5090505f805b6005548110156105cd5760025f6005838154811061040057610400611089565b5f918252602080832090910154835282019290925260400190206003015460ff16156105c55760025f6005838154811061043c5761043c611089565b905f5260205f20015481526020019081526020015f206040518060800160405290815f8201548152602001600182018054610476906110c1565b80601f01602080910402602001604051908101604052809291908181526020018280546104a2906110c1565b80156104ed5780601f106104c4576101008083540402835291602001916104ed565b820191905f5260205f20905b8154815290600101906020018083116104d057829003601f168201915b50505050508152602001600282018054610506906110c1565b80601f0160208091040260200160405190810160405280929190818152602001828054610532906110c1565b801561057d5780601f106105545761010080835404028352916020019161057d565b820191905f5260205f20905b81548152906001019060200180831161056057829003601f168201915b50505091835250506003919091015460ff16151560209091015283518490849081106105ab576105ab611089565b602002602001018190525081806105c19061109d565b9250505b6001016103e0565b50909392505050565b5f546001600160a01b031633146106085760405162461bcd60e51b81526004016105ff906110f9565b60405180910390fd5b60018054905f6106178361109d565b909155505060408051608081018252600180548083526020808401878152848601879052606085018490525f9283526002909152939020825181559251919291908201906106659082611186565b506040820151600282019061067a9082611186565b50606091909101516003909101805460ff1916911515919091179055600180546005805492830181555f527f036b6384b5eca791c62761152d0c79bb0604c104a5fb6f4eb0703f3154bb3db09091018190556040517fe83b2a43e7e82d975c8a0a6d2f045153c869e111136a34d1889ab7b598e396a3906106fc908590611241565b60405180910390a25050565b60026020525f908152604090208054600182018054919291610729906110c1565b80601f0160208091040260200160405190810160405280929190818152602001828054610755906110c1565b80156107a05780601f10610777576101008083540402835291602001916107a0565b820191905f5260205f20905b81548152906001019060200180831161078357829003601f168201915b5050505050908060020180546107b5906110c1565b80601f01602080910402602001604051908101604052809291908181526020018280546107e1906110c1565b801561082c5780601f106108035761010080835404028352916020019161082c565b820191905f5260205f20905b81548152906001019060200180831161080f57829003601f168201915b5050506003909301549192505060ff1684565b6001600160a01b0381165f9081526003602052604090205460609060ff1661089f5760405162461bcd60e51b8152602060048201526013602482015272159bdd195c881a185cc81b9bdd081d9bdd1959606a1b60448201526064016105ff565b6001600160a01b0382165f90815260046020908152604091829020600101805483518184028101840190945280845290918301828280156108fd57602002820191905f5260205f20905b8154815260200190600101908083116108e9575b50505050509050919050565b5f546001600160a01b031633146109325760405162461bcd60e51b81526004016105ff906110f9565b5f805460ff600160a01b808304821615810260ff60a01b1990931692909217928390556040517f9069a1a16ace751e8690f383e12f87b01e8488ba387e626810bd113fef0417f99361098d9390049091161515815260200190565b60405180910390a1565b5f54600160a01b900460ff166109e65760405162461bcd60e51b8152602060048201526014602482015273566f74696e67206973206e6f742061637469766560601b60448201526064016105ff565b335f9081526003602052604090205460ff1615610a3e5760405162461bcd60e51b8152602060048201526016602482015275165bdd481a185d9948185b1c9958591e481d9bdd195960521b60448201526064016105ff565b5f815111610a9a5760405162461bcd60e51b8152602060048201526024808201527f4d75737420766f746520666f72206174206c65617374206f6e652063616e64696044820152636461746560e01b60648201526084016105ff565b5f5b8151811015610bb4575f828281518110610ab857610ab8611089565b6020026020010151118015610ae85750600154828281518110610add57610add611089565b602002602001015111155b610b2b5760405162461bcd60e51b8152602060048201526014602482015273125b9d985b1a590818d85b991a59185d1948125160621b60448201526064016105ff565b60025f838381518110610b4057610b40611089565b60209081029190910181015182528101919091526040015f206003015460ff16610bac5760405162461bcd60e51b815260206004820152601760248201527f43616e646964617465206973206e6f742061637469766500000000000000000060448201526064016105ff565b600101610a9c565b506040805160608101825233808252602080830185815242848601525f9283526004825293909120825181546001600160a01b0319166001600160a01b0390911617815592518051929392610c0f9260018501920190610cd7565b50604091820151600290910155335f8181526003602052828120805460ff191660019081179091556006805491820181559091527ff652222313e28459528d920b65115c16c04f3efc82aaedc97be59f3f377c0d3f0180546001600160a01b0319168217905590517f211a7b776c31f6516a326e84718f2718d87d0155a80839c84507ea2de6fd519190610ca4908490610f9b565b60405180910390a250565b60068181548110610cbe575f80fd5b5f918252602090912001546001600160a01b0316905081565b828054828255905f5260205f20908101928215610d10579160200282015b82811115610d10578251825591602001919060010190610cf5565b50610d1c929150610d20565b5090565b5b80821115610d1c575f8155600101610d21565b5f60208284031215610d44575f5ffd5b5035919050565b5f81518084528060208401602086015e5f602082860101526020601f19601f83011685010191505092915050565b5f602082016020835280845180835260408501915060408160051b8601019250602086015f5b82811015610e0e57603f19878603018452815180518652602081015160806020880152610dcf6080880182610d4b565b905060408201518782036040890152610de88282610d4b565b606093840151151598909301979097525094506020938401939190910190600101610d9f565b50929695505050505050565b5f60208284031215610e2a575f5ffd5b81356001600160a01b0381168114610e40575f5ffd5b9392505050565b634e487b7160e01b5f52604160045260245ffd5b604051601f8201601f1916810167ffffffffffffffff81118282101715610e8457610e84610e47565b604052919050565b5f82601f830112610e9b575f5ffd5b813567ffffffffffffffff811115610eb557610eb5610e47565b610ec8601f8201601f1916602001610e5b565b818152846020838601011115610edc575f5ffd5b816020850160208301375f918101602001919091529392505050565b5f5f60408385031215610f09575f5ffd5b823567ffffffffffffffff811115610f1f575f5ffd5b610f2b85828601610e8c565b925050602083013567ffffffffffffffff811115610f47575f5ffd5b610f5385828601610e8c565b9150509250929050565b848152608060208201525f610f756080830186610d4b565b8281036040840152610f878186610d4b565b915050821515606083015295945050505050565b602080825282518282018190525f918401906040840190835b81811015610fd2578351835260209384019390920191600101610fb4565b509095945050505050565b5f60208284031215610fed575f5ffd5b813567ffffffffffffffff811115611003575f5ffd5b8201601f81018413611013575f5ffd5b803567ffffffffffffffff81111561102d5761102d610e47565b8060051b61103d60208201610e5b565b91825260208184018101929081019087841115611058575f5ffd5b6020850194505b8385101561107e5784358083526020958601959093509091019061105f565b979650505050505050565b634e487b7160e01b5f52603260045260245ffd5b5f600182016110ba57634e487b7160e01b5f52601160045260245ffd5b5060010190565b600181811c908216806110d557607f821691505b6020821081036110f357634e487b7160e01b5f52602260045260245ffd5b50919050565b60208082526021908201527f4f6e6c79206f776e65722063616e2063616c6c20746869732066756e6374696f6040820152603760f91b606082015260800190565b601f82111561118157805f5260205f20601f840160051c8101602085101561115f5750805b601f840160051c820191505b8181101561117e575f815560010161116b565b50505b505050565b815167ffffffffffffffff8111156111a0576111a0610e47565b6111b4816111ae84546110c1565b8461113a565b6020601f8211600181146111e6575f83156111cf5750848201515b5f19600385901b1c1916600184901b17845561117e565b5f84815260208120601f198516915b8281101561121557878501518255602094850194600190920191016111f5565b508482101561123257868401515f19600387901b60f8161c191681555b50505050600190811b01905550565b602081525f610e406020830184610d4b56fea2646970667358221220e73e66ea5fe784536711c717f4b23dec8ad71b3327773232d8a8afbdbf9e5fe564736f6c634300081b0033","linkReferences":{}},"methodIdentifiers":{"addCandidate(string,string)":"26541b56","candidateCount()":"a9a981a3","candidateIds(uint256)":"03016130","candidates(uint256)":"3477ee2e","checkHasVoted(address)":"e35f8cef","getCandidates()":"06a49fce","getTotalVotes()":"9a0e7d66","getVote(address)":"8d337b81","hasVoted(address)":"09eef43e","owner()":"8da5cb5b","toggleVoting()":"aae3bd47","vote(uint256[])":"ce11f2bb","voters(uint256)":"da58c7d9","votes(address)":"d8bff5a5","votingActive()":"408e2727","worldID()":"1213c3ef"},"id":0}