{"abi":[{"type":"constructor","inputs":[{"name":"_worldID","type":"address","internalType":"contract IWorldID"}],"stateMutability":"nonpayable"},{"type":"function","name":"ADMIN_ROLE","inputs":[],"outputs":[{"name":"","type":"bytes32","internalType":"bytes32"}],"stateMutability":"view"},{"type":"function","name":"DEFAULT_ADMIN_ROLE","inputs":[],"outputs":[{"name":"","type":"bytes32","internalType":"bytes32"}],"stateMutability":"view"},{"type":"function","name":"ELECTION_CREATOR_ROLE","inputs":[],"outputs":[{"name":"","type":"bytes32","internalType":"bytes32"}],"stateMutability":"view"},{"type":"function","name":"canCreateElections","inputs":[{"name":"_address","type":"address","internalType":"address"}],"outputs":[{"name":"","type":"bool","internalType":"bool"}],"stateMutability":"view"},{"type":"function","name":"createElection","inputs":[{"name":"_title","type":"string","internalType":"string"},{"name":"_description","type":"string","internalType":"string"},{"name":"_worldIdAction","type":"string","internalType":"string"},{"name":"_candidates","type":"tuple[]","internalType":"struct ElectionManager.Candidate[]","components":[{"name":"name","type":"string","internalType":"string"},{"name":"description","type":"string","internalType":"string"}]}],"outputs":[{"name":"","type":"uint256","internalType":"uint256"}],"stateMutability":"nonpayable"},{"type":"function","name":"creatorElections","inputs":[{"name":"","type":"address","internalType":"address"},{"name":"","type":"uint256","internalType":"uint256"}],"outputs":[{"name":"","type":"uint256","internalType":"uint256"}],"stateMutability":"view"},{"type":"function","name":"deactivateElection","inputs":[{"name":"_electionId","type":"uint256","internalType":"uint256"}],"outputs":[],"stateMutability":"nonpayable"},{"type":"function","name":"electionCount","inputs":[],"outputs":[{"name":"","type":"uint256","internalType":"uint256"}],"stateMutability":"view"},{"type":"function","name":"electionIds","inputs":[{"name":"","type":"uint256","internalType":"uint256"}],"outputs":[{"name":"","type":"uint256","internalType":"uint256"}],"stateMutability":"view"},{"type":"function","name":"elections","inputs":[{"name":"","type":"uint256","internalType":"uint256"}],"outputs":[{"name":"id","type":"uint256","internalType":"uint256"},{"name":"title","type":"string","internalType":"string"},{"name":"description","type":"string","internalType":"string"},{"name":"worldIdAction","type":"string","internalType":"string"},{"name":"creator","type":"address","internalType":"address"},{"name":"electionAddress","type":"address","internalType":"address"},{"name":"createdAt","type":"uint256","internalType":"uint256"},{"name":"active","type":"bool","internalType":"bool"}],"stateMutability":"view"},{"type":"function","name":"getActiveElections","inputs":[],"outputs":[{"name":"","type":"tuple[]","internalType":"struct ElectionManager.ElectionInfo[]","components":[{"name":"id","type":"uint256","internalType":"uint256"},{"name":"title","type":"string","internalType":"string"},{"name":"description","type":"string","internalType":"string"},{"name":"worldIdAction","type":"string","internalType":"string"},{"name":"creator","type":"address","internalType":"address"},{"name":"electionAddress","type":"address","internalType":"address"},{"name":"createdAt","type":"uint256","internalType":"uint256"},{"name":"active","type":"bool","internalType":"bool"}]}],"stateMutability":"view"},{"type":"function","name":"getAllElections","inputs":[],"outputs":[{"name":"","type":"tuple[]","internalType":"struct ElectionManager.ElectionInfo[]","components":[{"name":"id","type":"uint256","internalType":"uint256"},{"name":"title","type":"string","internalType":"string"},{"name":"description","type":"string","internalType":"string"},{"name":"worldIdAction","type":"string","internalType":"string"},{"name":"creator","type":"address","internalType":"address"},{"name":"electionAddress","type":"address","internalType":"address"},{"name":"createdAt","type":"uint256","internalType":"uint256"},{"name":"active","type":"bool","internalType":"bool"}]}],"stateMutability":"view"},{"type":"function","name":"getElection","inputs":[{"name":"_electionId","type":"uint256","internalType":"uint256"}],"outputs":[{"name":"","type":"tuple","internalType":"struct ElectionManager.ElectionInfo","components":[{"name":"id","type":"uint256","internalType":"uint256"},{"name":"title","type":"string","internalType":"string"},{"name":"description","type":"string","internalType":"string"},{"name":"worldIdAction","type":"string","internalType":"string"},{"name":"creator","type":"address","internalType":"address"},{"name":"electionAddress","type":"address","internalType":"address"},{"name":"createdAt","type":"uint256","internalType":"uint256"},{"name":"active","type":"bool","internalType":"bool"}]}],"stateMutability":"view"},{"type":"function","name":"getElectionByAction","inputs":[{"name":"_worldIdAction","type":"string","internalType":"string"}],"outputs":[{"name":"","type":"tuple","internalType":"struct ElectionManager.ElectionInfo","components":[{"name":"id","type":"uint256","internalType":"uint256"},{"name":"title","type":"string","internalType":"string"},{"name":"description","type":"string","internalType":"string"},{"name":"worldIdAction","type":"string","internalType":"string"},{"name":"creator","type":"address","internalType":"address"},{"name":"electionAddress","type":"address","internalType":"address"},{"name":"createdAt","type":"uint256","internalType":"uint256"},{"name":"active","type":"bool","internalType":"bool"}]}],"stateMutability":"view"},{"type":"function","name":"getElectionCount","inputs":[],"outputs":[{"name":"","type":"uint256","internalType":"uint256"}],"stateMutability":"view"},{"type":"function","name":"getElectionsByCreator","inputs":[{"name":"_creator","type":"address","internalType":"address"}],"outputs":[{"name":"","type":"tuple[]","internalType":"struct ElectionManager.ElectionInfo[]","components":[{"name":"id","type":"uint256","internalType":"uint256"},{"name":"title","type":"string","internalType":"string"},{"name":"description","type":"string","internalType":"string"},{"name":"worldIdAction","type":"string","internalType":"string"},{"name":"creator","type":"address","internalType":"address"},{"name":"electionAddress","type":"address","internalType":"address"},{"name":"createdAt","type":"uint256","internalType":"uint256"},{"name":"active","type":"bool","internalType":"bool"}]}],"stateMutability":"view"},{"type":"function","name":"getRoleAdmin","inputs":[{"name":"role","type":"bytes32","internalType":"bytes32"}],"outputs":[{"name":"","type":"bytes32","internalType":"bytes32"}],"stateMutability":"view"},{"type":"function","name":"grantCreatorRole","inputs":[{"name":"_creator","type":"address","internalType":"address"}],"outputs":[],"stateMutability":"nonpayable"},{"type":"function","name":"grantRole","inputs":[{"name":"role","type":"bytes32","internalType":"bytes32"},{"name":"account","type":"address","internalType":"address"}],"outputs":[],"stateMutability":"nonpayable"},{"type":"function","name":"hasRole","inputs":[{"name":"role","type":"bytes32","internalType":"bytes32"},{"name":"account","type":"address","internalType":"address"}],"outputs":[{"name":"","type":"bool","internalType":"bool"}],"stateMutability":"view"},{"type":"function","name":"isWorldIdActionUsed","inputs":[{"name":"_action","type":"string","internalType":"string"}],"outputs":[{"name":"","type":"bool","internalType":"bool"}],"stateMutability":"view"},{"type":"function","name":"renounceRole","inputs":[{"name":"role","type":"bytes32","internalType":"bytes32"},{"name":"callerConfirmation","type":"address","internalType":"address"}],"outputs":[],"stateMutability":"nonpayable"},{"type":"function","name":"revokeCreatorRole","inputs":[{"name":"_creator","type":"address","internalType":"address"}],"outputs":[],"stateMutability":"nonpayable"},{"type":"function","name":"revokeRole","inputs":[{"name":"role","type":"bytes32","internalType":"bytes32"},{"name":"account","type":"address","internalType":"address"}],"outputs":[],"stateMutability":"nonpayable"},{"type":"function","name":"supportsInterface","inputs":[{"name":"interfaceId","type":"bytes4","internalType":"bytes4"}],"outputs":[{"name":"","type":"bool","internalType":"bool"}],"stateMutability":"view"},{"type":"function","name":"usedWorldIdActions","inputs":[{"name":"","type":"string","internalType":"string"}],"outputs":[{"name":"","type":"bool","internalType":"bool"}],"stateMutability":"view"},{"type":"function","name":"worldID","inputs":[],"outputs":[{"name":"","type":"address","internalType":"contract IWorldID"}],"stateMutability":"view"},{"type":"event","name":"CreatorRoleGranted","inputs":[{"name":"creator","type":"address","indexed":true,"internalType":"address"},{"name":"admin","type":"address","indexed":true,"internalType":"address"}],"anonymous":false},{"type":"event","name":"ElectionCreated","inputs":[{"name":"electionId","type":"uint256","indexed":true,"internalType":"uint256"},{"name":"title","type":"string","indexed":false,"internalType":"string"},{"name":"creator","type":"address","indexed":true,"internalType":"address"},{"name":"electionAddress","type":"address","indexed":false,"internalType":"address"},{"name":"worldIdAction","type":"string","indexed":false,"internalType":"string"}],"anonymous":false},{"type":"event","name":"ElectionDeactivated","inputs":[{"name":"electionId","type":"uint256","indexed":true,"internalType":"uint256"}],"anonymous":false},{"type":"event","name":"RoleAdminChanged","inputs":[{"name":"role","type":"bytes32","indexed":true,"internalType":"bytes32"},{"name":"previousAdminRole","type":"bytes32","indexed":true,"internalType":"bytes32"},{"name":"newAdminRole","type":"bytes32","indexed":true,"internalType":"bytes32"}],"anonymous":false},{"type":"event","name":"RoleGranted","inputs":[{"name":"role","type":"bytes32","indexed":true,"internalType":"bytes32"},{"name":"account","type":"address","indexed":true,"internalType":"address"},{"name":"sender","type":"address","indexed":true,"internalType":"address"}],"anonymous":false},{"type":"event","name":"RoleRevoked","inputs":[{"name":"role","type":"bytes32","indexed":true,"internalType":"bytes32"},{"name":"account","type":"address","indexed":true,"internalType":"address"},{"name":"sender","type":"address","indexed":true,"internalType":"address"}],"anonymous":false},{"type":"error","name":"AccessControlBadConfirmation","inputs":[]},{"type":"error","name":"AccessControlUnauthorizedAccount","inputs":[{"name":"account","type":"address","internalType":"address"},{"name":"neededRole","type":"bytes32","internalType":"bytes32"}]},{"type":"error","name":"ActionNotFound","inputs":[{"name":"action","type":"string","internalType":"string"}]},{"type":"error","name":"ElectionNotFound","inputs":[{"name":"electionId","type":"uint256","internalType":"uint256"}]},{"type":"error","name":"NoCandidatesProvided","inputs":[]},{"type":"error","name":"UnauthorizedDeactivation","inputs":[]},{"type":"error","name":"WorldIdActionAlreadyUsed","inputs":[{"name":"action","type":"string","internalType":"string"}]}],"bytecode":{"object":"0x60a060405234801561000f575f5ffd5b506040516145e23803806145e283398101604081905261002e91610151565b6001600160a01b0381166080525f600181905561004b90336100a8565b506100767fa49807205ce4d355092ef5a8a18f56e8913cf4a201fbe287825b095693c21775336100a8565b506100a17ff683d40ff386c6bfda70d3877dab9eb1ab577295319df15b0c64b095c82d335c336100a8565b505061017e565b5f828152602081815260408083206001600160a01b038516845290915281205460ff16610148575f838152602081815260408083206001600160a01b03861684529091529020805460ff191660011790556101003390565b6001600160a01b0316826001600160a01b0316847f2f8788117e7eff1d82e926ec794901d17c78024a50270940304540a733656f0d60405160405180910390a450600161014b565b505f5b92915050565b5f60208284031215610161575f5ffd5b81516001600160a01b0381168114610177575f5ffd5b9392505050565b60805161444561019d5f395f81816101f3015261061601526144455ff3fe608060405234801561000f575f5ffd5b50600436106101a1575f3560e01c80635c703913116100f35780639d71077711610093578063bf727cc21161006e578063bf727cc2146103b2578063bf9a56cb146103c6578063c4a691fc146103f4578063d547741f14610407575f5ffd5b80639d71077714610378578063a217fddf14610398578063bce589351461039f575f5ffd5b80637fd5f268116100ce5780637fd5f2681461033f5780638a3b63b01461035457806391d148541461035c578063997d28301461036f575f5ffd5b80635c703913146102f15780635e6fef011461030457806375b238fc1461032b575f5ffd5b80632f2ff15d1161015e57806336568abe1161013957806336568abe146102a55780633c316221146102b857806345c98a3f146102cb5780634d43e6f0146102de575f5ffd5b80632f2ff15d1461026a5780632f918b481461027f57806334e2653d14610292575f5ffd5b806301ffc9a7146101a557806302330a61146101cd5780631213c3ef146101ee57806313f5eeac1461022d578063213785a014610240578063248a9ca314610248575b5f5ffd5b6101b86101b3366004611a3c565b61041a565b60405190151581526020015b60405180910390f35b6101e06101db366004611a6a565b610450565b6040519081526020016101c4565b6102157f000000000000000000000000000000000000000000000000000000000000000081565b6040516001600160a01b0390911681526020016101c4565b6101b861023b366004611a9c565b61046f565b6001546101e0565b6101e0610256366004611a6a565b5f9081526020819052604090206001015490565b61027d610278366004611ab5565b610487565b005b61027d61028d366004611a6a565b6104b1565b6101e06102a0366004611bb6565b61057d565b61027d6102b3366004611ab5565b6108dc565b6101e06102c6366004611d64565b610914565b61027d6102d9366004611a9c565b61093f565b61027d6102ec366004611a9c565b61096d565b6101b86102ff366004611d8c565b6109d5565b610317610312366004611a6a565b6109ff565b6040516101c4989796959493929190611df3565b6101e05f5160206143d05f395f51905f5281565b610347610be3565b6040516101c49190611f0f565b610347610ea0565b6101b861036a366004611ab5565b61120a565b6101e060015481565b61038b610386366004611a6a565b611232565b6040516101c49190611f72565b6101e05f81565b6103476103ad366004611a9c565b611481565b6101e05f5160206143f05f395f51905f5281565b6101b86103d4366004611d8c565b805160208183018101805160038252928201919093012091525460ff1681565b61038b610402366004611d8c565b61179d565b61027d610415366004611ab5565b611875565b5f6001600160e01b03198216637965db0b60e01b148061044a57506301ffc9a760e01b6001600160e01b03198316145b92915050565b6005818154811061045f575f80fd5b5f91825260209091200154905081565b5f61044a5f5160206143f05f395f51905f528361120a565b5f828152602081905260409020600101546104a181611899565b6104ab83836118a6565b50505050565b808015806104c0575060015481115b156104e657604051630272ce4360e61b8152600481018290526024015b60405180910390fd5b5f82815260026020526040902061050a5f5160206143d05f395f51905f523361120a565b158015610524575060048101546001600160a01b03163314155b15610542576040516317fef21d60e31b815260040160405180910390fd5b60078101805460ff1916905560405183907ffa6ce81276bbbeab632fc9aa159dfc3eb43f8a3c0c1fcdd23ad63b4d1a0db038905f90a2505050565b5f5f5160206143f05f395f51905f5261059581611899565b82515f036105b6576040516382dc3feb60e01b815260040160405180910390fd5b6003846040516105c69190611f84565b9081526040519081900360200190205460ff16156105f9578360405163ead5176b60e01b81526004016104dd9190611f9a565b60018054905f61060883611fac565b91905055505f60015490505f7f000000000000000000000000000000000000000000000000000000000000000088888833604051610645906119db565b610653959493929190611fd0565b604051809103905ff08015801561066c573d5f5f3e3d5ffd5b5090505f5b855181101561071a57816001600160a01b03166326541b5687838151811061069b5761069b612034565b60200260200101515f01518884815181106106b8576106b8612034565b6020026020010151602001516040518363ffffffff1660e01b81526004016106e1929190612048565b5f604051808303815f87803b1580156106f8575f5ffd5b505af115801561070a573d5f5f3e3d5ffd5b5050600190920191506106719050565b50604080516101008101825283815260208082018b81528284018b9052606083018a90523360808401526001600160a01b03851660a08401524260c0840152600160e084018190525f878152600290935293909120825181559051919290919082019061078790826120f2565b506040820151600282019061079c90826120f2565b50606082015160038201906107b190826120f2565b5060808201516004820180546001600160a01b039283166001600160a01b03199182161790915560a084015160058401805491909316911617905560c0820151600682015560e0909101516007909101805491151560ff19909216919091179055604051600190600390610826908990611f84565b9081526040805160209281900383018120805460ff1916941515949094179093556005805460018181019092557f036b6384b5eca791c62761152d0c79bb0604c104a5fb6f4eb0703f3154bb3db001869055335f8181526004855292832080549283018155835292909120018490559083907ff20bb8b9e29609b08ea7d390ac76cb6ea14868f1438679e3bd460e7d0cf68c63906108c9908c9086908c906121ac565b60405180910390a3509695505050505050565b6001600160a01b03811633146109055760405163334bd91960e11b815260040160405180910390fd5b61090f8282611935565b505050565b6004602052815f5260405f20818154811061092d575f80fd5b905f5260205f20015f91509150505481565b5f5160206143d05f395f51905f5261095681611899565b61090f5f5160206143f05f395f51905f5283611935565b5f5160206143d05f395f51905f5261098481611899565b61099b5f5160206143f05f395f51905f52836118a6565b5060405133906001600160a01b038416907f599f8b4b55cb3e145b8af7563276a61ffadb97b7ee827acff373d24c614bbf41905f90a35050565b5f6003826040516109e69190611f84565b9081526040519081900360200190205460ff1692915050565b60026020525f908152604090208054600182018054919291610a2090612075565b80601f0160208091040260200160405190810160405280929190818152602001828054610a4c90612075565b8015610a975780601f10610a6e57610100808354040283529160200191610a97565b820191905f5260205f20905b815481529060010190602001808311610a7a57829003601f168201915b505050505090806002018054610aac90612075565b80601f0160208091040260200160405190810160405280929190818152602001828054610ad890612075565b8015610b235780601f10610afa57610100808354040283529160200191610b23565b820191905f5260205f20905b815481529060010190602001808311610b0657829003601f168201915b505050505090806003018054610b3890612075565b80601f0160208091040260200160405190810160405280929190818152602001828054610b6490612075565b8015610baf5780601f10610b8657610100808354040283529160200191610baf565b820191905f5260205f20905b815481529060010190602001808311610b9257829003601f168201915b5050505060048301546005840154600685015460079095015493946001600160a01b03928316949290911692509060ff1688565b60605f6001546001600160401b03811115610c0057610c00611adf565b604051908082528060200260200182016040528015610c3957816020015b610c266119e8565b815260200190600190039081610c1e5790505b5090505f5b600154811015610e9a5760025f60058381548110610c5e57610c5e612034565b905f5260205f20015481526020019081526020015f20604051806101000160405290815f8201548152602001600182018054610c9990612075565b80601f0160208091040260200160405190810160405280929190818152602001828054610cc590612075565b8015610d105780601f10610ce757610100808354040283529160200191610d10565b820191905f5260205f20905b815481529060010190602001808311610cf357829003601f168201915b50505050508152602001600282018054610d2990612075565b80601f0160208091040260200160405190810160405280929190818152602001828054610d5590612075565b8015610da05780601f10610d7757610100808354040283529160200191610da0565b820191905f5260205f20905b815481529060010190602001808311610d8357829003601f168201915b50505050508152602001600382018054610db990612075565b80601f0160208091040260200160405190810160405280929190818152602001828054610de590612075565b8015610e305780601f10610e0757610100808354040283529160200191610e30565b820191905f5260205f20905b815481529060010190602001808311610e1357829003601f168201915b505050918352505060048201546001600160a01b03908116602083015260058301541660408201526006820154606082015260079091015460ff1615156080909101528251839083908110610e8757610e87612034565b6020908102919091010152600101610c3e565b50919050565b60605f805b600154811015610f015760025f60058381548110610ec557610ec5612034565b5f918252602080832090910154835282019290925260400190206007015460ff1615610ef95781610ef581611fac565b9250505b600101610ea5565b505f816001600160401b03811115610f1b57610f1b611adf565b604051908082528060200260200182016040528015610f5457816020015b610f416119e8565b815260200190600190039081610f395790505b5090505f805b6001548110156112015760025f60058381548110610f7a57610f7a612034565b5f918252602080832090910154835282019290925260400190206007015460ff16156111f95760025f60058381548110610fb657610fb6612034565b905f5260205f20015481526020019081526020015f20604051806101000160405290815f8201548152602001600182018054610ff190612075565b80601f016020809104026020016040519081016040528092919081815260200182805461101d90612075565b80156110685780601f1061103f57610100808354040283529160200191611068565b820191905f5260205f20905b81548152906001019060200180831161104b57829003601f168201915b5050505050815260200160028201805461108190612075565b80601f01602080910402602001604051908101604052809291908181526020018280546110ad90612075565b80156110f85780601f106110cf576101008083540402835291602001916110f8565b820191905f5260205f20905b8154815290600101906020018083116110db57829003601f168201915b5050505050815260200160038201805461111190612075565b80601f016020809104026020016040519081016040528092919081815260200182805461113d90612075565b80156111885780601f1061115f57610100808354040283529160200191611188565b820191905f5260205f20905b81548152906001019060200180831161116b57829003601f168201915b505050918352505060048201546001600160a01b03908116602083015260058301541660408201526006820154606082015260079091015460ff16151560809091015283518490849081106111df576111df612034565b602002602001018190525081806111f590611fac565b9250505b600101610f5a565b50909392505050565b5f918252602082815260408084206001600160a01b0393909316845291905290205460ff1690565b61123a6119e8565b81801580611249575060015481115b1561126a57604051630272ce4360e61b8152600481018290526024016104dd565b60025f8481526020019081526020015f20604051806101000160405290815f82015481526020016001820180546112a090612075565b80601f01602080910402602001604051908101604052809291908181526020018280546112cc90612075565b80156113175780601f106112ee57610100808354040283529160200191611317565b820191905f5260205f20905b8154815290600101906020018083116112fa57829003601f168201915b5050505050815260200160028201805461133090612075565b80601f016020809104026020016040519081016040528092919081815260200182805461135c90612075565b80156113a75780601f1061137e576101008083540402835291602001916113a7565b820191905f5260205f20905b81548152906001019060200180831161138a57829003601f168201915b505050505081526020016003820180546113c090612075565b80601f01602080910402602001604051908101604052809291908181526020018280546113ec90612075565b80156114375780601f1061140e57610100808354040283529160200191611437565b820191905f5260205f20905b81548152906001019060200180831161141a57829003601f168201915b505050918352505060048201546001600160a01b03908116602083015260058301541660408201526006820154606082015260079091015460ff1615156080909101529392505050565b6001600160a01b0381165f9081526004602090815260408083208054825181850281018501909352808352606094938301828280156114dd57602002820191905f5260205f20905b8154815260200190600101908083116114c9575b505050505090505f81516001600160401b038111156114fe576114fe611adf565b60405190808252806020026020018201604052801561153757816020015b6115246119e8565b81526020019060019003908161151c5790505b5090505f5b82518110156117955760025f84838151811061155a5761155a612034565b602002602001015181526020019081526020015f20604051806101000160405290815f820154815260200160018201805461159490612075565b80601f01602080910402602001604051908101604052809291908181526020018280546115c090612075565b801561160b5780601f106115e25761010080835404028352916020019161160b565b820191905f5260205f20905b8154815290600101906020018083116115ee57829003601f168201915b5050505050815260200160028201805461162490612075565b80601f016020809104026020016040519081016040528092919081815260200182805461165090612075565b801561169b5780601f106116725761010080835404028352916020019161169b565b820191905f5260205f20905b81548152906001019060200180831161167e57829003601f168201915b505050505081526020016003820180546116b490612075565b80601f01602080910402602001604051908101604052809291908181526020018280546116e090612075565b801561172b5780601f106117025761010080835404028352916020019161172b565b820191905f5260205f20905b81548152906001019060200180831161170e57829003601f168201915b505050918352505060048201546001600160a01b03908116602083015260058301541660408201526006820154606082015260079091015460ff161515608090910152825183908390811061178257611782612034565b602090810291909101015260010161153c565b509392505050565b6117a56119e8565b60015b600154811161185957826040516020016117c29190611f84565b60408051601f1981840301815282825280516020918201205f858152600283529290922091926117f69260030191016121e9565b60405160208183030381529060405280519060200120036118475760025f8281526020019081526020015f20604051806101000160405290815f82015481526020016001820180546112a090612075565b8061185181611fac565b9150506117a8565b5081604051632fac6fe960e11b81526004016104dd9190611f9a565b5f8281526020819052604090206001015461188f81611899565b6104ab8383611935565b6118a3813361199e565b50565b5f6118b1838361120a565b61192e575f838152602081815260408083206001600160a01b03861684529091529020805460ff191660011790556118e63390565b6001600160a01b0316826001600160a01b0316847f2f8788117e7eff1d82e926ec794901d17c78024a50270940304540a733656f0d60405160405180910390a450600161044a565b505f61044a565b5f611940838361120a565b1561192e575f838152602081815260408083206001600160a01b0386168085529252808320805460ff1916905551339286917ff6391f5c32d9c69d2a47ea670b442974b53935d1edc7fd64eb21e047a839171b9190a450600161044a565b6119a8828261120a565b6119d75760405163e2517d3f60e01b81526001600160a01b0382166004820152602481018390526044016104dd565b5050565b6121758061225b83390190565b6040518061010001604052805f81526020016060815260200160608152602001606081526020015f6001600160a01b031681526020015f6001600160a01b031681526020015f81526020015f151581525090565b5f60208284031215611a4c575f5ffd5b81356001600160e01b031981168114611a63575f5ffd5b9392505050565b5f60208284031215611a7a575f5ffd5b5035919050565b80356001600160a01b0381168114611a97575f5ffd5b919050565b5f60208284031215611aac575f5ffd5b611a6382611a81565b5f5f60408385031215611ac6575f5ffd5b82359150611ad660208401611a81565b90509250929050565b634e487b7160e01b5f52604160045260245ffd5b604080519081016001600160401b0381118282101715611b1557611b15611adf565b60405290565b604051601f8201601f191681016001600160401b0381118282101715611b4357611b43611adf565b604052919050565b5f82601f830112611b5a575f5ffd5b81356001600160401b03811115611b7357611b73611adf565b611b86601f8201601f1916602001611b1b565b818152846020838601011115611b9a575f5ffd5b816020850160208301375f918101602001919091529392505050565b5f5f5f5f60808587031215611bc9575f5ffd5b84356001600160401b03811115611bde575f5ffd5b611bea87828801611b4b565b94505060208501356001600160401b03811115611c05575f5ffd5b611c1187828801611b4b565b93505060408501356001600160401b03811115611c2c575f5ffd5b611c3887828801611b4b565b92505060608501356001600160401b03811115611c53575f5ffd5b8501601f81018713611c63575f5ffd5b80356001600160401b03811115611c7c57611c7c611adf565b8060051b611c8c60208201611b1b565b9182526020818401810192908101908a841115611ca7575f5ffd5b6020850192505b83831015611d555782356001600160401b03811115611ccb575f5ffd5b85016040818d03601f19011215611ce0575f5ffd5b611ce8611af3565b60208201356001600160401b03811115611d00575f5ffd5b611d0f8e602083860101611b4b565b82525060408201356001600160401b03811115611d2a575f5ffd5b611d398e602083860101611b4b565b6020830152508084525050602082019150602083019250611cae565b979a9699509497505050505050565b5f5f60408385031215611d75575f5ffd5b611d7e83611a81565b946020939093013593505050565b5f60208284031215611d9c575f5ffd5b81356001600160401b03811115611db1575f5ffd5b611dbd84828501611b4b565b949350505050565b5f81518084528060208401602086015e5f602082860101526020601f19601f83011685010191505092915050565b88815261010060208201525f611e0d61010083018a611dc5565b8281036040840152611e1f818a611dc5565b90508281036060840152611e338189611dc5565b6001600160a01b0397881660808501529590961660a08301525060c0810192909252151560e09091015295945050505050565b805182525f60208201516101006020850152611e86610100850182611dc5565b905060408301518482036040860152611e9f8282611dc5565b91505060608301518482036060860152611eb98282611dc5565b9150506080830151611ed660808601826001600160a01b03169052565b5060a0830151611ef160a08601826001600160a01b03169052565b5060c083015160c085015260e083015161179560e086018215159052565b5f602082016020835280845180835260408501915060408160051b8601019250602086015f5b82811015611f6657603f19878603018452611f51858351611e66565b94506020938401939190910190600101611f35565b50929695505050505050565b602081525f611a636020830184611e66565b5f82518060208501845e5f920191825250919050565b602081525f611a636020830184611dc5565b5f60018201611fc957634e487b7160e01b5f52601160045260245ffd5b5060010190565b6001600160a01b038616815260a0602082018190525f90611ff390830187611dc5565b82810360408401526120058187611dc5565b905082810360608401526120198186611dc5565b91505060018060a01b03831660808301529695505050505050565b634e487b7160e01b5f52603260045260245ffd5b604081525f61205a6040830185611dc5565b828103602084015261206c8185611dc5565b95945050505050565b600181811c9082168061208957607f821691505b602082108103610e9a57634e487b7160e01b5f52602260045260245ffd5b601f82111561090f57805f5260205f20601f840160051c810160208510156120cc5750805b601f840160051c820191505b818110156120eb575f81556001016120d8565b5050505050565b81516001600160401b0381111561210b5761210b611adf565b61211f816121198454612075565b846120a7565b6020601f821160018114612151575f831561213a5750848201515b5f19600385901b1c1916600184901b1784556120eb565b5f84815260208120601f198516915b828110156121805787850151825560209485019460019092019101612160565b508482101561219d57868401515f19600387901b60f8161c191681555b50505050600190811b01905550565b606081525f6121be6060830186611dc5565b6001600160a01b038516602084015282810360408401526121df8185611dc5565b9695505050505050565b5f5f83546121f681612075565b60018216801561220d57600181146122225761224f565b60ff198316865281151582028601935061224f565b865f5260205f205f5b838110156122475781548882015260019091019060200161222b565b505081860193505b50919594505050505056fe60e0604052600160c052348015610014575f5ffd5b5060405161217538038061217583398101604081905261003391610346565b6001600160a01b038516608052600161004c8582610481565b5060026100598482610481565b5060036100668382610481565b50600480546001600160a01b0383166001600160a01b03199091161790556005805460ff60a01b1933166001600160a81b031990911617600160a01b1790555f6006554260075560405161011c9061010a906100f5906020017f6170705f313037313938343561303937376566363365626538656239656462388152630e4c185960e21b602082015260240190565b60408051601f198184030181529190526101b5565b836040516020016100f5929190610552565b60a0526101295f826101e9565b506101547f828634d95e775031b9ff576b159a8509d3053581a8c9c4d7d86899e0afcd882f826101e9565b5061017f7fdfbefbf47cfe66b701d8cfdbce1de81c821590819cb07e71cb01b6602fb0ee27336101e9565b506101aa7f86ba3ce870574648095a9a005617ca8bb8a751790f4b373c14c589ffb363adad336101e9565b50505050505061057d565b5f6008826040516020016101c9919061056b565b60408051601f198184030181529190528051602090910120901c92915050565b5f828152602081815260408083206001600160a01b038516845290915281205460ff16610289575f838152602081815260408083206001600160a01b03861684529091529020805460ff191660011790556102413390565b6001600160a01b0316826001600160a01b0316847f2f8788117e7eff1d82e926ec794901d17c78024a50270940304540a733656f0d60405160405180910390a450600161028c565b505f5b92915050565b6001600160a01b03811681146102a6575f5ffd5b50565b634e487b7160e01b5f52604160045260245ffd5b5f82601f8301126102cc575f5ffd5b81516001600160401b038111156102e5576102e56102a9565b604051601f8201601f19908116603f011681016001600160401b0381118282101715610313576103136102a9565b60405281815283820160200185101561032a575f5ffd5b8160208501602083015e5f918101602001919091529392505050565b5f5f5f5f5f60a0868803121561035a575f5ffd5b855161036581610292565b60208701519095506001600160401b03811115610380575f5ffd5b61038c888289016102bd565b604088015190955090506001600160401b038111156103a9575f5ffd5b6103b5888289016102bd565b606088015190945090506001600160401b038111156103d2575f5ffd5b6103de888289016102bd565b92505060808601516103ef81610292565b809150509295509295909350565b600181811c9082168061041157607f821691505b60208210810361042f57634e487b7160e01b5f52602260045260245ffd5b50919050565b601f82111561047c57805f5260205f20601f840160051c8101602085101561045a5750805b601f840160051c820191505b81811015610479575f8155600101610466565b50505b505050565b81516001600160401b0381111561049a5761049a6102a9565b6104ae816104a884546103fd565b84610435565b6020601f8211600181146104e0575f83156104c95750848201515b5f19600385901b1c1916600184901b178455610479565b5f84815260208120601f198516915b8281101561050f57878501518255602094850194600190920191016104ef565b508482101561052c57868401515f19600387901b60f8161c191681555b50505050600190811b01905550565b5f81518060208401855e5f93019283525090919050565b8281525f610563602083018461053b565b949350505050565b5f610576828461053b565b9392505050565b60805160a05160c051611bb96105bc5f395f81816104950152610fda01525f818161039b015261100001525f81816103ea0152610fab0152611bb95ff3fe608060405234801561000f575f5ffd5b50600436106101fd575f3560e01c8063753e9ef011610114578063a217fddf116100a9578063c45a015511610079578063c45a0155146104e2578063c6e36a32146104f5578063cf09e0d01461051d578063d547741f14610526578063da58c7d914610539575f5ffd5b8063a217fddf146104b7578063a9a981a3146104be578063aae3bd47146104c7578063ac4db168146104cf575f5ffd5b80638aeda25a116100e45780638aeda25a1461044e57806391d148541461047557806393a56e0e14610488578063a0f44c9214610490575f5ffd5b8063753e9ef0146103e557806376804a031461040c578063793cf2181461042a57806386852dca14610432575f5ffd5b80632f2ff15d11610195578063408e272711610165578063408e27271461036d5780634a79d50c1461038157806359dd06aa146103965780635a55c1f0146103bd5780637284e416146103dd575f5ffd5b80632f2ff15d1461030f5780633477ee2e1461032257806335bbe70e1461034557806336568abe1461035a575f5ffd5b806306a49fce116101d057806306a49fce1461029c5780631267d110146102b1578063248a9ca3146102d857806326541b56146102fa575f5ffd5b806301ffc9a71461020157806302d05d3f14610229578063030161301461025457806304a0fb1714610275575b5f5ffd5b61021461020f3660046114ce565b61054c565b60405190151581526020015b60405180910390f35b60045461023c906001600160a01b031681565b6040516001600160a01b039091168152602001610220565b6102676102623660046114fc565b610582565b604051908152602001610220565b6102677fdfbefbf47cfe66b701d8cfdbce1de81c821590819cb07e71cb01b6602fb0ee2781565b6102a46105a1565b6040516102209190611541565b6102677f86ba3ce870574648095a9a005617ca8bb8a751790f4b373c14c589ffb363adad81565b6102676102e63660046114fc565b5f9081526020819052604090206001015490565b61030d6103083660046116bc565b610875565b005b61030d61031d366004611721565b6109a3565b6103356103303660046114fc565b6109cd565b604051610220949392919061175a565b61034d610b04565b6040516102209190611798565b61030d610368366004611721565b610b5a565b60055461021490600160a01b900460ff1681565b610389610b92565b60405161022091906117da565b6102677f000000000000000000000000000000000000000000000000000000000000000081565b6103d06103cb3660046114fc565b610c1e565b60405161022091906117ec565b610389610c9e565b61023c7f000000000000000000000000000000000000000000000000000000000000000081565b600b54600654604080519283525f6020840152820152606001610220565b600b54610267565b61043a610cab565b604051610220989796959493929190611831565b6102677f828634d95e775031b9ff576b159a8509d3053581a8c9c4d7d86899e0afcd882f81565b610214610483366004611721565b610ea4565b610389610ecc565b6102677f000000000000000000000000000000000000000000000000000000000000000081565b6102675f81565b61026760065481565b61030d610ed9565b61030d6104dd3660046118a0565b610f6a565b60055461023c906001600160a01b031681565b6105086105033660046119b6565b6112e1565b60408051928352901515602083015201610220565b61026760075481565b61030d610534366004611721565b61131c565b6102676105473660046114fc565b611340565b5f6001600160e01b03198216637965db0b60e01b148061057c57506301ffc9a760e01b6001600160e01b03198316145b92915050565b600a8181548110610591575f80fd5b5f91825260209091200154905081565b60605f805b600a548110156106025760085f600a83815481106105c6576105c66119d6565b5f918252602080832090910154835282019290925260400190206003015460ff16156105fa57816105f6816119ea565b9250505b6001016105a6565b505f8167ffffffffffffffff81111561061d5761061d6115e2565b60405190808252806020026020018201604052801561067957816020015b61066660405180608001604052805f815260200160608152602001606081526020015f151581525090565b81526020019060019003908161063b5790505b5090505f805b600a5481101561086c5760085f600a838154811061069f5761069f6119d6565b5f918252602080832090910154835282019290925260400190206003015460ff16156108645760085f600a83815481106106db576106db6119d6565b905f5260205f20015481526020019081526020015f206040518060800160405290815f820154815260200160018201805461071590611a0e565b80601f016020809104026020016040519081016040528092919081815260200182805461074190611a0e565b801561078c5780601f106107635761010080835404028352916020019161078c565b820191905f5260205f20905b81548152906001019060200180831161076f57829003601f168201915b505050505081526020016002820180546107a590611a0e565b80601f01602080910402602001604051908101604052809291908181526020018280546107d190611a0e565b801561081c5780601f106107f35761010080835404028352916020019161081c565b820191905f5260205f20905b8154815290600101906020018083116107ff57829003601f168201915b50505091835250506003919091015460ff161515602090910152835184908490811061084a5761084a6119d6565b60200260200101819052508180610860906119ea565b9250505b60010161067f565b50909392505050565b7fdfbefbf47cfe66b701d8cfdbce1de81c821590819cb07e71cb01b6602fb0ee2761089f8161134f565b60068054905f6108ae836119ea565b90915550506040805160808101825260065480825260208083018781528385018790526001606085018190525f938452600890925293909120825181559251919291908201906108fe9082611a91565b50604082015160028201906109139082611a91565b50606091909101516003909101805460ff1916911515919091179055600654600a80546001810182555f919091527fc65a7bb8d6351c1cf70c95a316cc6a92839c986682d98bc35f958f4883f9d2a8018190556040517fe83b2a43e7e82d975c8a0a6d2f045153c869e111136a34d1889ab7b598e396a3906109969086906117da565b60405180910390a2505050565b5f828152602081905260409020600101546109bd8161134f565b6109c7838361135c565b50505050565b60086020525f9081526040902080546001820180549192916109ee90611a0e565b80601f0160208091040260200160405190810160405280929190818152602001828054610a1a90611a0e565b8015610a655780601f10610a3c57610100808354040283529160200191610a65565b820191905f5260205f20905b815481529060010190602001808311610a4857829003601f168201915b505050505090806002018054610a7a90611a0e565b80601f0160208091040260200160405190810160405280929190818152602001828054610aa690611a0e565b8015610af15780601f10610ac857610100808354040283529160200191610af1565b820191905f5260205f20905b815481529060010190602001808311610ad457829003601f168201915b5050506003909301549192505060ff1684565b6060600b805480602002602001604051908101604052809291908181526020018280548015610b5057602002820191905f5260205f20905b815481526020019060010190808311610b3c575b5050505050905090565b6001600160a01b0381163314610b835760405163334bd91960e11b815260040160405180910390fd5b610b8d82826113eb565b505050565b60018054610b9f90611a0e565b80601f0160208091040260200160405190810160405280929190818152602001828054610bcb90611a0e565b8015610c165780601f10610bed57610100808354040283529160200191610c16565b820191905f5260205f20905b815481529060010190602001808311610bf957829003601f168201915b505050505081565b606060095f8381526020019081526020015f20805480602002602001604051908101604052809291908181526020015f905b82821015610c93575f84815260209081902060408051808201909152600285029091018054825260019081015460ff161515828401529083529092019101610c50565b505050509050919050565b60028054610b9f90611a0e565b60608060605f5f5f5f5f60016002600360045f9054906101000a90046001600160a01b0316600754600560149054906101000a900460ff16600654600b80549050878054610cf890611a0e565b80601f0160208091040260200160405190810160405280929190818152602001828054610d2490611a0e565b8015610d6f5780601f10610d4657610100808354040283529160200191610d6f565b820191905f5260205f20905b815481529060010190602001808311610d5257829003601f168201915b50505050509750868054610d8290611a0e565b80601f0160208091040260200160405190810160405280929190818152602001828054610dae90611a0e565b8015610df95780601f10610dd057610100808354040283529160200191610df9565b820191905f5260205f20905b815481529060010190602001808311610ddc57829003601f168201915b50505050509650858054610e0c90611a0e565b80601f0160208091040260200160405190810160405280929190818152602001828054610e3890611a0e565b8015610e835780601f10610e5a57610100808354040283529160200191610e83565b820191905f5260205f20905b815481529060010190602001808311610e6657829003601f168201915b50505050509550975097509750975097509750975097509091929394959697565b5f918252602082815260408084206001600160a01b0393909316845291905290205460ff1690565b60038054610b9f90611a0e565b7f828634d95e775031b9ff576b159a8509d3053581a8c9c4d7d86899e0afcd882f610f038161134f565b6005805460ff600160a01b808304821615810260ff60a01b1990931692909217928390556040517f9069a1a16ace751e8690f383e12f87b01e8488ba387e626810bd113fef0417f993610f5f9390049091161515815260200190565b60405180910390a150565b600554600160a01b900460ff16610f9457604051639b8cc47560e01b815260040160405180910390fd5b604051633bc778e360e01b81526001600160a01b037f00000000000000000000000000000000000000000000000000000000000000001690633bc778e39061102a9087907f0000000000000000000000000000000000000000000000000000000000000000908a9089907f0000000000000000000000000000000000000000000000000000000000000000908a90600401611b4c565b5f6040518083038186803b158015611040575f5ffd5b505afa158015611052573d5f5f3e3d5ffd5b5050505080515f0361107757604051638b95a48b60e01b815260040160405180910390fd5b5f5b81518110156111d157818181518110611094576110946119d6565b60200260200101515f01515f14806110c957506006548282815181106110bc576110bc6119d6565b60200260200101515f0151115b15611110578181815181106110e0576110e06119d6565b60200260200101515f01516040516306b5f7ef60e21b815260040161110791815260200190565b60405180910390fd5b60085f838381518110611125576111256119d6565b6020908102919091018101515182528101919091526040015f206003015460ff166111835781818151811061115c5761115c6119d6565b60200260200101515f0151604051630e680fb360e01b815260040161110791815260200190565b801580156111ab575081818151811061119e5761119e6119d6565b6020026020010151602001515b156111c95760405163f79c9dcf60e01b815260040160405180910390fd5b600101611079565b505f838152600960205260408120805415916111ed9190611491565b5f5b825181101561125c575f8581526009602052604090208351849083908110611219576112196119d6565b6020908102919091018101518254600180820185555f948552938390208251600290920201908155910151908201805460ff1916911515919091179055016111ef565b50801561129857600b80546001810182555f919091527f0175b7a638427703f0dbe7bb9bbf987a2551717b34e79f33b5b1008d1fa01db9018490555b336001600160a01b03167f55a1980c493f0b0944a366b05eb4cf30f8c51a97de5be737c2fc5d7ac14f4705836040516112d191906117ec565b60405180910390a2505050505050565b6009602052815f5260405f2081815481106112fa575f80fd5b5f9182526020909120600290910201805460019091015490925060ff16905082565b5f828152602081905260409020600101546113368161134f565b6109c783836113eb565b600b8181548110610591575f80fd5b6113598133611454565b50565b5f6113678383610ea4565b6113e4575f838152602081815260408083206001600160a01b03861684529091529020805460ff1916600117905561139c3390565b6001600160a01b0316826001600160a01b0316847f2f8788117e7eff1d82e926ec794901d17c78024a50270940304540a733656f0d60405160405180910390a450600161057c565b505f61057c565b5f6113f68383610ea4565b156113e4575f838152602081815260408083206001600160a01b0386168085529252808320805460ff1916905551339286917ff6391f5c32d9c69d2a47ea670b442974b53935d1edc7fd64eb21e047a839171b9190a450600161057c565b61145e8282610ea4565b61148d5760405163e2517d3f60e01b81526001600160a01b038216600482015260248101839052604401611107565b5050565b5080545f8255600202905f5260205f209081019061135991905b808211156114ca575f815560018101805460ff191690556002016114ab565b5090565b5f602082840312156114de575f5ffd5b81356001600160e01b0319811681146114f5575f5ffd5b9392505050565b5f6020828403121561150c575f5ffd5b5035919050565b5f81518084528060208401602086015e5f602082860101526020601f19601f83011685010191505092915050565b5f602082016020835280845180835260408501915060408160051b8601019250602086015f5b828110156115d657603f198786030184528151805186526020810151608060208801526115976080880182611513565b9050604082015187820360408901526115b08282611513565b606093840151151598909301979097525094506020938401939190910190600101611567565b50929695505050505050565b634e487b7160e01b5f52604160045260245ffd5b6040805190810167ffffffffffffffff81118282101715611619576116196115e2565b60405290565b604051601f8201601f1916810167ffffffffffffffff81118282101715611648576116486115e2565b604052919050565b5f82601f83011261165f575f5ffd5b813567ffffffffffffffff811115611679576116796115e2565b61168c601f8201601f191660200161161f565b8181528460208386010111156116a0575f5ffd5b816020850160208301375f918101602001919091529392505050565b5f5f604083850312156116cd575f5ffd5b823567ffffffffffffffff8111156116e3575f5ffd5b6116ef85828601611650565b925050602083013567ffffffffffffffff81111561170b575f5ffd5b61171785828601611650565b9150509250929050565b5f5f60408385031215611732575f5ffd5b8235915060208301356001600160a01b038116811461174f575f5ffd5b809150509250929050565b848152608060208201525f6117726080830186611513565b82810360408401526117848186611513565b915050821515606083015295945050505050565b602080825282518282018190525f918401906040840190835b818110156117cf5783518352602093840193909201916001016117b1565b509095945050505050565b602081525f6114f56020830184611513565b602080825282518282018190525f918401906040840190835b818110156117cf5783518051845260209081015115158185015290930192604090920191600101611805565b61010081525f61184561010083018b611513565b8281036020840152611857818b611513565b9050828103604084015261186b818a611513565b6001600160a01b039890981660608401525050608081019490945291151560a084015260c083015260e0909101529392505050565b5f5f5f5f5f61018086880312156118b5575f5ffd5b8535945060208601359350604086013592506101608601878111156118d8575f5ffd5b6060870192503567ffffffffffffffff8111156118f3575f5ffd5b8601601f81018813611903575f5ffd5b803567ffffffffffffffff81111561191d5761191d6115e2565b61192c60208260051b0161161f565b8082825260208201915060208360061b85010192508a83111561194d575f5ffd5b6020840193505b828410156119a5576040848c03121561196b575f5ffd5b6119736115f6565b8435815260208501358015158114611989575f5ffd5b8060208301525080835250602082019150604084019350611954565b809450505050509295509295909350565b5f5f604083850312156119c7575f5ffd5b50508035926020909101359150565b634e487b7160e01b5f52603260045260245ffd5b5f60018201611a0757634e487b7160e01b5f52601160045260245ffd5b5060010190565b600181811c90821680611a2257607f821691505b602082108103611a4057634e487b7160e01b5f52602260045260245ffd5b50919050565b601f821115610b8d57805f5260205f20601f840160051c81016020851015611a6b5750805b601f840160051c820191505b81811015611a8a575f8155600101611a77565b5050505050565b815167ffffffffffffffff811115611aab57611aab6115e2565b611abf81611ab98454611a0e565b84611a46565b6020601f821160018114611af1575f8315611ada5750848201515b5f19600385901b1c1916600184901b178455611a8a565b5f84815260208120601f198516915b82811015611b205787850151825560209485019460019092019101611b00565b5084821015611b3d57868401515f19600387901b60f8161c191681555b50505050600190811b01905550565b5f6101a0820190508782528660208301528560408301528460608301528360808301526101008360a084013797965050505050505056fea2646970667358221220daf0d2c45c0e04d610d78cce58faac770d00b19a2a4ef03f5a5f0dfbf47431a864736f6c634300081b0033a49807205ce4d355092ef5a8a18f56e8913cf4a201fbe287825b095693c21775f683d40ff386c6bfda70d3877dab9eb1ab577295319df15b0c64b095c82d335ca2646970667358221220b99cf82d4b50c243d1db41e8f2317ed21a7a77d9471791efc9cb5789276b6f3b64736f6c634300081b0033","linkReferences":{}},"methodIdentifiers":{"ADMIN_ROLE()":"75b238fc","DEFAULT_ADMIN_ROLE()":"a217fddf","ELECTION_CREATOR_ROLE()":"bf727cc2","canCreateElections(address)":"13f5eeac","createElection(string,string,string,(string,string)[])":"34e2653d","creatorElections(address,uint256)":"3c316221","deactivateElection(uint256)":"2f918b48","electionCount()":"997d2830","electionIds(uint256)":"02330a61","elections(uint256)":"5e6fef01","getActiveElections()":"8a3b63b0","getAllElections()":"7fd5f268","getElection(uint256)":"9d710777","getElectionByAction(string)":"c4a691fc","getElectionCount()":"213785a0","getElectionsByCreator(address)":"bce58935","getRoleAdmin(bytes32)":"248a9ca3","grantCreatorRole(address)":"4d43e6f0","grantRole(bytes32,address)":"2f2ff15d","hasRole(bytes32,address)":"91d14854","isWorldIdActionUsed(string)":"5c703913","renounceRole(bytes32,address)":"36568abe","revokeCreatorRole(address)":"45c98a3f","revokeRole(bytes32,address)":"d547741f","supportsInterface(bytes4)":"01ffc9a7","usedWorldIdActions(string)":"bf9a56cb","worldID()":"1213c3ef"},"id":1}